{
  "abi": [
    {
      "inputs": [],
      "name": "encodeTrade",
      "outputs": [
        {
          "internalType": "bytes32",
          "name": "",
          "type": "bytes32"
        }
      ],
      "stateMutability": "view",
      "type": "function"
    },
    {
      "inputs": [],
      "name": "getFCashAmount",
      "outputs": [
        {
          "internalType": "uint256",
          "name": "",
          "type": "uint256"
        }
      ],
      "stateMutability": "view",
      "type": "function"
    },
    {
      "inputs": [],
      "name": "getMarketIndex",
      "outputs": [
        {
          "internalType": "uint256",
          "name": "",
          "type": "uint256"
        }
      ],
      "stateMutability": "view",
      "type": "function"
    },
    {
      "inputs": [],
      "name": "getMinSlippage",
      "outputs": [
        {
          "internalType": "uint256",
          "name": "",
          "type": "uint256"
        }
      ],
      "stateMutability": "view",
      "type": "function"
    },
    {
      "inputs": [],
      "name": "getPadding",
      "outputs": [
        {
          "internalType": "uint256",
          "name": "",
          "type": "uint256"
        }
      ],
      "stateMutability": "view",
      "type": "function"
    },
    {
      "inputs": [],
      "name": "getTradeType",
      "outputs": [
        {
          "internalType": "uint256",
          "name": "",
          "type": "uint256"
        }
      ],
      "stateMutability": "view",
      "type": "function"
    },
    {
      "inputs": [],
      "name": "trade",
      "outputs": [
        {
          "internalType": "bytes32",
          "name": "",
          "type": "bytes32"
        }
      ],
      "stateMutability": "view",
      "type": "function"
    }
  ],
  "bytecode": "60806040527e020000000000000005fbf64400d5992c00000000000000000000000000000060005534801561003357600080fd5b50610229806100436000396000f3fe608060405234801561001057600080fd5b506004361061007d5760003560e01c80638495623f1161005b5780638495623f146100ac5780639fb4c9f9146100b4578063cb803ceb146100bc578063dfc1458e146100c45761007d565b80631f0ba6c91461008257806321f458901461009c578063838fd860146100a4575b600080fd5b61008a6100cc565b60408051918252519081900360200190f35b61008a6100d2565b61008a6100e8565b61008a6101b8565b61008a6101cf565b61008a6101de565b61008a6101ea565b60005481565b60005460981c6affffffffffffffffffffff1690565b6000806100f36101ea565b905060006100ff6101de565b9050600061010b6100d2565b905060006101176101cf565b905060006101236101b8565b60005490915063ffffffff60781b607884901b166affffffffffffffffffffff60981b609886901b1660ff60f01b60f088901b166001600160f81b031960f88a901b161717179081146101ae576040805162461bcd60e51b815260206004820152600e60248201526d6e6f742073616d6520747261646560901b604482015290519081900360640190fd5b9550505050505090565b6000546effffffffffffffffffffffffffffff1690565b60005460781c63ffffffff1690565b60005460f01c60ff1690565b60005460f81c9056fea2646970667358221220353b305f7be65c0e3500fc4745711c97f7a351b95f3c0de519cf4d0fb979a1c164736f6c634300060c0033",
  "bytecodeSha1": "8efdc8a38ce574a666ee4654799e5fa166424859",
  "compiler": {
    "evm_version": "istanbul",
    "optimizer": {
      "enabled": true,
      "runs": 200
    },
    "version": "0.6.12+commit.27d51765"
  },
  "contractName": "A",
  "language": "Solidity",
  "natspec": {
    "kind": "dev",
    "methods": {},
    "version": 1
  },
  "opcodes": "PUSH1 0x80 PUSH1 0x40 MSTORE CALLVALUE DUP1 ISZERO PUSH2 0x10 JUMPI PUSH1 0x0 DUP1 REVERT JUMPDEST POP PUSH1 0x4 CALLDATASIZE LT PUSH2 0x7D JUMPI PUSH1 0x0 CALLDATALOAD PUSH1 0xE0 SHR DUP1 PUSH4 0x8495623F GT PUSH2 0x5B JUMPI DUP1 PUSH4 0x8495623F EQ PUSH2 0xAC JUMPI DUP1 PUSH4 0x9FB4C9F9 EQ PUSH2 0xB4 JUMPI DUP1 PUSH4 0xCB803CEB EQ PUSH2 0xBC JUMPI DUP1 PUSH4 0xDFC1458E EQ PUSH2 0xC4 JUMPI PUSH2 0x7D JUMP JUMPDEST DUP1 PUSH4 0x1F0BA6C9 EQ PUSH2 0x82 JUMPI DUP1 PUSH4 0x21F45890 EQ PUSH2 0x9C JUMPI DUP1 PUSH4 0x838FD860 EQ PUSH2 0xA4 JUMPI JUMPDEST PUSH1 0x0 DUP1 REVERT JUMPDEST PUSH2 0x8A PUSH2 0xCC JUMP JUMPDEST PUSH1 0x40 DUP1 MLOAD SWAP2 DUP3 MSTORE MLOAD SWAP1 DUP2 SWAP1 SUB PUSH1 0x20 ADD SWAP1 RETURN JUMPDEST PUSH2 0x8A PUSH2 0xD2 JUMP JUMPDEST PUSH2 0x8A PUSH2 0xE8 JUMP JUMPDEST PUSH2 0x8A PUSH2 0x1B8 JUMP JUMPDEST PUSH2 0x8A PUSH2 0x1CF JUMP JUMPDEST PUSH2 0x8A PUSH2 0x1DE JUMP JUMPDEST PUSH2 0x8A PUSH2 0x1EA JUMP JUMPDEST PUSH1 0x0 SLOAD DUP2 JUMP JUMPDEST PUSH1 0x0 SLOAD PUSH1 0x98 SHR PUSH11 0xFFFFFFFFFFFFFFFFFFFFFF AND SWAP1 JUMP JUMPDEST PUSH1 0x0 DUP1 PUSH2 0xF3 PUSH2 0x1EA JUMP JUMPDEST SWAP1 POP PUSH1 0x0 PUSH2 0xFF PUSH2 0x1DE JUMP JUMPDEST SWAP1 POP PUSH1 0x0 PUSH2 0x10B PUSH2 0xD2 JUMP JUMPDEST SWAP1 POP PUSH1 0x0 PUSH2 0x117 PUSH2 0x1CF JUMP JUMPDEST SWAP1 POP PUSH1 0x0 PUSH2 0x123 PUSH2 0x1B8 JUMP JUMPDEST PUSH1 0x0 SLOAD SWAP1 SWAP2 POP PUSH4 0xFFFFFFFF PUSH1 0x78 SHL PUSH1 0x78 DUP5 SWAP1 SHL AND PUSH11 0xFFFFFFFFFFFFFFFFFFFFFF PUSH1 0x98 SHL PUSH1 0x98 DUP7 SWAP1 SHL AND PUSH1 0xFF PUSH1 0xF0 SHL PUSH1 0xF0 DUP9 SWAP1 SHL AND PUSH1 0x1 PUSH1 0x1 PUSH1 0xF8 SHL SUB NOT PUSH1 0xF8 DUP11 SWAP1 SHL AND OR OR OR SWAP1 DUP2 EQ PUSH2 0x1AE JUMPI PUSH1 0x40 DUP1 MLOAD PUSH3 0x461BCD PUSH1 0xE5 SHL DUP2 MSTORE PUSH1 0x20 PUSH1 0x4 DUP3 ADD MSTORE PUSH1 0xE PUSH1 0x24 DUP3 ADD MSTORE PUSH14 0x6E6F742073616D65207472616465 PUSH1 0x90 SHL PUSH1 0x44 DUP3 ADD MSTORE SWAP1 MLOAD SWAP1 DUP2 SWAP1 SUB PUSH1 0x64 ADD SWAP1 REVERT JUMPDEST SWAP6 POP POP POP POP POP POP SWAP1 JUMP JUMPDEST PUSH1 0x0 SLOAD PUSH15 0xFFFFFFFFFFFFFFFFFFFFFFFFFFFFFF AND SWAP1 JUMP JUMPDEST PUSH1 0x0 SLOAD PUSH1 0x78 SHR PUSH4 0xFFFFFFFF AND SWAP1 JUMP JUMPDEST PUSH1 0x0 SLOAD PUSH1 0xF0 SHR PUSH1 0xFF AND SWAP1 JUMP JUMPDEST PUSH1 0x0 SLOAD PUSH1 0xF8 SHR SWAP1 JUMP INVALID LOG2 PUSH5 0x6970667358 0x22 SLT KECCAK256 CALLDATALOAD EXTCODESIZE ADDRESS 0x5F PUSH28 0xE65C0E3500FC4745711C97F7A351B95F3C0DE519CF4D0FB979A1C164 PUSH20 0x6F6C634300060C00330000000000000000000000 ",
  "sha1": "d2dc82e2e811fba65e5cd356528a9b85fe532b3d",
  "source": "// SPDX-License-Identifier: AGPL-3.0\npragma solidity 0.6.12;\n\ncontract A {\n    bytes32 public trade = 0x00020000000000000005fbf64400d5992c000000000000000000000000000000;\n\n    function getTradeType() public view returns (uint) {\n        return uint256(uint8(bytes1(trade)));\n    }\n\n    function getMarketIndex() public view returns (uint) {\n        return uint256(uint8(bytes1(trade << 8)));\n    }\n\n    function getFCashAmount() public view returns (uint) {\n        return uint256(uint88(bytes11(trade << 16)));\n    }\n\n    function getMinSlippage() public view returns (uint) {\n        return uint256(uint32(bytes4(trade << 104)));\n    }\n\n    function getPadding() public view returns (uint) {\n        return uint256(uint120(bytes15(trade << 136)));\n    }\n\n    function encodeTrade() public view returns (bytes32) {\n        uint8 tradeType = uint8(getTradeType());\n        uint8 marketIndex = uint8(getMarketIndex());\n        uint88 fCashAmount = uint88(getFCashAmount());\n        uint32 minSlippage = uint32(getMinSlippage());\n        uint120 padding = uint120(getPadding());\n        \n        bytes32 result = bytes32(uint(tradeType)) << 248;\n        result |= bytes32(uint(marketIndex) << 240);\n        result |= bytes32(uint(fCashAmount) << 152);\n        result |= bytes32(uint(minSlippage) << 120);\n\n        require(result == trade, \"not same trade\");\n        return result;\n    }\n}",
  "sourcePath": "contracts/encodeTrade.sol",
  "type": "contract"
}