{
  "abi": [
    {
      "inputs": [
        {
          "internalType": "address",
          "name": "_vault",
          "type": "address"
        },
        {
          "internalType": "contract NotionalProxy",
          "name": "_nProxy",
          "type": "address"
        },
        {
          "internalType": "uint16",
          "name": "_currencyID",
          "type": "uint16"
        }
      ],
      "stateMutability": "nonpayable",
      "type": "constructor"
    },
    {
      "anonymous": false,
      "inputs": [
        {
          "indexed": true,
          "internalType": "address",
          "name": "clone",
          "type": "address"
        }
      ],
      "name": "Cloned",
      "type": "event"
    },
    {
      "anonymous": false,
      "inputs": [],
      "name": "EmergencyExitEnabled",
      "type": "event"
    },
    {
      "anonymous": false,
      "inputs": [
        {
          "indexed": false,
          "internalType": "uint256",
          "name": "profit",
          "type": "uint256"
        },
        {
          "indexed": false,
          "internalType": "uint256",
          "name": "loss",
          "type": "uint256"
        },
        {
          "indexed": false,
          "internalType": "uint256",
          "name": "debtPayment",
          "type": "uint256"
        },
        {
          "indexed": false,
          "internalType": "uint256",
          "name": "debtOutstanding",
          "type": "uint256"
        }
      ],
      "name": "Harvested",
      "type": "event"
    },
    {
      "anonymous": false,
      "inputs": [
        {
          "indexed": false,
          "internalType": "uint256",
          "name": "debtThreshold",
          "type": "uint256"
        }
      ],
      "name": "UpdatedDebtThreshold",
      "type": "event"
    },
    {
      "anonymous": false,
      "inputs": [
        {
          "indexed": false,
          "internalType": "address",
          "name": "newKeeper",
          "type": "address"
        }
      ],
      "name": "UpdatedKeeper",
      "type": "event"
    },
    {
      "anonymous": false,
      "inputs": [
        {
          "indexed": false,
          "internalType": "uint256",
          "name": "delay",
          "type": "uint256"
        }
      ],
      "name": "UpdatedMaxReportDelay",
      "type": "event"
    },
    {
      "anonymous": false,
      "inputs": [
        {
          "indexed": false,
          "internalType": "string",
          "name": "metadataURI",
          "type": "string"
        }
      ],
      "name": "UpdatedMetadataURI",
      "type": "event"
    },
    {
      "anonymous": false,
      "inputs": [
        {
          "indexed": false,
          "internalType": "uint256",
          "name": "delay",
          "type": "uint256"
        }
      ],
      "name": "UpdatedMinReportDelay",
      "type": "event"
    },
    {
      "anonymous": false,
      "inputs": [
        {
          "indexed": false,
          "internalType": "uint256",
          "name": "profitFactor",
          "type": "uint256"
        }
      ],
      "name": "UpdatedProfitFactor",
      "type": "event"
    },
    {
      "anonymous": false,
      "inputs": [
        {
          "indexed": false,
          "internalType": "address",
          "name": "rewards",
          "type": "address"
        }
      ],
      "name": "UpdatedRewards",
      "type": "event"
    },
    {
      "anonymous": false,
      "inputs": [
        {
          "indexed": false,
          "internalType": "address",
          "name": "newStrategist",
          "type": "address"
        }
      ],
      "name": "UpdatedStrategist",
      "type": "event"
    },
    {
      "inputs": [],
      "name": "DECIMALS_DIFFERENCE",
      "outputs": [
        {
          "internalType": "uint256",
          "name": "",
          "type": "uint256"
        }
      ],
      "stateMutability": "view",
      "type": "function"
    },
    {
      "inputs": [],
      "name": "apiVersion",
      "outputs": [
        {
          "internalType": "string",
          "name": "",
          "type": "string"
        }
      ],
      "stateMutability": "pure",
      "type": "function"
    },
    {
      "inputs": [
        {
          "internalType": "address",
          "name": "_vault",
          "type": "address"
        },
        {
          "internalType": "address",
          "name": "_strategist",
          "type": "address"
        },
        {
          "internalType": "address",
          "name": "_rewards",
          "type": "address"
        },
        {
          "internalType": "address",
          "name": "_keeper",
          "type": "address"
        },
        {
          "internalType": "contract NotionalProxy",
          "name": "_nProxy",
          "type": "address"
        },
        {
          "internalType": "uint16",
          "name": "_currencyID",
          "type": "uint16"
        }
      ],
      "name": "cloneStrategy",
      "outputs": [
        {
          "internalType": "address payable",
          "name": "newStrategy",
          "type": "address"
        }
      ],
      "stateMutability": "nonpayable",
      "type": "function"
    },
    {
      "inputs": [],
      "name": "currencyID",
      "outputs": [
        {
          "internalType": "uint16",
          "name": "",
          "type": "uint16"
        }
      ],
      "stateMutability": "view",
      "type": "function"
    },
    {
      "inputs": [],
      "name": "debtThreshold",
      "outputs": [
        {
          "internalType": "uint256",
          "name": "",
          "type": "uint256"
        }
      ],
      "stateMutability": "view",
      "type": "function"
    },
    {
      "inputs": [],
      "name": "delegatedAssets",
      "outputs": [
        {
          "internalType": "uint256",
          "name": "",
          "type": "uint256"
        }
      ],
      "stateMutability": "view",
      "type": "function"
    },
    {
      "inputs": [],
      "name": "doHealthCheck",
      "outputs": [
        {
          "internalType": "bool",
          "name": "",
          "type": "bool"
        }
      ],
      "stateMutability": "view",
      "type": "function"
    },
    {
      "inputs": [],
      "name": "emergencyExit",
      "outputs": [
        {
          "internalType": "bool",
          "name": "",
          "type": "bool"
        }
      ],
      "stateMutability": "view",
      "type": "function"
    },
    {
      "inputs": [],
      "name": "estimatedTotalAssets",
      "outputs": [
        {
          "internalType": "uint256",
          "name": "",
          "type": "uint256"
        }
      ],
      "stateMutability": "view",
      "type": "function"
    },
    {
      "inputs": [
        {
          "internalType": "uint256",
          "name": "_amtInWei",
          "type": "uint256"
        }
      ],
      "name": "ethToWant",
      "outputs": [
        {
          "internalType": "uint256",
          "name": "",
          "type": "uint256"
        }
      ],
      "stateMutability": "view",
      "type": "function"
    },
    {
      "inputs": [],
      "name": "getMaturity",
      "outputs": [
        {
          "internalType": "uint256",
          "name": "",
          "type": "uint256"
        }
      ],
      "stateMutability": "view",
      "type": "function"
    },
    {
      "inputs": [],
      "name": "getMinTimeToMaturity",
      "outputs": [
        {
          "internalType": "uint256",
          "name": "",
          "type": "uint256"
        }
      ],
      "stateMutability": "view",
      "type": "function"
    },
    {
      "inputs": [],
      "name": "getToggleRealizeLosses",
      "outputs": [
        {
          "internalType": "bool",
          "name": "",
          "type": "bool"
        }
      ],
      "stateMutability": "view",
      "type": "function"
    },
    {
      "inputs": [],
      "name": "harvest",
      "outputs": [],
      "stateMutability": "nonpayable",
      "type": "function"
    },
    {
      "inputs": [
        {
          "internalType": "uint256",
          "name": "callCostInWei",
          "type": "uint256"
        }
      ],
      "name": "harvestTrigger",
      "outputs": [
        {
          "internalType": "bool",
          "name": "",
          "type": "bool"
        }
      ],
      "stateMutability": "view",
      "type": "function"
    },
    {
      "inputs": [],
      "name": "healthCheck",
      "outputs": [
        {
          "internalType": "address",
          "name": "",
          "type": "address"
        }
      ],
      "stateMutability": "view",
      "type": "function"
    },
    {
      "inputs": [
        {
          "internalType": "address",
          "name": "_vault",
          "type": "address"
        },
        {
          "internalType": "address",
          "name": "_strategist",
          "type": "address"
        },
        {
          "internalType": "address",
          "name": "_rewards",
          "type": "address"
        },
        {
          "internalType": "address",
          "name": "_keeper",
          "type": "address"
        },
        {
          "internalType": "contract NotionalProxy",
          "name": "_nProxy",
          "type": "address"
        },
        {
          "internalType": "uint16",
          "name": "_currencyID",
          "type": "uint16"
        }
      ],
      "name": "initialize",
      "outputs": [],
      "stateMutability": "nonpayable",
      "type": "function"
    },
    {
      "inputs": [],
      "name": "isActive",
      "outputs": [
        {
          "internalType": "bool",
          "name": "",
          "type": "bool"
        }
      ],
      "stateMutability": "view",
      "type": "function"
    },
    {
      "inputs": [],
      "name": "keeper",
      "outputs": [
        {
          "internalType": "address",
          "name": "",
          "type": "address"
        }
      ],
      "stateMutability": "view",
      "type": "function"
    },
    {
      "inputs": [],
      "name": "maxReportDelay",
      "outputs": [
        {
          "internalType": "uint256",
          "name": "",
          "type": "uint256"
        }
      ],
      "stateMutability": "view",
      "type": "function"
    },
    {
      "inputs": [],
      "name": "metadataURI",
      "outputs": [
        {
          "internalType": "string",
          "name": "",
          "type": "string"
        }
      ],
      "stateMutability": "view",
      "type": "function"
    },
    {
      "inputs": [
        {
          "internalType": "address",
          "name": "_newStrategy",
          "type": "address"
        }
      ],
      "name": "migrate",
      "outputs": [],
      "stateMutability": "nonpayable",
      "type": "function"
    },
    {
      "inputs": [],
      "name": "minAmountWant",
      "outputs": [
        {
          "internalType": "uint16",
          "name": "",
          "type": "uint16"
        }
      ],
      "stateMutability": "view",
      "type": "function"
    },
    {
      "inputs": [],
      "name": "minReportDelay",
      "outputs": [
        {
          "internalType": "uint256",
          "name": "",
          "type": "uint256"
        }
      ],
      "stateMutability": "view",
      "type": "function"
    },
    {
      "inputs": [],
      "name": "nProxy",
      "outputs": [
        {
          "internalType": "contract NotionalProxy",
          "name": "",
          "type": "address"
        }
      ],
      "stateMutability": "view",
      "type": "function"
    },
    {
      "inputs": [],
      "name": "name",
      "outputs": [
        {
          "internalType": "string",
          "name": "",
          "type": "string"
        }
      ],
      "stateMutability": "view",
      "type": "function"
    },
    {
      "inputs": [
        {
          "internalType": "address",
          "name": "_sender",
          "type": "address"
        },
        {
          "internalType": "address",
          "name": "_from",
          "type": "address"
        },
        {
          "internalType": "uint256",
          "name": "_id",
          "type": "uint256"
        },
        {
          "internalType": "uint256",
          "name": "_amount",
          "type": "uint256"
        },
        {
          "internalType": "bytes",
          "name": "_data",
          "type": "bytes"
        }
      ],
      "name": "onERC1155Received",
      "outputs": [
        {
          "internalType": "bytes4",
          "name": "",
          "type": "bytes4"
        }
      ],
      "stateMutability": "nonpayable",
      "type": "function"
    },
    {
      "inputs": [],
      "name": "profitFactor",
      "outputs": [
        {
          "internalType": "uint256",
          "name": "",
          "type": "uint256"
        }
      ],
      "stateMutability": "view",
      "type": "function"
    },
    {
      "inputs": [],
      "name": "rewards",
      "outputs": [
        {
          "internalType": "address",
          "name": "",
          "type": "address"
        }
      ],
      "stateMutability": "view",
      "type": "function"
    },
    {
      "inputs": [],
      "name": "sendETHToGovernance",
      "outputs": [],
      "stateMutability": "nonpayable",
      "type": "function"
    },
    {
      "inputs": [
        {
          "internalType": "uint256",
          "name": "_debtThreshold",
          "type": "uint256"
        }
      ],
      "name": "setDebtThreshold",
      "outputs": [],
      "stateMutability": "nonpayable",
      "type": "function"
    },
    {
      "inputs": [
        {
          "internalType": "bool",
          "name": "_doHealthCheck",
          "type": "bool"
        }
      ],
      "name": "setDoHealthCheck",
      "outputs": [],
      "stateMutability": "nonpayable",
      "type": "function"
    },
    {
      "inputs": [],
      "name": "setEmergencyExit",
      "outputs": [],
      "stateMutability": "nonpayable",
      "type": "function"
    },
    {
      "inputs": [
        {
          "internalType": "address",
          "name": "_healthCheck",
          "type": "address"
        }
      ],
      "name": "setHealthCheck",
      "outputs": [],
      "stateMutability": "nonpayable",
      "type": "function"
    },
    {
      "inputs": [
        {
          "internalType": "address",
          "name": "_keeper",
          "type": "address"
        }
      ],
      "name": "setKeeper",
      "outputs": [],
      "stateMutability": "nonpayable",
      "type": "function"
    },
    {
      "inputs": [
        {
          "internalType": "uint256",
          "name": "_delay",
          "type": "uint256"
        }
      ],
      "name": "setMaxReportDelay",
      "outputs": [],
      "stateMutability": "nonpayable",
      "type": "function"
    },
    {
      "inputs": [
        {
          "internalType": "string",
          "name": "_metadataURI",
          "type": "string"
        }
      ],
      "name": "setMetadataURI",
      "outputs": [],
      "stateMutability": "nonpayable",
      "type": "function"
    },
    {
      "inputs": [
        {
          "internalType": "uint16",
          "name": "_newMinAmount",
          "type": "uint16"
        }
      ],
      "name": "setMinAmountWant",
      "outputs": [],
      "stateMutability": "nonpayable",
      "type": "function"
    },
    {
      "inputs": [
        {
          "internalType": "uint256",
          "name": "_delay",
          "type": "uint256"
        }
      ],
      "name": "setMinReportDelay",
      "outputs": [],
      "stateMutability": "nonpayable",
      "type": "function"
    },
    {
      "inputs": [
        {
          "internalType": "uint256",
          "name": "_newTime",
          "type": "uint256"
        }
      ],
      "name": "setMinTimeToMaturity",
      "outputs": [],
      "stateMutability": "nonpayable",
      "type": "function"
    },
    {
      "inputs": [
        {
          "internalType": "uint256",
          "name": "_profitFactor",
          "type": "uint256"
        }
      ],
      "name": "setProfitFactor",
      "outputs": [],
      "stateMutability": "nonpayable",
      "type": "function"
    },
    {
      "inputs": [
        {
          "internalType": "address",
          "name": "_rewards",
          "type": "address"
        }
      ],
      "name": "setRewards",
      "outputs": [],
      "stateMutability": "nonpayable",
      "type": "function"
    },
    {
      "inputs": [
        {
          "internalType": "address",
          "name": "_strategist",
          "type": "address"
        }
      ],
      "name": "setStrategist",
      "outputs": [],
      "stateMutability": "nonpayable",
      "type": "function"
    },
    {
      "inputs": [
        {
          "internalType": "bool",
          "name": "_newToggle",
          "type": "bool"
        }
      ],
      "name": "setToggleRealizeLosses",
      "outputs": [],
      "stateMutability": "nonpayable",
      "type": "function"
    },
    {
      "inputs": [],
      "name": "strategist",
      "outputs": [
        {
          "internalType": "address",
          "name": "",
          "type": "address"
        }
      ],
      "stateMutability": "view",
      "type": "function"
    },
    {
      "inputs": [
        {
          "internalType": "address",
          "name": "_token",
          "type": "address"
        }
      ],
      "name": "sweep",
      "outputs": [],
      "stateMutability": "nonpayable",
      "type": "function"
    },
    {
      "inputs": [],
      "name": "tend",
      "outputs": [],
      "stateMutability": "nonpayable",
      "type": "function"
    },
    {
      "inputs": [
        {
          "internalType": "uint256",
          "name": "callCostInWei",
          "type": "uint256"
        }
      ],
      "name": "tendTrigger",
      "outputs": [
        {
          "internalType": "bool",
          "name": "",
          "type": "bool"
        }
      ],
      "stateMutability": "view",
      "type": "function"
    },
    {
      "inputs": [],
      "name": "vault",
      "outputs": [
        {
          "internalType": "contract VaultAPI",
          "name": "",
          "type": "address"
        }
      ],
      "stateMutability": "view",
      "type": "function"
    },
    {
      "inputs": [],
      "name": "want",
      "outputs": [
        {
          "internalType": "contract IERC20",
          "name": "",
          "type": "address"
        }
      ],
      "stateMutability": "view",
      "type": "function"
    },
    {
      "inputs": [],
      "name": "weth",
      "outputs": [
        {
          "internalType": "contract IWETH",
          "name": "",
          "type": "address"
        }
      ],
      "stateMutability": "view",
      "type": "function"
    },
    {
      "inputs": [
        {
          "internalType": "uint256",
          "name": "_amountNeeded",
          "type": "uint256"
        }
      ],
      "name": "withdraw",
      "outputs": [
        {
          "internalType": "uint256",
          "name": "_loss",
          "type": "uint256"
        }
      ],
      "stateMutability": "nonpayable",
      "type": "function"
    },
    {
      "stateMutability": "payable",
      "type": "receive"
    }
  ],
  "bytecode": "60806040523480156200001157600080fd5b50604051620063ce380380620063ce833981016040819052620000349162000821565b82620000438133808062000059565b506200005082826200023d565b50505062000b2f565b6006546001600160a01b0316156200008e5760405162461bcd60e51b8152600401620000859062000974565b60405180910390fd5b600280546001600160a01b0319166001600160a01b03868116919091179182905560408051637e062a3560e11b81529051929091169163fc0c546a91600480820192602092909190829003018186803b158015620000eb57600080fd5b505afa15801562000100573d6000803e3d6000fd5b505050506040513d601f19601f8201168201806040525081019062000126919062000802565b600680546001600160a01b0319166001600160a01b03928316179081905562000160911685600019620003a5602090811b620028b617901c565b600380546001600160a01b038086166001600160a01b03199283161790925560048054858416908316178082556005805486861694169390931790925560006007819055620151806008556064600955600a5560025460405163095ea7b360e01b81529084169363095ea7b393620001e093911691600019910162000926565b602060405180830381600087803b158015620001fb57600080fd5b505af115801562000210573d6000803e3d6000fd5b505050506040513d601f19601f8201168201806040525081019062000236919062000879565b5050505050565b600b805461ffff60a81b1916600160a81b61ffff84160217610100600160a81b0319166101006001600160a01b038516021790556200027b62000742565b6200028562000742565b60405163275d68c760e11b81526001600160a01b03851690634ebad18e90620002b390869060040162000aca565b6101406040518083038186803b158015620002cd57600080fd5b505afa158015620002e2573d6000803e3d6000fd5b505050506040513d601f19601f820116820180604052508101906200030891906200089b565b91509150620003498260400151620003356127108460400151620004b360201b620029b51790919060201c565b620004fc60201b620029f61790919060201c565b600c55600e805462ff00001916905561ffff831660011415620003825780516001600160a01b0316156200037c57600080fd5b6200039f565b80516006546001600160a01b039081169116146200039f57600080fd5b50505050565b801580620004345750604051636eb1769f60e11b81526001600160a01b0384169063dd62ed3e90620003de90309086906004016200090c565b60206040518083038186803b158015620003f757600080fd5b505afa1580156200040c573d6000803e3d6000fd5b505050506040513d601f19601f82011682018060405250810190620004329190620008d5565b155b620004535760405162461bcd60e51b8152600401620000859062000a6d565b620004ae8363095ea7b360e01b84846040516024016200047592919062000926565b60408051808303601f190181529190526020810180516001600160e01b0319939093166001600160e01b03938416179052906200054616565b505050565b600082620004c457506000620004f6565b82820282848281620004d257fe5b0414620004f35760405162461bcd60e51b81526004016200008590620009ab565b90505b92915050565b6000620004f383836040518060400160405280601a81526020017f536166654d6174683a206469766973696f6e206279207a65726f000000000000815250620005e260201b60201c565b6060620005a2826040518060400160405280602081526020017f5361666545524332303a206c6f772d6c6576656c2063616c6c206661696c6564815250856001600160a01b03166200061d60201b62002a38179092919060201c565b805190915015620004ae5780806020019051810190620005c3919062000879565b620004ae5760405162461bcd60e51b8152600401620000859062000a23565b60008183620006065760405162461bcd60e51b81526004016200008591906200093f565b5060008385816200061357fe5b0495945050505050565b60606200062e848460008562000636565b949350505050565b6060620006438562000708565b620006625760405162461bcd60e51b81526004016200008590620009ec565b60006060866001600160a01b03168587604051620006819190620008ee565b60006040518083038185875af1925050503d8060008114620006c0576040519150601f19603f3d011682016040523d82523d6000602084013e620006c5565b606091505b50915091508115620006db5791506200062e9050565b805115620006ec5780518082602001fd5b8360405162461bcd60e51b81526004016200008591906200093f565b6000813f7fc5d2460186f7233c927e7db2dcc703c0e500b653ca82273b7bfad8045d85a4708181148015906200062e575050151592915050565b6040805160a0810182526000808252602082018190529181018290529060608201908152602001600081525090565b600060a0828403121562000783578081fd5b60405160a081016001600160401b0381118282101715620007a2578283fd5b80604052508091508251620007b78162000b08565b815260208301518015158114620007cd57600080fd5b6020820152604083810151908201526060830151620007ec8162000b21565b6060820152608092830151920191909152919050565b60006020828403121562000814578081fd5b8151620004f38162000b08565b60008060006060848603121562000836578182fd5b8351620008438162000b08565b6020850151909350620008568162000b08565b604085015190925061ffff811681146200086e578182fd5b809150509250925092565b6000602082840312156200088b578081fd5b81518015158114620004f3578182fd5b6000806101408385031215620008af578182fd5b620008bb848462000771565b9150620008cc8460a0850162000771565b90509250929050565b600060208284031215620008e7578081fd5b5051919050565b600082516200090281846020870162000ad9565b9190910192915050565b6001600160a01b0392831681529116602082015260400190565b6001600160a01b03929092168252602082015260400190565b60006020825282518060208401526200096081604085016020870162000ad9565b601f01601f19169190910160400192915050565b6020808252601c908201527f537472617465677920616c726561647920696e697469616c697a656400000000604082015260600190565b60208082526021908201527f536166654d6174683a206d756c7469706c69636174696f6e206f766572666c6f6040820152607760f81b606082015260800190565b6020808252601d908201527f416464726573733a2063616c6c20746f206e6f6e2d636f6e7472616374000000604082015260600190565b6020808252602a908201527f5361666545524332303a204552433230206f7065726174696f6e20646964206e6040820152691bdd081cdd58d8d9595960b21b606082015260800190565b60208082526036908201527f5361666545524332303a20617070726f76652066726f6d206e6f6e2d7a65726f60408201527f20746f206e6f6e2d7a65726f20616c6c6f77616e636500000000000000000000606082015260800190565b61ffff91909116815260200190565b60005b8381101562000af657818101518382015260200162000adc565b838111156200039f5750506000910152565b6001600160a01b038116811462000b1e57600080fd5b50565b6005811062000b1e57600080fd5b61588f8062000b3f6000396000f3fe6080604052600436106103035760003560e01c8063750521f511610190578063c7b9d530116100dc578063efbb5cb011610095578063f23a6e611161006f578063f23a6e6114610832578063fb151eaf1461085f578063fbfa77cf14610874578063fcf2d0ad146108895761030a565b8063efbb5cb0146107dd578063f017c92f146107f2578063f0ee6773146108125761030a565b8063c7b9d53014610728578063ce5494bb14610748578063df80eee614610768578063e16695b514610788578063ec38a8621461079d578063ed882c2b146107bd5761030a565b806395e80c5011610149578063ac00ff2611610123578063ac00ff26146106c9578063aced1661146106e9578063b252720b146106fe578063bdf00dbe146107135761030a565b806395e80c501461068a5780639ec5a8941461069f578063aa62639d146106b45761030a565b8063750521f5146105e0578063780022a0146106005780637f230f0c146106205780638cdfe166146106405780638e6350e21461065557806391397ab41461066a5761030a565b8063258294101161024f5780633fc8cef3116102085780635641ec03116101e25780635641ec0314610576578063650d18801461058b5780636718835f146105ab578063748747e6146105c05761030a565b80633fc8cef314610537578063440368a31461054c5780634641257d146105615761030a565b8063258294101461049857806328b7ccf7146104ad5780632e1a7d4d146104c2578063361689dc146104e257806338a3f0701461050257806339a172a8146105175761030a565b806311bc8245116102bc5780631d12f28b116102965780631d12f28b1461041d5780631f1fcd511461043f5780631fe4a6861461046157806322f3e2d4146104765761030a565b806311bc8245146103c8578063125c42f6146103e85780631923c0f9146104085761030a565b806301681a621461030f57806303ee438c1461033157806306fdde031461035c5780630d735ace146103715780630d85ae4d146103935780630f969b87146103a85761030a565b3661030a57005b600080fd5b34801561031b57600080fd5b5061032f61032a366004614ba0565b61089e565b005b34801561033d57600080fd5b50610346610a3d565b60405161035391906153da565b60405180910390f35b34801561036857600080fd5b50610346610acb565b34801561037d57600080fd5b50610386610b02565b60405161035391906156b5565b34801561039f57600080fd5b5061032f610b13565b3480156103b457600080fd5b5061032f6103c3366004615167565b610bd1565b3480156103d457600080fd5b5061032f6103e3366004614ba0565b610c5e565b3480156103f457600080fd5b5061032f610403366004614bd8565b610d5f565b34801561041457600080fd5b50610386610d7d565b34801561042957600080fd5b50610432610d87565b6040516103539190615756565b34801561044b57600080fd5b50610454610d8d565b60405161035391906151f4565b34801561046d57600080fd5b50610454610d9c565b34801561048257600080fd5b5061048b610dab565b604051610353919061538b565b3480156104a457600080fd5b50610346610e4d565b3480156104b957600080fd5b50610432610e6c565b3480156104ce57600080fd5b506104326104dd366004615167565b610e72565b3480156104ee57600080fd5b506104546104fd366004614bd8565b610ecd565b34801561050e57600080fd5b50610432610fc0565b34801561052357600080fd5b5061032f610532366004615167565b610fc6565b34801561054357600080fd5b50610454611048565b34801561055857600080fd5b5061032f611060565b34801561056d57600080fd5b5061032f611289565b34801561058257600080fd5b5061048b611762565b34801561059757600080fd5b5061048b6105a6366004615167565b61176b565b3480156105b757600080fd5b5061048b611773565b3480156105cc57600080fd5b5061032f6105db366004614ba0565b61177c565b3480156105ec57600080fd5b5061032f6105fb366004614ef0565b611827565b34801561060c57600080fd5b5061043261061b366004615167565b6118be565b34801561062c57600080fd5b5061032f61063b366004615167565b6118de565b34801561064c57600080fd5b50610432611a72565b34801561066157600080fd5b50610432611a78565b34801561067657600080fd5b5061032f610685366004615167565b611a7d565b34801561069657600080fd5b50610432611aff565b3480156106ab57600080fd5b50610454611b05565b3480156106c057600080fd5b5061048b611b14565b3480156106d557600080fd5b5061032f6106e4366004614e50565b611b23565b3480156106f557600080fd5b50610454611c0f565b34801561070a57600080fd5b50610454611c1e565b34801561071f57600080fd5b50610432611c32565b34801561073457600080fd5b5061032f610743366004614ba0565b611c38565b34801561075457600080fd5b5061032f610763366004614ba0565b611ce3565b34801561077457600080fd5b5061032f61078336600461514b565b611e31565b34801561079457600080fd5b50610432611fd8565b3480156107a957600080fd5b5061032f6107b8366004614ba0565b611fde565b3480156107c957600080fd5b5061048b6107d8366004615167565b612171565b3480156107e957600080fd5b506104326123fb565b3480156107fe57600080fd5b5061032f61080d366004615167565b612416565b34801561081e57600080fd5b5061032f61082d366004614e50565b612498565b34801561083e57600080fd5b5061085261084d366004614c59565b612643565b6040516103539190615396565b34801561086b57600080fd5b5061045461266e565b34801561088057600080fd5b50610454612682565b34801561089557600080fd5b5061032f612691565b6108a6612a4f565b6001600160a01b0316336001600160a01b0316146108df5760405162461bcd60e51b81526004016108d6906155cc565b60405180910390fd5b6006546001600160a01b038281169116141561090d5760405162461bcd60e51b81526004016108d690615432565b6002546001600160a01b038281169116141561093b5760405162461bcd60e51b81526004016108d690615574565b6060610945612acc565b905060005b81518110156109a05781818151811061095f57fe5b60200260200101516001600160a01b0316836001600160a01b031614156109985760405162461bcd60e51b81526004016108d69061563b565b60010161094a565b50610a396109ac612a4f565b6040516370a0823160e01b81526001600160a01b038516906370a08231906109d89030906004016151f4565b60206040518083038186803b1580156109f057600080fd5b505afa158015610a04573d6000803e3d6000fd5b505050506040513d601f19601f82011682018060405250810190610a289190614e88565b6001600160a01b0385169190612ad1565b5050565b6000805460408051602060026001851615610100026000190190941693909304601f81018490048402820184019092528181529291830182828015610ac35780601f10610a9857610100808354040283529160200191610ac3565b820191906000526020600020905b815481529060010190602001808311610aa657829003601f168201915b505050505081565b60408051808201909152601781527f53747261746567794e6f74696f6e616c4c656e64696e67000000000000000000602082015290565b600b54600160a81b900461ffff1681565b610b1b612a4f565b6001600160a01b0316336001600160a01b031614610b4b5760405162461bcd60e51b81526004016108d6906155cc565b60006060610b57612a4f565b6001600160a01b031647604051610b6d906151f1565b60006040518083038185875af1925050503d8060008114610baa576040519150601f19603f3d011682016040523d82523d6000602084013e610baf565b606091505b509150915081610a395760405162461bcd60e51b81526004016108d690615488565b6003546001600160a01b0316331480610c025750610bed612a4f565b6001600160a01b0316336001600160a01b0316145b610c1e5760405162461bcd60e51b81526004016108d6906155cc565b600a8190556040517fa68ba126373d04c004c5748c300c9fca12bd444b3d4332e261f3bd2bac4a860090610c53908390615756565b60405180910390a150565b600260009054906101000a90046001600160a01b03166001600160a01b03166388a8d6026040518163ffffffff1660e01b815260040160206040518083038186803b158015610cac57600080fd5b505afa158015610cc0573d6000803e3d6000fd5b505050506040513d601f19601f82011682018060405250810190610ce49190614bbc565b6001600160a01b0316336001600160a01b03161480610d1b5750610d06612a4f565b6001600160a01b0316336001600160a01b0316145b610d375760405162461bcd60e51b81526004016108d6906155cc565b600180546001600160a01b0390921661010002610100600160a81b0319909216919091179055565b610d6b86868686612af0565b610d758282612cb0565b505050505050565b600e5461ffff1681565b600a5481565b6006546001600160a01b031681565b6003546001600160a01b031681565b6002546040516339ebf82360e01b815260009182916001600160a01b03909116906339ebf82390610de09030906004016151f4565b6101206040518083038186803b158015610df957600080fd5b505afa158015610e0d573d6000803e3d6000fd5b505050506040513d601f19601f82011682018060405250810190610e319190614fc3565b604001511180610e4857506000610e466123fb565b115b905090565b604080518082019091526005815264302e342e3360d81b602082015290565b60085481565b6002546000906001600160a01b03163314610e9f5760405162461bcd60e51b81526004016108d690615554565b6000610eaa83612df4565b600654909350909150610ec7906001600160a01b03163383612ad1565b50919050565b604051733d602d80600a3d3981f3363d3d373d3d3d363d7360601b81523060601b601482018190526e5af43d82803e903d91602b57fd5bf360881b602883015260009160378184f060405163092e217b60e11b81529093506001600160a01b038416915063125c42f690610f4f908b908b908b908b908b908b90600401615334565b600060405180830381600087803b158015610f6957600080fd5b505af1158015610f7d573d6000803e3d6000fd5b50506040516001600160a01b03851692507f783540fb4221a3238720dc7038937d0d79982bcf895274aa6ad179f82cf0d53c9150600090a2509695505050505050565b600d5490565b6003546001600160a01b0316331480610ff75750610fe2612a4f565b6001600160a01b0316336001600160a01b0316145b6110135760405162461bcd60e51b81526004016108d6906155cc565b60078190556040517fbb2c369a0355a34b02ab5fce0643150c87e1c8dfe7c918d465591879f57948b190610c53908390615756565b73c02aaa39b223fe8d0a0e5c4f27ead9083c756cc281565b6005546001600160a01b031633148061108357506003546001600160a01b031633145b806110a65750611091612a4f565b6001600160a01b0316336001600160a01b0316145b806111475750600260009054906101000a90046001600160a01b03166001600160a01b031663452a93206040518163ffffffff1660e01b815260040160206040518083038186803b1580156110fa57600080fd5b505afa15801561110e573d6000803e3d6000fd5b505050506040513d601f19601f820116820180604052508101906111329190614bbc565b6001600160a01b0316336001600160a01b0316145b806111e85750600260009054906101000a90046001600160a01b03166001600160a01b03166388a8d6026040518163ffffffff1660e01b815260040160206040518083038186803b15801561119b57600080fd5b505afa1580156111af573d6000803e3d6000fd5b505050506040513d601f19601f820116820180604052508101906111d39190614bbc565b6001600160a01b0316336001600160a01b0316145b6112045760405162461bcd60e51b81526004016108d6906155cc565b6002546040805163bf3759b560e01b81529051611287926001600160a01b03169163bf3759b5916004808301926020929190829003018186803b15801561124a57600080fd5b505afa15801561125e573d6000803e3d6000fd5b505050506040513d601f19601f820116820180604052508101906112829190614e88565b6132f9565b565b6005546001600160a01b03163314806112ac57506003546001600160a01b031633145b806112cf57506112ba612a4f565b6001600160a01b0316336001600160a01b0316145b806113705750600260009054906101000a90046001600160a01b03166001600160a01b031663452a93206040518163ffffffff1660e01b815260040160206040518083038186803b15801561132357600080fd5b505afa158015611337573d6000803e3d6000fd5b505050506040513d601f19601f8201168201806040525081019061135b9190614bbc565b6001600160a01b0316336001600160a01b0316145b806114115750600260009054906101000a90046001600160a01b03166001600160a01b03166388a8d6026040518163ffffffff1660e01b815260040160206040518083038186803b1580156113c457600080fd5b505afa1580156113d8573d6000803e3d6000fd5b505050506040513d601f19601f820116820180604052508101906113fc9190614bbc565b6001600160a01b0316336001600160a01b0316145b61142d5760405162461bcd60e51b81526004016108d6906155cc565b6000806000600260009054906101000a90046001600160a01b03166001600160a01b031663bf3759b56040518163ffffffff1660e01b815260040160206040518083038186803b15801561148057600080fd5b505afa158015611494573d6000803e3d6000fd5b505050506040513d601f19601f820116820180604052508101906114b89190614e88565b600b5490915060009060ff16156115155760006114d36135bf565b9050828110156114ee576114e783826135d9565b9350611503565b828111156115035761150081846135d9565b94505b61150d83856135d9565b915050611526565b61151e8261361b565b919550935090505b6002546040516339ebf82360e01b81526000916001600160a01b0316906339ebf823906115579030906004016151f4565b6101206040518083038186803b15801561157057600080fd5b505afa158015611584573d6000803e3d6000fd5b505050506040513d601f19601f820116820180604052508101906115a89190614fc3565b60c001516002546040516328766ebf60e21b81529192506001600160a01b03169063a1d9bafc906115e19088908890879060040161575f565b602060405180830381600087803b1580156115fb57600080fd5b505af115801561160f573d6000803e3d6000fd5b505050506040513d601f19601f820116820180604052508101906116339190614e88565b925061163e836132f9565b60015460ff16801561165f575060015461010090046001600160a01b031615155b156117115760015460405163c70fa00b60e01b81526101009091046001600160a01b03169063c70fa00b906116a09088908890879089908890600401615790565b60206040518083038186803b1580156116b857600080fd5b505afa1580156116cc573d6000803e3d6000fd5b505050506040513d601f19601f820116820180604052508101906116f09190614e6c565b61170c5760405162461bcd60e51b81526004016108d6906154b6565b61171e565b6001805460ff1916811790555b7f4c0f499ffe6befa0ca7c826b0916cf87bea98de658013e76938489368d60d509858584866040516117539493929190615775565b60405180910390a15050505050565b600b5460ff1681565b60005b919050565b60015460ff1681565b6003546001600160a01b03163314806117ad5750611798612a4f565b6001600160a01b0316336001600160a01b0316145b6117c95760405162461bcd60e51b81526004016108d6906155cc565b6001600160a01b0381166117dc57600080fd5b600580546001600160a01b0319166001600160a01b0383161790556040517f2f202ddb4a2e345f6323ed90f8fc8559d770a7abbbeee84dde8aca3351fe715490610c539083906151f4565b6003546001600160a01b03163314806118585750611843612a4f565b6001600160a01b0316336001600160a01b0316145b6118745760405162461bcd60e51b81526004016108d6906155cc565b6118806000838361485b565b507f300e67d5a415b6d015a471d9c7b95dd58f3e8290af965e84e0f845de2996dda682826040516118b29291906153ab565b60405180910390a15050565b6006546000906118d89083906001600160a01b031661370c565b92915050565b6003546001600160a01b031633148061190f57506118fa612a4f565b6001600160a01b0316336001600160a01b0316145b806119b05750600260009054906101000a90046001600160a01b03166001600160a01b031663452a93206040518163ffffffff1660e01b815260040160206040518083038186803b15801561196357600080fd5b505afa158015611977573d6000803e3d6000fd5b505050506040513d601f19601f8201168201806040525081019061199b9190614bbc565b6001600160a01b0316336001600160a01b0316145b80611a515750600260009054906101000a90046001600160a01b03166001600160a01b03166388a8d6026040518163ffffffff1660e01b815260040160206040518083038186803b158015611a0457600080fd5b505afa158015611a18573d6000803e3d6000fd5b505050506040513d601f19601f82011682018060405250810190611a3c9190614bbc565b6001600160a01b0316336001600160a01b0316145b611a6d5760405162461bcd60e51b81526004016108d6906155cc565b600d55565b60095481565b600090565b6003546001600160a01b0316331480611aae5750611a99612a4f565b6001600160a01b0316336001600160a01b0316145b611aca5760405162461bcd60e51b81526004016108d6906155cc565b60098190556040517fd94596337df4c2f0f44d30a7fc5db1c7bb60d9aca4185ed77c6fd96eb45ec29890610c53908390615756565b60075481565b6004546001600160a01b031681565b600e5462010000900460ff1690565b600260009054906101000a90046001600160a01b03166001600160a01b03166388a8d6026040518163ffffffff1660e01b815260040160206040518083038186803b158015611b7157600080fd5b505afa158015611b85573d6000803e3d6000fd5b505050506040513d601f19601f82011682018060405250810190611ba99190614bbc565b6001600160a01b0316336001600160a01b03161480611be05750611bcb612a4f565b6001600160a01b0316336001600160a01b0316145b611bfc5760405162461bcd60e51b81526004016108d6906155cc565b6001805460ff1916911515919091179055565b6005546001600160a01b031681565b60015461010090046001600160a01b031681565b600c5481565b6003546001600160a01b0316331480611c695750611c54612a4f565b6001600160a01b0316336001600160a01b0316145b611c855760405162461bcd60e51b81526004016108d6906155cc565b6001600160a01b038116611c9857600080fd5b600380546001600160a01b0319166001600160a01b0383161790556040517f352ececae6d7d1e6d26bcf2c549dfd55be1637e9b22dc0cf3b71ddb36097a6b490610c539083906151f4565b6002546001600160a01b03163314611cfa57600080fd5b6002546040805163fbfa77cf60e01b815290516001600160a01b039283169284169163fbfa77cf916004808301926020929190829003018186803b158015611d4157600080fd5b505afa158015611d55573d6000803e3d6000fd5b505050506040513d601f19601f82011682018060405250810190611d799190614bbc565b6001600160a01b031614611d8c57600080fd5b611d958161382f565b6006546040516370a0823160e01b8152611e2e9183916001600160a01b03909116906370a0823190611dcb9030906004016151f4565b60206040518083038186803b158015611de357600080fd5b505afa158015611df7573d6000803e3d6000fd5b505050506040513d601f19601f82011682018060405250810190611e1b9190614e88565b6006546001600160a01b03169190612ad1565b50565b6003546001600160a01b0316331480611e625750611e4d612a4f565b6001600160a01b0316336001600160a01b0316145b80611f035750600260009054906101000a90046001600160a01b03166001600160a01b031663452a93206040518163ffffffff1660e01b815260040160206040518083038186803b158015611eb657600080fd5b505afa158015611eca573d6000803e3d6000fd5b505050506040513d601f19601f82011682018060405250810190611eee9190614bbc565b6001600160a01b0316336001600160a01b0316145b80611fa45750600260009054906101000a90046001600160a01b03166001600160a01b03166388a8d6026040518163ffffffff1660e01b815260040160206040518083038186803b158015611f5757600080fd5b505afa158015611f6b573d6000803e3d6000fd5b505050506040513d601f19601f82011682018060405250810190611f8f9190614bbc565b6001600160a01b0316336001600160a01b0316145b611fc05760405162461bcd60e51b81526004016108d6906155cc565b600e805461ffff191661ffff92909216919091179055565b600f5490565b6003546001600160a01b031633146120085760405162461bcd60e51b81526004016108d69061540d565b6001600160a01b03811661201b57600080fd5b6002546004805460405163095ea7b360e01b81526001600160a01b039384169363095ea7b393612052939091169160009101615372565b602060405180830381600087803b15801561206c57600080fd5b505af1158015612080573d6000803e3d6000fd5b505050506040513d601f19601f820116820180604052508101906120a49190614e6c565b50600480546001600160a01b0319166001600160a01b038381169190911780835560025460405163095ea7b360e01b81529083169363095ea7b3936120ef9316916000199101615372565b602060405180830381600087803b15801561210957600080fd5b505af115801561211d573d6000803e3d6000fd5b505050506040513d601f19601f820116820180604052508101906121419190614e6c565b507fafbb66abf8f3b719799940473a4052a3717cdd8e40fb6c8a3faadab316b1a06981604051610c5391906151f4565b60008061217d836118be565b90506121876148d9565b6002546040516339ebf82360e01b81526001600160a01b03909116906339ebf823906121b79030906004016151f4565b6101206040518083038186803b1580156121d057600080fd5b505afa1580156121e4573d6000803e3d6000fd5b505050506040513d601f19601f820116820180604052508101906122089190614fc3565b90508060200151600014156122225760009250505061176e565b60075460a08201516122359042906135d9565b10156122465760009250505061176e565b60085460a08201516122599042906135d9565b106122695760019250505061176e565b6002546040805163bf3759b560e01b815290516000926001600160a01b03169163bf3759b5916004808301926020929190829003018186803b1580156122ae57600080fd5b505afa1580156122c2573d6000803e3d6000fd5b505050506040513d601f19601f820116820180604052508101906122e69190614e88565b9050600a548111156122fe576001935050505061176e565b60006123086123fb565b90508260c00151612324600a5483613a3390919063ffffffff16565b101561233757600194505050505061176e565b60008360c001518211156123585760c08401516123559083906135d9565b90505b6002546040805163112c1f9b60e01b815290516000926001600160a01b03169163112c1f9b916004808301926020929190829003018186803b15801561239d57600080fd5b505afa1580156123b1573d6000803e3d6000fd5b505050506040513d601f19601f820116820180604052508101906123d59190614e88565b90506123e18183613a33565b6009546123ee90886129b5565b1098975050505050505050565b6000610e48612408613a58565b612410613d1d565b90613a33565b6003546001600160a01b03163314806124475750612432612a4f565b6001600160a01b0316336001600160a01b0316145b6124635760405162461bcd60e51b81526004016108d6906155cc565b60088190556040517f5430e11864ad7aa9775b07d12657fe52df9aa2ba734355bd8ef8747be2c800c590610c53908390615756565b6003546001600160a01b03163314806124c957506124b4612a4f565b6001600160a01b0316336001600160a01b0316145b8061256a5750600260009054906101000a90046001600160a01b03166001600160a01b031663452a93206040518163ffffffff1660e01b815260040160206040518083038186803b15801561251d57600080fd5b505afa158015612531573d6000803e3d6000fd5b505050506040513d601f19601f820116820180604052508101906125559190614bbc565b6001600160a01b0316336001600160a01b0316145b8061260b5750600260009054906101000a90046001600160a01b03166001600160a01b03166388a8d6026040518163ffffffff1660e01b815260040160206040518083038186803b1580156125be57600080fd5b505afa1580156125d2573d6000803e3d6000fd5b505050506040513d601f19601f820116820180604052508101906125f69190614bbc565b6001600160a01b0316336001600160a01b0316145b6126275760405162461bcd60e51b81526004016108d6906155cc565b600e8054911515620100000262ff000019909216919091179055565b7ff23a6e612e1ff4830e658fe43f4e3cb4a5f8170bd5d9e69fb5d7a7fa9e4fdf979695505050505050565b600b5461010090046001600160a01b031681565b6002546001600160a01b031681565b6003546001600160a01b03163314806126c257506126ad612a4f565b6001600160a01b0316336001600160a01b0316145b806127635750600260009054906101000a90046001600160a01b03166001600160a01b031663452a93206040518163ffffffff1660e01b815260040160206040518083038186803b15801561271657600080fd5b505afa15801561272a573d6000803e3d6000fd5b505050506040513d601f19601f8201168201806040525081019061274e9190614bbc565b6001600160a01b0316336001600160a01b0316145b806128045750600260009054906101000a90046001600160a01b03166001600160a01b03166388a8d6026040518163ffffffff1660e01b815260040160206040518083038186803b1580156127b757600080fd5b505afa1580156127cb573d6000803e3d6000fd5b505050506040513d601f19601f820116820180604052508101906127ef9190614bbc565b6001600160a01b0316336001600160a01b0316145b6128205760405162461bcd60e51b81526004016108d6906155cc565b600b805460ff191660011790556002546040805163507257cd60e11b815290516001600160a01b039092169163a0e4af9a9160048082019260009290919082900301818387803b15801561287357600080fd5b505af1158015612887573d6000803e3d6000fd5b50506040517f97e963041e952738788b9d4871d854d282065b8f90a464928d6528f2e9a4fd0b925060009150a1565b80158061293e5750604051636eb1769f60e11b81526001600160a01b0384169063dd62ed3e906128ec903090869060040161531a565b60206040518083038186803b15801561290457600080fd5b505afa158015612918573d6000803e3d6000fd5b505050506040513d601f19601f8201168201806040525081019061293c9190614e88565b155b61295a5760405162461bcd60e51b81526004016108d69061565f565b6129b08363095ea7b360e01b8484604051602401612979929190615372565b60408051601f198184030181529190526020810180516001600160e01b03166001600160e01b031990931692909217909152613d9e565b505050565b6000826129c4575060006118d8565b828202828482816129d157fe5b04146129ef5760405162461bcd60e51b81526004016108d690615513565b9392505050565b60006129ef83836040518060400160405280601a81526020017f536166654d6174683a206469766973696f6e206279207a65726f000000000000815250613e2d565b6060612a478484600085613e64565b949350505050565b60025460408051635aa6e67560e01b815290516000926001600160a01b031691635aa6e675916004808301926020929190829003018186803b158015612a9457600080fd5b505afa158015612aa8573d6000803e3d6000fd5b505050506040513d601f19601f82011682018060405250810190610e489190614bbc565b606090565b6129b08363a9059cbb60e01b8484604051602401612979929190615372565b6006546001600160a01b031615612b195760405162461bcd60e51b81526004016108d6906154dc565b600280546001600160a01b0319166001600160a01b03868116919091179182905560408051637e062a3560e11b81529051929091169163fc0c546a91600480820192602092909190829003018186803b158015612b7557600080fd5b505afa158015612b89573d6000803e3d6000fd5b505050506040513d601f19601f82011682018060405250810190612bad9190614bbc565b600680546001600160a01b0319166001600160a01b039283161790819055612bd99116856000196128b6565b600380546001600160a01b038086166001600160a01b03199283161790925560048054858416908316178082556005805486861694169390931790925560006007819055620151806008556064600955600a5560025460405163095ea7b360e01b81529084169363095ea7b393612c57939116916000199101615372565b602060405180830381600087803b158015612c7157600080fd5b505af1158015612c85573d6000803e3d6000fd5b505050506040513d601f19601f82011682018060405250810190612ca99190614e6c565b5050505050565b600b805461ffff60a81b1916600160a81b61ffff84160217610100600160a81b0319166101006001600160a01b03851602179055612cec614925565b612cf4614925565b60405163275d68c760e11b81526001600160a01b03851690634ebad18e90612d209086906004016156b5565b6101406040518083038186803b158015612d3957600080fd5b505afa158015612d4d573d6000803e3d6000fd5b505050506040513d601f19601f82011682018060405250810190612d719190615041565b91509150612d9c8260400151612d9661271084604001516129b590919063ffffffff16565b906129f6565b600c55600e805462ff00001916905561ffff831660011415612dd25780516001600160a01b031615612dcd57600080fd5b612dee565b80516006546001600160a01b03908116911614612dee57600080fd5b50505050565b600080612dff613f28565b6000612e09613d1d565b9050838110612e1f5783600092509250506132f4565b6000612e296141f3565b915060009050612e3986846135d9565b6002546040516339ebf82360e01b81529192506000916001600160a01b03909116906339ebf82390612e6f9030906004016151f4565b6101206040518083038186803b158015612e8857600080fd5b505afa158015612e9c573d6000803e3d6000fd5b505050506040513d601f19601f82011682018060405250810190612ec09190614fc3565b60c0015190506000612edf612ed583876135d9565b612d9686866129b5565b9050612eeb83826135d9565b600b54604051635a9b7fdb60e11b81529194506060916101009091046001600160a01b03169063b536ffb690612f259030906004016151f4565b60006040518083038186803b158015612f3d57600080fd5b505afa158015612f51573d6000803e3d6000fd5b505050506040513d6000823e601f3d908101601f19168201604052612f799190810190614d77565b90506060815167ffffffffffffffff81118015612f9557600080fd5b50604051908082528060200260200182016040528015612fbf578160200160208202803683370190505b509050846000805b8451811015613219578215613211576000612ff8868381518110612fe757fe5b6020026020010151602001516142b9565b600b54875191925060009161010082046001600160a01b03169163094614df91600160a81b90910461ffff16908a908790811061303157fe5b60200260200101516060015160000385426040518563ffffffff1660e01b815260040161306194939291906156e1565b604080518083038186803b15801561307857600080fd5b505afa15801561308c573d6000803e3d6000fd5b505050506040513d601f19601f820116820180604052508101906130b09190614ea0565b91505060006130d0612710612d96600c54856129b590919063ffffffff16565b9050858111156131c457600b54600c5460009161010081046001600160a01b031691638355e89591600160a81b900461ffff169061311490612d968c6127106129b5565b60010187426040518563ffffffff1660e01b815260040161313894939291906156e1565b60206040518083038186803b15801561315057600080fd5b505afa158015613164573d6000803e3d6000fd5b505050506040513d601f19601f820116820180604052508101906131889190614e88565b6000039050613199600185836143ab565b8886815181106131a557fe5b6020908102919091010152506000955050600190930192506132199050565b6131e76001848a87815181106131d657fe5b6020026020010151606001516143ab565b8785815181106131f357fe5b60209081029190910101526000600f55909403935050600191909101905b600101612fc7565b5060608167ffffffffffffffff8111801561323357600080fd5b5060405190808252806020026020018201604052801561325d578160200160208202803683370190505b50905060005b8281101561329e5784818151811061327757fe5b602002602001015182828151811061328b57fe5b6020908102919091010152600101613263565b506132b06000806000600180866143e2565b60006132ba613d1d565b9050808e11156132d8579b508b6132d18e826135d9565b9b506132dc565b8d9c505b5050600e805462ff0000191690555050505050505050505b915091565b6000613303613d1d565b90508181116133125750611e2e565b61331c81836135d9565b600e5490915061ffff168110156133335750611e2e565b600b54600f54600160a81b90910461ffff16906000806133516145dc565b9150915082811180156133645750600083115b1561337757613372836146d9565b850194505b8361ffff16600114156133f257604051632e1a7d4d60e01b815273c02aaa39b223fe8d0a0e5c4f27ead9083c756cc290632e1a7d4d906133bb908890600401615756565b600060405180830381600087803b1580156133d557600080fd5b505af11580156133e9573d6000803e3d6000fd5b50505050613483565b600654600b5460405163095ea7b360e01b81526001600160a01b039283169263095ea7b39261342f92610100909104909116908990600401615372565b602060405180830381600087803b15801561344957600080fd5b505af115801561345d573d6000803e3d6000fd5b505050506040513d601f19601f820116820180604052508101906134819190614e6c565b505b60006134b2612710612d9661270b6134ac600c54612d966127108d6129b590919063ffffffff16565b906129b5565b600b54604051638355e89560e01b81529192506000916101009091046001600160a01b031690638355e895906134f490899086860390899042906004016156e1565b60206040518083038186803b15801561350c57600080fd5b505afa158015613520573d6000803e3d6000fd5b505050506040513d601f19601f820116820180604052508101906135449190614e88565b90506000811361355a5750505050505050611e2e565b60408051600180825281830190925260609160208083019080368337019050509050613588600086846143ab565b8160008151811061359557fe5b6020026020010181815250506135b26002896000600180866143e2565b505050600f555050505050565b6000806135d26135cd6123fb565b612df4565b5091505090565b60006129ef83836040518060400160405280601e81526020017f536166654d6174683a207375627472616374696f6e206f766572666c6f7700008152506147f6565b6000806000613628613f28565b6136306141f3565b509250600061363d613d1d565b90508084111561364c57600093505b60006136588686613a33565b9050818111156136e257600e54600090819062010000900460ff16156136875761368183612df4565b90925090505b8095508282106136b7578794508661369f84876135d9565b10156136b2576136af83866135d9565b96505b6136db565b878210156136cb57600096508194506136db565b8794506136d882866135d9565b96505b5050613703565b859250846136f082856135d9565b10156137035761370081846135d9565b94505b50509193909250565b600082158061371c575060001983145b8061374357506001600160a01b03821673c02aaa39b223fe8d0a0e5c4f27ead9083c756cc2145b1561374f5750816118d8565b613757614925565b61375f614925565b613767614954565b61376f614983565b600b546040516388a73eb760e01b815261010082046001600160a01b0316916388a73eb7916137ac91600160a81b900461ffff16906004016156b5565b6102406040518083038186803b1580156137c557600080fd5b505afa1580156137d9573d6000803e3d6000fd5b505050506040513d601f19601f820116820180604052508101906137fd9190615076565b93509350935093506138248260200151612d9685604001518a6129b590919063ffffffff16565b979650505050505050565b613837613f28565b600b54604051635a9b7fdb60e11b815260609161010090046001600160a01b03169063b536ffb69061386d9030906004016151f4565b60006040518083038186803b15801561388557600080fd5b505afa158015613899573d6000803e3d6000fd5b505050506040513d6000823e601f3d908101601f191682016040526138c19190810190614d77565b90506000805b8251811015612dee57600b54835161010082046001600160a01b03169163735a1dc891600160a81b90910461ffff169086908590811061390357fe5b60200260200101516020015186858151811061391b57fe5b6020026020010151604001516040518463ffffffff1660e01b815260040161394593929190615705565b60206040518083038186803b15801561395d57600080fd5b505afa158015613971573d6000803e3d6000fd5b505050506040513d601f19601f820116820180604052508101906139959190614e88565b9150600b60019054906101000a90046001600160a01b03166001600160a01b031663f242432a3086858786815181106139ca57fe5b6020026020010151606001516040518563ffffffff1660e01b81526004016139f59493929190615208565b600060405180830381600087803b158015613a0f57600080fd5b505af1158015613a23573d6000803e3d6000fd5b5050600190920191506138c79050565b6000828201838110156129ef5760405162461bcd60e51b81526004016108d690615451565b600b54604051635a9b7fdb60e11b81526000916060916101009091046001600160a01b03169063b536ffb690613a929030906004016151f4565b60006040518083038186803b158015613aaa57600080fd5b505afa158015613abe573d6000803e3d6000fd5b505050506040513d6000823e601f3d908101601f19168201604052613ae69190810190614d77565b600b5460405163497cf7e360e01b815291925060609161010082046001600160a01b03169163497cf7e391613b2991600160a81b900461ffff16906004016156b5565b60006040518083038186803b158015613b4157600080fd5b505afa158015613b55573d6000803e3d6000fd5b505050506040513d6000823e601f3d908101601f19168201604052613b7d9190810190614cd3565b905060005b8251811015613d175760005b8251811015613d0e5742848381518110613ba457fe5b6020026020010151602001511015613bf157613be8612710612d96600c54878681518110613bce57fe5b6020026020010151606001516129b590919063ffffffff16565b85019450613d0e565b828181518110613bfd57fe5b602002602001015160200151848381518110613c1557fe5b6020026020010151602001511415613d0657600b54845160009161010081046001600160a01b03169163094614df91600160a81b900461ffff1690889087908110613c5c57fe5b60200260200101516060015160000385600101426040518563ffffffff1660e01b8152600401613c8f94939291906156e1565b604080518083038186803b158015613ca657600080fd5b505afa158015613cba573d6000803e3d6000fd5b505050506040513d601f19601f82011682018060405250810190613cde9190614ea0565b915050613cfc612710612d96600c54846129b590919063ffffffff16565b8601955050613d0e565b600101613b8e565b50600101613b82565b50505090565b6006546040516370a0823160e01b81526000916001600160a01b0316906370a0823190613d4e9030906004016151f4565b60206040518083038186803b158015613d6657600080fd5b505afa158015613d7a573d6000803e3d6000fd5b505050506040513d601f19601f82011682018060405250810190610e489190614e88565b6060613df3826040518060400160405280602081526020017f5361666545524332303a206c6f772d6c6576656c2063616c6c206661696c6564815250856001600160a01b0316612a389092919063ffffffff16565b8051909150156129b05780806020019051810190613e119190614e6c565b6129b05760405162461bcd60e51b81526004016108d6906155f1565b60008183613e4e5760405162461bcd60e51b81526004016108d691906153da565b506000838581613e5a57fe5b0495945050505050565b6060613e6f85614822565b613e8b5760405162461bcd60e51b81526004016108d690615595565b60006060866001600160a01b03168587604051613ea891906151d5565b60006040518083038185875af1925050503d8060008114613ee5576040519150601f19603f3d011682016040523d82523d6000602084013e613eea565b606091505b50915091508115613efe579150612a479050565b805115613f0e5780518082602001fd5b8360405162461bcd60e51b81526004016108d691906153da565b613f306149ad565b600b5460405163b0de221760e01b81526101009091046001600160a01b03169063b0de221790613f649030906004016151f4565b60a06040518083038186803b158015613f7c57600080fd5b505afa158015613f90573d6000803e3d6000fd5b505050506040513d601f19601f82011682018060405250810190613fb49190614f30565b905042816000015164ffffffffff161015611e2e57600b5460405163f667f89760e01b81526101009091046001600160a01b03169063f667f89790613ffd9030906004016151f4565b600060405180830381600087803b15801561401757600080fd5b505af115801561402b573d6000803e3d6000fd5b5050600b5460405163fc1b134560e01b815260009350839250829161010081046001600160a01b03169163fc1b13459161407691600160a81b90910461ffff169030906004016156c4565b60606040518083038186803b15801561408e57600080fd5b505afa1580156140a2573d6000803e3d6000fd5b505050506040513d601f19601f820116820180604052508101906140c69190614ec3565b9250925092506000831315612dee57600b54604051625e665d60e31b815261010082046001600160a01b0316916302f332e89161411691600160a81b900461ffff1690879060019060040161572b565b602060405180830381600087803b15801561413057600080fd5b505af1158015614144573d6000803e3d6000fd5b505050506040513d601f19601f820116820180604052508101906141689190614e88565b50600b54600160a81b900461ffff16600114156141e85773c02aaa39b223fe8d0a0e5c4f27ead9083c756cc26001600160a01b031663d0e30db0476040518263ffffffff1660e01b81526004016000604051808303818588803b1580156141ce57600080fd5b505af11580156141e2573d6000803e3d6000fd5b50505050505b6000600f5550505050565b60008060006142006123fb565b6002546040516339ebf82360e01b81529192506000916001600160a01b03909116906339ebf823906142369030906004016151f4565b6101206040518083038186803b15801561424f57600080fd5b505afa158015614263573d6000803e3d6000fd5b505050506040513d601f19601f820116820180604052508101906142879190614fc3565b60c001519050818111156142a65761429f81836135d9565b92506142b3565b6142b082826135d9565b93505b50509091565b600b5460405163497cf7e360e01b815260009160609161010082046001600160a01b03169163497cf7e3916142fc91600160a81b900461ffff16906004016156b5565b60006040518083038186803b15801561431457600080fd5b505afa158015614328573d6000803e3d6000fd5b505050506040513d6000823e601f3d908101601f191682016040526143509190810190614cd3565b90506000805b82518110156143935782818151811061436b57fe5b60200260200101516020015185141561438b57600101925061176e915050565b600101614356565b50806143a45760009250505061176e565b5050919050565b60f89290921b6001600160f81b03191660f09190911b60ff60f01b161760989190911b6affffffffffffffffffffff60981b161790565b604080516001808252818301909252606091816020015b6144016149db565b8152602001906001900390816143f957905050600b546040805160e08101909152919250600160a81b900461ffff16908089600681111561443e57fe5b81526020018261ffff16815260200188815260200187815260200186151581526020018515158152602001848152508260008151811061447a57fe5b60200260200101819052508061ffff166001141561456957600b54604051630276b64b60e01b81526101009091046001600160a01b031690630276b64b9089906144ca9030908790600401615240565b6000604051808303818588803b1580156144e357600080fd5b505af11580156144f7573d6000803e3d6000fd5b505050505073c02aaa39b223fe8d0a0e5c4f27ead9083c756cc26001600160a01b031663d0e30db0476040518263ffffffff1660e01b81526004016000604051808303818588803b15801561454b57600080fd5b505af115801561455f573d6000803e3d6000fd5b50505050506145d2565b600b54604051630276b64b60e01b81526101009091046001600160a01b031690630276b64b9061459f9030908690600401615240565b600060405180830381600087803b1580156145b957600080fd5b505af11580156145cd573d6000803e3d6000fd5b505050505b5050505050505050565b600b5460405163497cf7e360e01b8152600091829160609161010081046001600160a01b03169163497cf7e39161462291600160a81b90910461ffff16906004016156b5565b60006040518083038186803b15801561463a57600080fd5b505afa15801561464e573d6000803e3d6000fd5b505050506040513d6000823e601f3d908101601f191682016040526146769190810190614cd3565b905060005b81518110156142b357600d544283838151811061469457fe5b60200260200101516020015103106146cd57806001018282815181106146b657fe5b6020026020010151602001519350935050506146d5565b60010161467b565b9091565b6000806146e4613d1d565b600b54604051635a9b7fdb60e11b81529192506060916101009091046001600160a01b03169063b536ffb69061471e9030906004016151f4565b60006040518083038186803b15801561473657600080fd5b505afa15801561474a573d6000803e3d6000fd5b505050506040513d6000823e601f3d908101601f191682016040526147729190810190614d77565b9050600061477f856142b9565b60408051600180825281830190925291925060609190602080830190803683370190505090506147b8600183856000815181106131d657fe5b816000815181106147c557fe5b6020026020010181815250506147e26000806000600180866143e2565b836147eb613d1d565b039695505050505050565b6000818484111561481a5760405162461bcd60e51b81526004016108d691906153da565b505050900390565b6000813f7fc5d2460186f7233c927e7db2dcc703c0e500b653ca82273b7bfad8045d85a470818114801590612a47575050151592915050565b828054600181600116156101000203166002900490600052602060002090601f016020900481019282601f1061489c5782800160ff198235161785556148c9565b828001600101855582156148c9579182015b828111156148c95782358255916020019190600101906148ae565b506148d5929150614a21565b5090565b6040518061012001604052806000815260200160008152602001600081526020016000815260200160008152602001600081526020016000815260200160008152602001600081525090565b6040805160a0810182526000808252602082018190529181018290529060608201908152602001600081525090565b6040518060a0016040528060008152602001600081526020016000815260200160008152602001600081525090565b604051806060016040528060006001600160a01b0316815260200160008152602001600081525090565b6040805160a08101825260008082526020820181905291810182905260608101829052608081019190915290565b6040805160e081019091528060008152602001600061ffff1681526020016000815260200160008152602001600015158152602001600015158152602001606081525090565b5b808211156148d55760008155600101614a22565b80516dffffffffffffffffffffffffffff19811681146118d857600080fd5b60008083601f840112614a66578182fd5b50813567ffffffffffffffff811115614a7d578182fd5b602083019150836020828501011115614a9557600080fd5b9250929050565b80516118d881615826565b8051600481106118d857600080fd5b6000610100808385031215614ac9578182fd5b614ad2816157b3565b915050815181526020820151602082015260408201516040820152606082015160608201526080820151608082015260a082015160a082015260c082015160c082015260e082015160e082015292915050565b600060a08284031215614b36578081fd5b614b4060a06157b3565b90508151614b4d81615826565b81526020820151614b5d8161583b565b602082015260408281015190820152606082015160058110614b7e57600080fd5b806060830152506080820151608082015292915050565b80516118d881615849565b600060208284031215614bb1578081fd5b81356129ef81615826565b600060208284031215614bcd578081fd5b81516129ef81615826565b60008060008060008060c08789031215614bf0578182fd5b8635614bfb81615826565b95506020870135614c0b81615826565b94506040870135614c1b81615826565b93506060870135614c2b81615826565b92506080870135614c3b81615826565b915060a0870135614c4b81615849565b809150509295509295509295565b60008060008060008060a08789031215614c71578384fd5b8635614c7c81615826565b95506020870135614c8c81615826565b94506040870135935060608701359250608087013567ffffffffffffffff811115614cb5578283fd5b614cc189828a01614a55565b979a9699509497509295939492505050565b60006020808385031215614ce5578182fd5b825167ffffffffffffffff811115614cfb578283fd5b8301601f81018513614d0b578283fd5b8051614d1e614d19826157da565b6157b3565b81815283810190838501610100808502860187018a1015614d3d578788fd5b8795505b84861015614d6957614d538a83614ab6565b8452600195909501949286019290810190614d41565b509098975050505050505050565b60006020808385031215614d89578182fd5b825167ffffffffffffffff811115614d9f578283fd5b8301601f81018513614daf578283fd5b8051614dbd614d19826157da565b8181528381019083850160c0808502860187018a1015614ddb578788fd5b8795505b84861015614d695780828b031215614df5578788fd5b614dfe816157b3565b82518152878301518882015260408084015190820152606080840151908201526080808401519082015260a0614e368c828601614aa7565b908201528452600195909501949286019290810190614ddf565b600060208284031215614e61578081fd5b81356129ef8161583b565b600060208284031215614e7d578081fd5b81516129ef8161583b565b600060208284031215614e99578081fd5b5051919050565b60008060408385031215614eb2578182fd5b505080516020909101519092909150565b600080600060608486031215614ed7578081fd5b8351925060208401519150604084015190509250925092565b60008060208385031215614f02578182fd5b823567ffffffffffffffff811115614f18578283fd5b614f2485828601614a55565b90969095509350505050565b600060a08284031215614f41578081fd5b614f4b60a06157b3565b825164ffffffffff81168114614f5f578283fd5b815260208301516001600160f81b031981168114614f7b578283fd5b6020820152604083015160ff81168114614f93578283fd5b6040820152614fa58460608501614b95565b6060820152614fb78460808501614a36565b60808201529392505050565b6000610120808385031215614fd6578182fd5b614fdf816157b3565b9050825181526020830151602082015260408301516040820152606083015160608201526080830151608082015260a083015160a082015260c083015160c082015260e083015160e08201526101008084015181830152508091505092915050565b6000806101408385031215615054578182fd5b61505e8484614b25565b915061506d8460a08501614b25565b90509250929050565b60008060008084860361024081121561508d578283fd5b6150978787614b25565b94506150a68760a08801614b25565b935060a061013f19820112156150ba578283fd5b6150c460a06157b3565b6101408701518152610160870151602082015261018087015160408201526101a087015160608201526101c087015160808201528093505060606101df198201121561510e578182fd5b5061511960606157b3565b615127876101e08801614a9c565b81526102008601516020820152610220909501516040860152509194909350909190565b60006020828403121561515c578081fd5b81356129ef81615849565b600060208284031215615178578081fd5b5035919050565b6000815180845260208085019450808401835b838110156151ae57815187529582019590820190600101615192565b509495945050505050565b15159052565b600781106151c957fe5b9052565b61ffff169052565b600082516151e78184602087016157fa565b9190910192915050565b90565b6001600160a01b0391909116815260200190565b6001600160a01b0394851681529290931660208301526040820152606081019190915260a06080820181905260009082015260c00190565b6001600160a01b0383168152604060208083018290528351838301819052600092916060918286019080830287018401888401875b8381101561530a57605f198a8403018552815160e06152958583516151bf565b878201516152a5898701826151cd565b50898201518a86015288820151898601526080808301516152c8828801826151b9565b505060a0808301516152dc828801826151b9565b505060c0918201519185018190526152f68582018361517f565b968801969450505090850190600101615275565b50909a9950505050505050505050565b6001600160a01b0392831681529116602082015260400190565b6001600160a01b039687168152948616602086015292851660408501529084166060840152909216608082015261ffff90911660a082015260c00190565b6001600160a01b03929092168252602082015260400190565b901515815260200190565b6001600160e01b031991909116815260200190565b60006020825282602083015282846040840137818301604090810191909152601f909201601f19160101919050565b60006020825282518060208401526153f98160408501602087016157fa565b601f01601f19169190910160400192915050565b6020808252600b908201526a085cdd1c985d1959da5cdd60aa1b604082015260600190565b602080825260059082015264085dd85b9d60da1b604082015260600190565b6020808252601b908201527f536166654d6174683a206164646974696f6e206f766572666c6f770000000000604082015260600190565b6020808252601490820152732330b4b632b2103a379039b2b7321022ba3432b960611b604082015260600190565b6020808252600c908201526b216865616c7468636865636b60a01b604082015260600190565b6020808252601c908201527f537472617465677920616c726561647920696e697469616c697a656400000000604082015260600190565b60208082526021908201527f536166654d6174683a206d756c7469706c69636174696f6e206f766572666c6f6040820152607760f81b606082015260800190565b602080825260069082015265085d985d5b1d60d21b604082015260600190565b6020808252600790820152662173686172657360c81b604082015260600190565b6020808252601d908201527f416464726573733a2063616c6c20746f206e6f6e2d636f6e7472616374000000604082015260600190565b6020808252600b908201526a08585d5d1a1bdc9a5e995960aa1b604082015260600190565b6020808252602a908201527f5361666545524332303a204552433230206f7065726174696f6e20646964206e6040820152691bdd081cdd58d8d9595960b21b606082015260800190565b6020808252600a9082015269085c1c9bdd1958dd195960b21b604082015260600190565b60208082526036908201527f5361666545524332303a20617070726f76652066726f6d206e6f6e2d7a65726f60408201527520746f206e6f6e2d7a65726f20616c6c6f77616e636560501b606082015260800190565b61ffff91909116815260200190565b61ffff9290921682526001600160a01b0316602082015260400190565b61ffff949094168452600a9290920b60208401526040830152606082015260800190565b61ffff93909316835264ffffffffff91909116602083015260ff16604082015260600190565b61ffff9390931683526affffffffffffffffffffff9190911660208301521515604082015260600190565b90815260200190565b9283526020830191909152604082015260600190565b93845260208401929092526040830152606082015260800190565b948552602085019390935260408401919091526060830152608082015260a00190565b60405181810167ffffffffffffffff811182821017156157d257600080fd5b604052919050565b600067ffffffffffffffff8211156157f0578081fd5b5060209081020190565b60005b838110156158155781810151838201526020016157fd565b83811115612dee5750506000910152565b6001600160a01b0381168114611e2e57600080fd5b8015158114611e2e57600080fd5b61ffff81168114611e2e57600080fdfea2646970667358221220d3eb435d5d0483cebe26d10d03e85cd8b19334caf07fea8ded2a61868103a49464736f6c634300060c0033",
  "bytecodeSha1": "4aeac6627c608154da0660f2a895c8802aa622c9",
  "compiler": {
    "evm_version": "istanbul",
    "optimizer": {
      "enabled": true,
      "runs": 200
    },
    "version": "0.6.12+commit.27d51765"
  },
  "contractName": "Strategy",
  "language": "Solidity",
  "natspec": {
    "kind": "dev",
    "methods": {
      "apiVersion()": {
        "details": "The Strategy's version must match the Vault's `API_VERSION`.",
        "notice": "Used to track which version of `StrategyAPI` this Strategy  implements.",
        "returns": {
          "_0": "A string which holds the current API version of this contract."
        }
      },
      "delegatedAssets()": {
        "details": "You can override this field to set it to a non-zero value if some of the assets of this  Strategy is somehow delegated inside another part of of Yearn's ecosystem e.g. another Vault.  Note that this value must be strictly less than or equal to the amount provided by  `estimatedTotalAssets()` below, as the TVL calc will be total assets minus delegated assets.  Also note that this value is used to determine the total assets under management by this  strategy, for the purposes of computing the management fee in `Vault`",
        "notice": "The amount (priced in want) of the total assets managed by this strategy should not count  towards Yearn's TVL calculations.",
        "returns": {
          "_0": "The amount of assets this strategy manages that should not be included in Yearn's Total Value  Locked (TVL) calculation across it's ecosystem."
        }
      },
      "estimatedTotalAssets()": {
        "details": "Care must be taken in using this function, since it relies on external  systems, which could be manipulated by the attacker to give an inflated  (or reduced) value produced by this function, based on current on-chain  conditions (e.g. this function is possible to influence through  flashloan attacks, oracle manipulations, or other DeFi attack  mechanisms).  It is up to governance to use this function to correctly order this  Strategy relative to its peers in the withdrawal queue to minimize  losses for the Vault based on sudden withdrawals. This value should be  higher than the total debt of the Strategy and higher than its expected  value to be \"safe\".",
        "notice": "Provide an accurate estimate for the total amount of assets  (principle + return) that this Strategy is currently managing,  denominated in terms of `want` tokens.  This total should be \"realizable\" e.g. the total value that could  *actually* be obtained from this Strategy if it were to divest its  entire position based on current on-chain conditions.",
        "returns": {
          "_0": "The estimated total assets in this Strategy."
        }
      },
      "ethToWant(uint256)": {
        "details": "Care must be taken when working with decimals to assure that the conversion  is compatible. As an example:      given 1e17 wei (0.1 ETH) as input, and want is USDC (6 decimals),      with USDC/ETH = 1800, this should give back 1800000000 (180 USDC)",
        "notice": "Provide an accurate conversion from `_amtInWei` (denominated in wei)  to `want` (using the native decimal characteristics of `want`).",
        "params": {
          "_amtInWei": "The amount (in wei/1e-18 ETH) to convert to `want`"
        },
        "returns": {
          "_0": "The amount in `want` of `_amtInEth` converted to `want`*"
        }
      },
      "harvest()": {
        "details": "When `harvest()` is called, the Strategy reports to the Vault (via  `vault.report()`), so in some cases `harvest()` must be called in order  to take in profits, to borrow newly available funds from the Vault, or  otherwise adjust its position. In other cases `harvest()` must be  called to report to the Vault on the Strategy's position, especially if  any losses have occurred.",
        "notice": "Harvests the Strategy, recognizing any profits or losses and adjusting  the Strategy's position.  In the rare case the Strategy is in emergency shutdown, this will exit  the Strategy's position.  This may only be called by governance, the strategist, or the keeper."
      },
      "harvestTrigger(uint256)": {
        "details": "`callCostInWei` must be priced in terms of `wei` (1e-18 ETH).  This call and `tendTrigger` should never return `true` at the  same time.  See `min/maxReportDelay`, `profitFactor`, `debtThreshold` to adjust the  strategist-controlled parameters that will influence whether this call  returns `true` or not. These parameters will be used in conjunction  with the parameters reported to the Vault (see `params`) to determine  if calling `harvest()` is merited.  It is expected that an external system will check `harvestTrigger()`.  This could be a script run off a desktop or cloud bot (e.g.  https://github.com/iearn-finance/yearn-vaults/blob/main/scripts/keep.py),  or via an integration with the Keep3r network (e.g.  https://github.com/Macarse/GenericKeep3rV2/blob/master/contracts/keep3r/GenericKeep3rV2.sol).",
        "notice": "Provide a signal to the keeper that `harvest()` should be called. The  keeper will provide the estimated gas cost that they would pay to call  `harvest()`, and this function should use that estimate to make a  determination if calling it is \"worth it\" for the keeper. This is not  the only consideration into issuing this trigger, for example if the  position would be negatively affected if `harvest()` is not called  shortly, then this can return `true` even if the keeper might be \"at a  loss\" (keepers are always reimbursed by Yearn).",
        "params": {
          "callCostInWei": "The keeper's estimated gas cost to call `harvest()` (in wei)."
        },
        "returns": {
          "_0": "`true` if `harvest()` should be called, `false` otherwise."
        }
      },
      "migrate(address)": {
        "details": "The new Strategy's Vault must be the same as this Strategy's Vault.  The migration process should be carefully performed to make sure all the assets are migrated to the new address, which should have never interacted with the vault before.",
        "notice": "Transfers all `want` from this Strategy to `_newStrategy`.  This may only be called by the Vault.",
        "params": {
          "_newStrategy": "The Strategy to migrate to."
        }
      },
      "name()": {
        "details": "You can use this field to manage the \"version\" of this Strategy, e.g.  `StrategySomethingOrOtherV1`. However, \"API Version\" is managed by  `apiVersion()` function above.",
        "notice": "This Strategy's name.",
        "returns": {
          "_0": "This Strategy's name."
        }
      },
      "setDebtThreshold(uint256)": {
        "notice": "Sets how far the Strategy can go into loss without a harvest and report  being required.  By default this is 0, meaning any losses would cause a harvest which  will subsequently report the loss to the Vault for tracking. (See  `harvestTrigger()` for more details.)  This may only be called by governance or the strategist.",
        "params": {
          "_debtThreshold": "How big of a loss this Strategy may carry without being required to report to the Vault."
        }
      },
      "setEmergencyExit()": {
        "details": "See `vault.setEmergencyShutdown()` and `harvest()` for further details.",
        "notice": "Activates emergency exit. Once activated, the Strategy will exit its  position upon the next harvest, depositing all funds into the Vault as  quickly as is reasonable given on-chain conditions.  This may only be called by governance or the strategist."
      },
      "setKeeper(address)": {
        "notice": "Used to change `keeper`.  `keeper` is the only address that may call `tend()` or `harvest()`,  other than `governance()` or `strategist`. However, unlike  `governance()` or `strategist`, `keeper` may *only* call `tend()`  and `harvest()`, and no other authorized functions, following the  principle of least privilege.  This may only be called by governance or the strategist.",
        "params": {
          "_keeper": "The new address to assign as `keeper`."
        }
      },
      "setMaxReportDelay(uint256)": {
        "notice": "Used to change `maxReportDelay`. `maxReportDelay` is the maximum number  of blocks that should pass for `harvest()` to be called.  For external keepers (such as the Keep3r network), this is the maximum  time between jobs to wait. (see `harvestTrigger()`  for more details.)  This may only be called by governance or the strategist.",
        "params": {
          "_delay": "The maximum number of seconds to wait between harvests."
        }
      },
      "setMetadataURI(string)": {
        "notice": "Used to change `metadataURI`. `metadataURI` is used to store the URI of the file describing the strategy.  This may only be called by governance or the strategist.",
        "params": {
          "_metadataURI": "The URI that describe the strategy."
        }
      },
      "setMinReportDelay(uint256)": {
        "notice": "Used to change `minReportDelay`. `minReportDelay` is the minimum number  of blocks that should pass for `harvest()` to be called.  For external keepers (such as the Keep3r network), this is the minimum  time between jobs to wait. (see `harvestTrigger()`  for more details.)  This may only be called by governance or the strategist.",
        "params": {
          "_delay": "The minimum number of seconds to wait between harvests."
        }
      },
      "setProfitFactor(uint256)": {
        "notice": "Used to change `profitFactor`. `profitFactor` is used to determine  if it's worthwhile to harvest, given gas costs. (See `harvestTrigger()`  for more details.)  This may only be called by governance or the strategist.",
        "params": {
          "_profitFactor": "A ratio to multiply anticipated `harvest()` gas cost against."
        }
      },
      "setRewards(address)": {
        "notice": "Used to change `rewards`. EOA or smart contract which has the permission  to pull rewards from the vault.  This may only be called by the strategist.",
        "params": {
          "_rewards": "The address to use for pulling rewards."
        }
      },
      "setStrategist(address)": {
        "notice": "Used to change `strategist`.  This may only be called by governance or the existing strategist.",
        "params": {
          "_strategist": "The new address to assign as `strategist`."
        }
      },
      "sweep(address)": {
        "details": "Implement `protectedTokens()` to specify any additional tokens that  should be protected from sweeping in addition to `want`.",
        "notice": "Removes tokens from this Strategy that are not the type of tokens  managed by this Strategy. This may be used in case of accidentally  sending the wrong kind of token to this Strategy.  Tokens will be sent to `governance()`.  This will fail if an attempt is made to sweep `want`, or any tokens  that are protected by this Strategy.  This may only be called by governance.",
        "params": {
          "_token": "The token to transfer out of this vault."
        }
      },
      "tend()": {
        "notice": "Adjust the Strategy's position. The purpose of tending isn't to  realize gains, but to maximize yield by reinvesting any returns.  See comments on `adjustPosition()`.  This may only be called by governance, the strategist, or the keeper."
      },
      "tendTrigger(uint256)": {
        "details": "`callCostInWei` must be priced in terms of `wei` (1e-18 ETH).  This call and `harvestTrigger()` should never return `true` at the same  time.",
        "notice": "Provide a signal to the keeper that `tend()` should be called. The  keeper will provide the estimated gas cost that they would pay to call  `tend()`, and this function should use that estimate to make a  determination if calling it is \"worth it\" for the keeper. This is not  the only consideration into issuing this trigger, for example if the  position would be negatively affected if `tend()` is not called  shortly, then this can return `true` even if the keeper might be  \"at a loss\" (keepers are always reimbursed by Yearn).",
        "params": {
          "callCostInWei": "The keeper's estimated gas cost to call `tend()` (in wei)."
        },
        "returns": {
          "_0": "`true` if `tend()` should be called, `false` otherwise."
        }
      },
      "withdraw(uint256)": {
        "notice": "Withdraws `_amountNeeded` to `vault`.  This may only be called by the Vault.",
        "params": {
          "_amountNeeded": "How much `want` to withdraw."
        },
        "returns": {
          "_loss": "Any realized losses"
        }
      }
    },
    "version": 1
  },
  "opcodes": "PUSH1 0x80 PUSH1 0x40 MSTORE PUSH1 0x4 CALLDATASIZE LT PUSH2 0x303 JUMPI PUSH1 0x0 CALLDATALOAD PUSH1 0xE0 SHR DUP1 PUSH4 0x750521F5 GT PUSH2 0x190 JUMPI DUP1 PUSH4 0xC7B9D530 GT PUSH2 0xDC JUMPI DUP1 PUSH4 0xEFBB5CB0 GT PUSH2 0x95 JUMPI DUP1 PUSH4 0xF23A6E61 GT PUSH2 0x6F JUMPI DUP1 PUSH4 0xF23A6E61 EQ PUSH2 0x832 JUMPI DUP1 PUSH4 0xFB151EAF EQ PUSH2 0x85F JUMPI DUP1 PUSH4 0xFBFA77CF EQ PUSH2 0x874 JUMPI DUP1 PUSH4 0xFCF2D0AD EQ PUSH2 0x889 JUMPI PUSH2 0x30A JUMP JUMPDEST DUP1 PUSH4 0xEFBB5CB0 EQ PUSH2 0x7DD JUMPI DUP1 PUSH4 0xF017C92F EQ PUSH2 0x7F2 JUMPI DUP1 PUSH4 0xF0EE6773 EQ PUSH2 0x812 JUMPI PUSH2 0x30A JUMP JUMPDEST DUP1 PUSH4 0xC7B9D530 EQ PUSH2 0x728 JUMPI DUP1 PUSH4 0xCE5494BB EQ PUSH2 0x748 JUMPI DUP1 PUSH4 0xDF80EEE6 EQ PUSH2 0x768 JUMPI DUP1 PUSH4 0xE16695B5 EQ PUSH2 0x788 JUMPI DUP1 PUSH4 0xEC38A862 EQ PUSH2 0x79D JUMPI DUP1 PUSH4 0xED882C2B EQ PUSH2 0x7BD JUMPI PUSH2 0x30A JUMP JUMPDEST DUP1 PUSH4 0x95E80C50 GT PUSH2 0x149 JUMPI DUP1 PUSH4 0xAC00FF26 GT PUSH2 0x123 JUMPI DUP1 PUSH4 0xAC00FF26 EQ PUSH2 0x6C9 JUMPI DUP1 PUSH4 0xACED1661 EQ PUSH2 0x6E9 JUMPI DUP1 PUSH4 0xB252720B EQ PUSH2 0x6FE JUMPI DUP1 PUSH4 0xBDF00DBE EQ PUSH2 0x713 JUMPI PUSH2 0x30A JUMP JUMPDEST DUP1 PUSH4 0x95E80C50 EQ PUSH2 0x68A JUMPI DUP1 PUSH4 0x9EC5A894 EQ PUSH2 0x69F JUMPI DUP1 PUSH4 0xAA62639D EQ PUSH2 0x6B4 JUMPI PUSH2 0x30A JUMP JUMPDEST DUP1 PUSH4 0x750521F5 EQ PUSH2 0x5E0 JUMPI DUP1 PUSH4 0x780022A0 EQ PUSH2 0x600 JUMPI DUP1 PUSH4 0x7F230F0C EQ PUSH2 0x620 JUMPI DUP1 PUSH4 0x8CDFE166 EQ PUSH2 0x640 JUMPI DUP1 PUSH4 0x8E6350E2 EQ PUSH2 0x655 JUMPI DUP1 PUSH4 0x91397AB4 EQ PUSH2 0x66A JUMPI PUSH2 0x30A JUMP JUMPDEST DUP1 PUSH4 0x25829410 GT PUSH2 0x24F JUMPI DUP1 PUSH4 0x3FC8CEF3 GT PUSH2 0x208 JUMPI DUP1 PUSH4 0x5641EC03 GT PUSH2 0x1E2 JUMPI DUP1 PUSH4 0x5641EC03 EQ PUSH2 0x576 JUMPI DUP1 PUSH4 0x650D1880 EQ PUSH2 0x58B JUMPI DUP1 PUSH4 0x6718835F EQ PUSH2 0x5AB JUMPI DUP1 PUSH4 0x748747E6 EQ PUSH2 0x5C0 JUMPI PUSH2 0x30A JUMP JUMPDEST DUP1 PUSH4 0x3FC8CEF3 EQ PUSH2 0x537 JUMPI DUP1 PUSH4 0x440368A3 EQ PUSH2 0x54C JUMPI DUP1 PUSH4 0x4641257D EQ PUSH2 0x561 JUMPI PUSH2 0x30A JUMP JUMPDEST DUP1 PUSH4 0x25829410 EQ PUSH2 0x498 JUMPI DUP1 PUSH4 0x28B7CCF7 EQ PUSH2 0x4AD JUMPI DUP1 PUSH4 0x2E1A7D4D EQ PUSH2 0x4C2 JUMPI DUP1 PUSH4 0x361689DC EQ PUSH2 0x4E2 JUMPI DUP1 PUSH4 0x38A3F070 EQ PUSH2 0x502 JUMPI DUP1 PUSH4 0x39A172A8 EQ PUSH2 0x517 JUMPI PUSH2 0x30A JUMP JUMPDEST DUP1 PUSH4 0x11BC8245 GT PUSH2 0x2BC JUMPI DUP1 PUSH4 0x1D12F28B GT PUSH2 0x296 JUMPI DUP1 PUSH4 0x1D12F28B EQ PUSH2 0x41D JUMPI DUP1 PUSH4 0x1F1FCD51 EQ PUSH2 0x43F JUMPI DUP1 PUSH4 0x1FE4A686 EQ PUSH2 0x461 JUMPI DUP1 PUSH4 0x22F3E2D4 EQ PUSH2 0x476 JUMPI PUSH2 0x30A JUMP JUMPDEST DUP1 PUSH4 0x11BC8245 EQ PUSH2 0x3C8 JUMPI DUP1 PUSH4 0x125C42F6 EQ PUSH2 0x3E8 JUMPI DUP1 PUSH4 0x1923C0F9 EQ PUSH2 0x408 JUMPI PUSH2 0x30A JUMP JUMPDEST DUP1 PUSH4 0x1681A62 EQ PUSH2 0x30F JUMPI DUP1 PUSH4 0x3EE438C EQ PUSH2 0x331 JUMPI DUP1 PUSH4 0x6FDDE03 EQ PUSH2 0x35C JUMPI DUP1 PUSH4 0xD735ACE EQ PUSH2 0x371 JUMPI DUP1 PUSH4 0xD85AE4D EQ PUSH2 0x393 JUMPI DUP1 PUSH4 0xF969B87 EQ PUSH2 0x3A8 JUMPI PUSH2 0x30A JUMP JUMPDEST CALLDATASIZE PUSH2 0x30A JUMPI STOP JUMPDEST PUSH1 0x0 DUP1 REVERT JUMPDEST CALLVALUE DUP1 ISZERO PUSH2 0x31B JUMPI PUSH1 0x0 DUP1 REVERT JUMPDEST POP PUSH2 0x32F PUSH2 0x32A CALLDATASIZE PUSH1 0x4 PUSH2 0x4BA0 JUMP JUMPDEST PUSH2 0x89E JUMP JUMPDEST STOP JUMPDEST CALLVALUE DUP1 ISZERO PUSH2 0x33D JUMPI PUSH1 0x0 DUP1 REVERT JUMPDEST POP PUSH2 0x346 PUSH2 0xA3D JUMP JUMPDEST PUSH1 0x40 MLOAD PUSH2 0x353 SWAP2 SWAP1 PUSH2 0x53DA JUMP JUMPDEST PUSH1 0x40 MLOAD DUP1 SWAP2 SUB SWAP1 RETURN JUMPDEST CALLVALUE DUP1 ISZERO PUSH2 0x368 JUMPI PUSH1 0x0 DUP1 REVERT JUMPDEST POP PUSH2 0x346 PUSH2 0xACB JUMP JUMPDEST CALLVALUE DUP1 ISZERO PUSH2 0x37D JUMPI PUSH1 0x0 DUP1 REVERT JUMPDEST POP PUSH2 0x386 PUSH2 0xB02 JUMP JUMPDEST PUSH1 0x40 MLOAD PUSH2 0x353 SWAP2 SWAP1 PUSH2 0x56B5 JUMP JUMPDEST CALLVALUE DUP1 ISZERO PUSH2 0x39F JUMPI PUSH1 0x0 DUP1 REVERT JUMPDEST POP PUSH2 0x32F PUSH2 0xB13 JUMP JUMPDEST CALLVALUE DUP1 ISZERO PUSH2 0x3B4 JUMPI PUSH1 0x0 DUP1 REVERT JUMPDEST POP PUSH2 0x32F PUSH2 0x3C3 CALLDATASIZE PUSH1 0x4 PUSH2 0x5167 JUMP JUMPDEST PUSH2 0xBD1 JUMP JUMPDEST CALLVALUE DUP1 ISZERO PUSH2 0x3D4 JUMPI PUSH1 0x0 DUP1 REVERT JUMPDEST POP PUSH2 0x32F PUSH2 0x3E3 CALLDATASIZE PUSH1 0x4 PUSH2 0x4BA0 JUMP JUMPDEST PUSH2 0xC5E JUMP JUMPDEST CALLVALUE DUP1 ISZERO PUSH2 0x3F4 JUMPI PUSH1 0x0 DUP1 REVERT JUMPDEST POP PUSH2 0x32F PUSH2 0x403 CALLDATASIZE PUSH1 0x4 PUSH2 0x4BD8 JUMP JUMPDEST PUSH2 0xD5F JUMP JUMPDEST CALLVALUE DUP1 ISZERO PUSH2 0x414 JUMPI PUSH1 0x0 DUP1 REVERT JUMPDEST POP PUSH2 0x386 PUSH2 0xD7D JUMP JUMPDEST CALLVALUE DUP1 ISZERO PUSH2 0x429 JUMPI PUSH1 0x0 DUP1 REVERT JUMPDEST POP PUSH2 0x432 PUSH2 0xD87 JUMP JUMPDEST PUSH1 0x40 MLOAD PUSH2 0x353 SWAP2 SWAP1 PUSH2 0x5756 JUMP JUMPDEST CALLVALUE DUP1 ISZERO PUSH2 0x44B JUMPI PUSH1 0x0 DUP1 REVERT JUMPDEST POP PUSH2 0x454 PUSH2 0xD8D JUMP JUMPDEST PUSH1 0x40 MLOAD PUSH2 0x353 SWAP2 SWAP1 PUSH2 0x51F4 JUMP JUMPDEST CALLVALUE DUP1 ISZERO PUSH2 0x46D JUMPI PUSH1 0x0 DUP1 REVERT JUMPDEST POP PUSH2 0x454 PUSH2 0xD9C JUMP JUMPDEST CALLVALUE DUP1 ISZERO PUSH2 0x482 JUMPI PUSH1 0x0 DUP1 REVERT JUMPDEST POP PUSH2 0x48B PUSH2 0xDAB JUMP JUMPDEST PUSH1 0x40 MLOAD PUSH2 0x353 SWAP2 SWAP1 PUSH2 0x538B JUMP JUMPDEST CALLVALUE DUP1 ISZERO PUSH2 0x4A4 JUMPI PUSH1 0x0 DUP1 REVERT JUMPDEST POP PUSH2 0x346 PUSH2 0xE4D JUMP JUMPDEST CALLVALUE DUP1 ISZERO PUSH2 0x4B9 JUMPI PUSH1 0x0 DUP1 REVERT JUMPDEST POP PUSH2 0x432 PUSH2 0xE6C JUMP JUMPDEST CALLVALUE DUP1 ISZERO PUSH2 0x4CE JUMPI PUSH1 0x0 DUP1 REVERT JUMPDEST POP PUSH2 0x432 PUSH2 0x4DD CALLDATASIZE PUSH1 0x4 PUSH2 0x5167 JUMP JUMPDEST PUSH2 0xE72 JUMP JUMPDEST CALLVALUE DUP1 ISZERO PUSH2 0x4EE JUMPI PUSH1 0x0 DUP1 REVERT JUMPDEST POP PUSH2 0x454 PUSH2 0x4FD CALLDATASIZE PUSH1 0x4 PUSH2 0x4BD8 JUMP JUMPDEST PUSH2 0xECD JUMP JUMPDEST CALLVALUE DUP1 ISZERO PUSH2 0x50E JUMPI PUSH1 0x0 DUP1 REVERT JUMPDEST POP PUSH2 0x432 PUSH2 0xFC0 JUMP JUMPDEST CALLVALUE DUP1 ISZERO PUSH2 0x523 JUMPI PUSH1 0x0 DUP1 REVERT JUMPDEST POP PUSH2 0x32F PUSH2 0x532 CALLDATASIZE PUSH1 0x4 PUSH2 0x5167 JUMP JUMPDEST PUSH2 0xFC6 JUMP JUMPDEST CALLVALUE DUP1 ISZERO PUSH2 0x543 JUMPI PUSH1 0x0 DUP1 REVERT JUMPDEST POP PUSH2 0x454 PUSH2 0x1048 JUMP JUMPDEST CALLVALUE DUP1 ISZERO PUSH2 0x558 JUMPI PUSH1 0x0 DUP1 REVERT JUMPDEST POP PUSH2 0x32F PUSH2 0x1060 JUMP JUMPDEST CALLVALUE DUP1 ISZERO PUSH2 0x56D JUMPI PUSH1 0x0 DUP1 REVERT JUMPDEST POP PUSH2 0x32F PUSH2 0x1289 JUMP JUMPDEST CALLVALUE DUP1 ISZERO PUSH2 0x582 JUMPI PUSH1 0x0 DUP1 REVERT JUMPDEST POP PUSH2 0x48B PUSH2 0x1762 JUMP JUMPDEST CALLVALUE DUP1 ISZERO PUSH2 0x597 JUMPI PUSH1 0x0 DUP1 REVERT JUMPDEST POP PUSH2 0x48B PUSH2 0x5A6 CALLDATASIZE PUSH1 0x4 PUSH2 0x5167 JUMP JUMPDEST PUSH2 0x176B JUMP JUMPDEST CALLVALUE DUP1 ISZERO PUSH2 0x5B7 JUMPI PUSH1 0x0 DUP1 REVERT JUMPDEST POP PUSH2 0x48B PUSH2 0x1773 JUMP JUMPDEST CALLVALUE DUP1 ISZERO PUSH2 0x5CC JUMPI PUSH1 0x0 DUP1 REVERT JUMPDEST POP PUSH2 0x32F PUSH2 0x5DB CALLDATASIZE PUSH1 0x4 PUSH2 0x4BA0 JUMP JUMPDEST PUSH2 0x177C JUMP JUMPDEST CALLVALUE DUP1 ISZERO PUSH2 0x5EC JUMPI PUSH1 0x0 DUP1 REVERT JUMPDEST POP PUSH2 0x32F PUSH2 0x5FB CALLDATASIZE PUSH1 0x4 PUSH2 0x4EF0 JUMP JUMPDEST PUSH2 0x1827 JUMP JUMPDEST CALLVALUE DUP1 ISZERO PUSH2 0x60C JUMPI PUSH1 0x0 DUP1 REVERT JUMPDEST POP PUSH2 0x432 PUSH2 0x61B CALLDATASIZE PUSH1 0x4 PUSH2 0x5167 JUMP JUMPDEST PUSH2 0x18BE JUMP JUMPDEST CALLVALUE DUP1 ISZERO PUSH2 0x62C JUMPI PUSH1 0x0 DUP1 REVERT JUMPDEST POP PUSH2 0x32F PUSH2 0x63B CALLDATASIZE PUSH1 0x4 PUSH2 0x5167 JUMP JUMPDEST PUSH2 0x18DE JUMP JUMPDEST CALLVALUE DUP1 ISZERO PUSH2 0x64C JUMPI PUSH1 0x0 DUP1 REVERT JUMPDEST POP PUSH2 0x432 PUSH2 0x1A72 JUMP JUMPDEST CALLVALUE DUP1 ISZERO PUSH2 0x661 JUMPI PUSH1 0x0 DUP1 REVERT JUMPDEST POP PUSH2 0x432 PUSH2 0x1A78 JUMP JUMPDEST CALLVALUE DUP1 ISZERO PUSH2 0x676 JUMPI PUSH1 0x0 DUP1 REVERT JUMPDEST POP PUSH2 0x32F PUSH2 0x685 CALLDATASIZE PUSH1 0x4 PUSH2 0x5167 JUMP JUMPDEST PUSH2 0x1A7D JUMP JUMPDEST CALLVALUE DUP1 ISZERO PUSH2 0x696 JUMPI PUSH1 0x0 DUP1 REVERT JUMPDEST POP PUSH2 0x432 PUSH2 0x1AFF JUMP JUMPDEST CALLVALUE DUP1 ISZERO PUSH2 0x6AB JUMPI PUSH1 0x0 DUP1 REVERT JUMPDEST POP PUSH2 0x454 PUSH2 0x1B05 JUMP JUMPDEST CALLVALUE DUP1 ISZERO PUSH2 0x6C0 JUMPI PUSH1 0x0 DUP1 REVERT JUMPDEST POP PUSH2 0x48B PUSH2 0x1B14 JUMP JUMPDEST CALLVALUE DUP1 ISZERO PUSH2 0x6D5 JUMPI PUSH1 0x0 DUP1 REVERT JUMPDEST POP PUSH2 0x32F PUSH2 0x6E4 CALLDATASIZE PUSH1 0x4 PUSH2 0x4E50 JUMP JUMPDEST PUSH2 0x1B23 JUMP JUMPDEST CALLVALUE DUP1 ISZERO PUSH2 0x6F5 JUMPI PUSH1 0x0 DUP1 REVERT JUMPDEST POP PUSH2 0x454 PUSH2 0x1C0F JUMP JUMPDEST CALLVALUE DUP1 ISZERO PUSH2 0x70A JUMPI PUSH1 0x0 DUP1 REVERT JUMPDEST POP PUSH2 0x454 PUSH2 0x1C1E JUMP JUMPDEST CALLVALUE DUP1 ISZERO PUSH2 0x71F JUMPI PUSH1 0x0 DUP1 REVERT JUMPDEST POP PUSH2 0x432 PUSH2 0x1C32 JUMP JUMPDEST CALLVALUE DUP1 ISZERO PUSH2 0x734 JUMPI PUSH1 0x0 DUP1 REVERT JUMPDEST POP PUSH2 0x32F PUSH2 0x743 CALLDATASIZE PUSH1 0x4 PUSH2 0x4BA0 JUMP JUMPDEST PUSH2 0x1C38 JUMP JUMPDEST CALLVALUE DUP1 ISZERO PUSH2 0x754 JUMPI PUSH1 0x0 DUP1 REVERT JUMPDEST POP PUSH2 0x32F PUSH2 0x763 CALLDATASIZE PUSH1 0x4 PUSH2 0x4BA0 JUMP JUMPDEST PUSH2 0x1CE3 JUMP JUMPDEST CALLVALUE DUP1 ISZERO PUSH2 0x774 JUMPI PUSH1 0x0 DUP1 REVERT JUMPDEST POP PUSH2 0x32F PUSH2 0x783 CALLDATASIZE PUSH1 0x4 PUSH2 0x514B JUMP JUMPDEST PUSH2 0x1E31 JUMP JUMPDEST CALLVALUE DUP1 ISZERO PUSH2 0x794 JUMPI PUSH1 0x0 DUP1 REVERT JUMPDEST POP PUSH2 0x432 PUSH2 0x1FD8 JUMP JUMPDEST CALLVALUE DUP1 ISZERO PUSH2 0x7A9 JUMPI PUSH1 0x0 DUP1 REVERT JUMPDEST POP PUSH2 0x32F PUSH2 0x7B8 CALLDATASIZE PUSH1 0x4 PUSH2 0x4BA0 JUMP JUMPDEST PUSH2 0x1FDE JUMP JUMPDEST CALLVALUE DUP1 ISZERO PUSH2 0x7C9 JUMPI PUSH1 0x0 DUP1 REVERT JUMPDEST POP PUSH2 0x48B PUSH2 0x7D8 CALLDATASIZE PUSH1 0x4 PUSH2 0x5167 JUMP JUMPDEST PUSH2 0x2171 JUMP JUMPDEST CALLVALUE DUP1 ISZERO PUSH2 0x7E9 JUMPI PUSH1 0x0 DUP1 REVERT JUMPDEST POP PUSH2 0x432 PUSH2 0x23FB JUMP JUMPDEST CALLVALUE DUP1 ISZERO PUSH2 0x7FE JUMPI PUSH1 0x0 DUP1 REVERT JUMPDEST POP PUSH2 0x32F PUSH2 0x80D CALLDATASIZE PUSH1 0x4 PUSH2 0x5167 JUMP JUMPDEST PUSH2 0x2416 JUMP JUMPDEST CALLVALUE DUP1 ISZERO PUSH2 0x81E JUMPI PUSH1 0x0 DUP1 REVERT JUMPDEST POP PUSH2 0x32F PUSH2 0x82D CALLDATASIZE PUSH1 0x4 PUSH2 0x4E50 JUMP JUMPDEST PUSH2 0x2498 JUMP JUMPDEST CALLVALUE DUP1 ISZERO PUSH2 0x83E JUMPI PUSH1 0x0 DUP1 REVERT JUMPDEST POP PUSH2 0x852 PUSH2 0x84D CALLDATASIZE PUSH1 0x4 PUSH2 0x4C59 JUMP JUMPDEST PUSH2 0x2643 JUMP JUMPDEST PUSH1 0x40 MLOAD PUSH2 0x353 SWAP2 SWAP1 PUSH2 0x5396 JUMP JUMPDEST CALLVALUE DUP1 ISZERO PUSH2 0x86B JUMPI PUSH1 0x0 DUP1 REVERT JUMPDEST POP PUSH2 0x454 PUSH2 0x266E JUMP JUMPDEST CALLVALUE DUP1 ISZERO PUSH2 0x880 JUMPI PUSH1 0x0 DUP1 REVERT JUMPDEST POP PUSH2 0x454 PUSH2 0x2682 JUMP JUMPDEST CALLVALUE DUP1 ISZERO PUSH2 0x895 JUMPI PUSH1 0x0 DUP1 REVERT JUMPDEST POP PUSH2 0x32F PUSH2 0x2691 JUMP JUMPDEST PUSH2 0x8A6 PUSH2 0x2A4F JUMP JUMPDEST PUSH1 0x1 PUSH1 0x1 PUSH1 0xA0 SHL SUB AND CALLER PUSH1 0x1 PUSH1 0x1 PUSH1 0xA0 SHL SUB AND EQ PUSH2 0x8DF JUMPI PUSH1 0x40 MLOAD PUSH3 0x461BCD PUSH1 0xE5 SHL DUP2 MSTORE PUSH1 0x4 ADD PUSH2 0x8D6 SWAP1 PUSH2 0x55CC JUMP JUMPDEST PUSH1 0x40 MLOAD DUP1 SWAP2 SUB SWAP1 REVERT JUMPDEST PUSH1 0x6 SLOAD PUSH1 0x1 PUSH1 0x1 PUSH1 0xA0 SHL SUB DUP3 DUP2 AND SWAP2 AND EQ ISZERO PUSH2 0x90D JUMPI PUSH1 0x40 MLOAD PUSH3 0x461BCD PUSH1 0xE5 SHL DUP2 MSTORE PUSH1 0x4 ADD PUSH2 0x8D6 SWAP1 PUSH2 0x5432 JUMP JUMPDEST PUSH1 0x2 SLOAD PUSH1 0x1 PUSH1 0x1 PUSH1 0xA0 SHL SUB DUP3 DUP2 AND SWAP2 AND EQ ISZERO PUSH2 0x93B JUMPI PUSH1 0x40 MLOAD PUSH3 0x461BCD PUSH1 0xE5 SHL DUP2 MSTORE PUSH1 0x4 ADD PUSH2 0x8D6 SWAP1 PUSH2 0x5574 JUMP JUMPDEST PUSH1 0x60 PUSH2 0x945 PUSH2 0x2ACC JUMP JUMPDEST SWAP1 POP PUSH1 0x0 JUMPDEST DUP2 MLOAD DUP2 LT ISZERO PUSH2 0x9A0 JUMPI DUP2 DUP2 DUP2 MLOAD DUP2 LT PUSH2 0x95F JUMPI INVALID JUMPDEST PUSH1 0x20 MUL PUSH1 0x20 ADD ADD MLOAD PUSH1 0x1 PUSH1 0x1 PUSH1 0xA0 SHL SUB AND DUP4 PUSH1 0x1 PUSH1 0x1 PUSH1 0xA0 SHL SUB AND EQ ISZERO PUSH2 0x998 JUMPI PUSH1 0x40 MLOAD PUSH3 0x461BCD PUSH1 0xE5 SHL DUP2 MSTORE PUSH1 0x4 ADD PUSH2 0x8D6 SWAP1 PUSH2 0x563B JUMP JUMPDEST PUSH1 0x1 ADD PUSH2 0x94A JUMP JUMPDEST POP PUSH2 0xA39 PUSH2 0x9AC PUSH2 0x2A4F JUMP JUMPDEST PUSH1 0x40 MLOAD PUSH4 0x70A08231 PUSH1 0xE0 SHL DUP2 MSTORE PUSH1 0x1 PUSH1 0x1 PUSH1 0xA0 SHL SUB DUP6 AND SWAP1 PUSH4 0x70A08231 SWAP1 PUSH2 0x9D8 SWAP1 ADDRESS SWAP1 PUSH1 0x4 ADD PUSH2 0x51F4 JUMP JUMPDEST PUSH1 0x20 PUSH1 0x40 MLOAD DUP1 DUP4 SUB DUP2 DUP7 DUP1 EXTCODESIZE ISZERO DUP1 ISZERO PUSH2 0x9F0 JUMPI PUSH1 0x0 DUP1 REVERT JUMPDEST POP GAS STATICCALL ISZERO DUP1 ISZERO PUSH2 0xA04 JUMPI RETURNDATASIZE PUSH1 0x0 DUP1 RETURNDATACOPY RETURNDATASIZE PUSH1 0x0 REVERT JUMPDEST POP POP POP POP PUSH1 0x40 MLOAD RETURNDATASIZE PUSH1 0x1F NOT PUSH1 0x1F DUP3 ADD AND DUP3 ADD DUP1 PUSH1 0x40 MSTORE POP DUP2 ADD SWAP1 PUSH2 0xA28 SWAP2 SWAP1 PUSH2 0x4E88 JUMP JUMPDEST PUSH1 0x1 PUSH1 0x1 PUSH1 0xA0 SHL SUB DUP6 AND SWAP2 SWAP1 PUSH2 0x2AD1 JUMP JUMPDEST POP POP JUMP JUMPDEST PUSH1 0x0 DUP1 SLOAD PUSH1 0x40 DUP1 MLOAD PUSH1 0x20 PUSH1 0x2 PUSH1 0x1 DUP6 AND ISZERO PUSH2 0x100 MUL PUSH1 0x0 NOT ADD SWAP1 SWAP5 AND SWAP4 SWAP1 SWAP4 DIV PUSH1 0x1F DUP2 ADD DUP5 SWAP1 DIV DUP5 MUL DUP3 ADD DUP5 ADD SWAP1 SWAP3 MSTORE DUP2 DUP2 MSTORE SWAP3 SWAP2 DUP4 ADD DUP3 DUP3 DUP1 ISZERO PUSH2 0xAC3 JUMPI DUP1 PUSH1 0x1F LT PUSH2 0xA98 JUMPI PUSH2 0x100 DUP1 DUP4 SLOAD DIV MUL DUP4 MSTORE SWAP2 PUSH1 0x20 ADD SWAP2 PUSH2 0xAC3 JUMP JUMPDEST DUP3 ADD SWAP2 SWAP1 PUSH1 0x0 MSTORE PUSH1 0x20 PUSH1 0x0 KECCAK256 SWAP1 JUMPDEST DUP2 SLOAD DUP2 MSTORE SWAP1 PUSH1 0x1 ADD SWAP1 PUSH1 0x20 ADD DUP1 DUP4 GT PUSH2 0xAA6 JUMPI DUP3 SWAP1 SUB PUSH1 0x1F AND DUP3 ADD SWAP2 JUMPDEST POP POP POP POP POP DUP2 JUMP JUMPDEST PUSH1 0x40 DUP1 MLOAD DUP1 DUP3 ADD SWAP1 SWAP2 MSTORE PUSH1 0x17 DUP2 MSTORE PUSH32 0x53747261746567794E6F74696F6E616C4C656E64696E67000000000000000000 PUSH1 0x20 DUP3 ADD MSTORE SWAP1 JUMP JUMPDEST PUSH1 0xB SLOAD PUSH1 0x1 PUSH1 0xA8 SHL SWAP1 DIV PUSH2 0xFFFF AND DUP2 JUMP JUMPDEST PUSH2 0xB1B PUSH2 0x2A4F JUMP JUMPDEST PUSH1 0x1 PUSH1 0x1 PUSH1 0xA0 SHL SUB AND CALLER PUSH1 0x1 PUSH1 0x1 PUSH1 0xA0 SHL SUB AND EQ PUSH2 0xB4B JUMPI PUSH1 0x40 MLOAD PUSH3 0x461BCD PUSH1 0xE5 SHL DUP2 MSTORE PUSH1 0x4 ADD PUSH2 0x8D6 SWAP1 PUSH2 0x55CC JUMP JUMPDEST PUSH1 0x0 PUSH1 0x60 PUSH2 0xB57 PUSH2 0x2A4F JUMP JUMPDEST PUSH1 0x1 PUSH1 0x1 PUSH1 0xA0 SHL SUB AND SELFBALANCE PUSH1 0x40 MLOAD PUSH2 0xB6D SWAP1 PUSH2 0x51F1 JUMP JUMPDEST PUSH1 0x0 PUSH1 0x40 MLOAD DUP1 DUP4 SUB DUP2 DUP6 DUP8 GAS CALL SWAP3 POP POP POP RETURNDATASIZE DUP1 PUSH1 0x0 DUP2 EQ PUSH2 0xBAA JUMPI PUSH1 0x40 MLOAD SWAP2 POP PUSH1 0x1F NOT PUSH1 0x3F RETURNDATASIZE ADD AND DUP3 ADD PUSH1 0x40 MSTORE RETURNDATASIZE DUP3 MSTORE RETURNDATASIZE PUSH1 0x0 PUSH1 0x20 DUP5 ADD RETURNDATACOPY PUSH2 0xBAF JUMP JUMPDEST PUSH1 0x60 SWAP2 POP JUMPDEST POP SWAP2 POP SWAP2 POP DUP2 PUSH2 0xA39 JUMPI PUSH1 0x40 MLOAD PUSH3 0x461BCD PUSH1 0xE5 SHL DUP2 MSTORE PUSH1 0x4 ADD PUSH2 0x8D6 SWAP1 PUSH2 0x5488 JUMP JUMPDEST PUSH1 0x3 SLOAD PUSH1 0x1 PUSH1 0x1 PUSH1 0xA0 SHL SUB AND CALLER EQ DUP1 PUSH2 0xC02 JUMPI POP PUSH2 0xBED PUSH2 0x2A4F JUMP JUMPDEST PUSH1 0x1 PUSH1 0x1 PUSH1 0xA0 SHL SUB AND CALLER PUSH1 0x1 PUSH1 0x1 PUSH1 0xA0 SHL SUB AND EQ JUMPDEST PUSH2 0xC1E JUMPI PUSH1 0x40 MLOAD PUSH3 0x461BCD PUSH1 0xE5 SHL DUP2 MSTORE PUSH1 0x4 ADD PUSH2 0x8D6 SWAP1 PUSH2 0x55CC JUMP JUMPDEST PUSH1 0xA DUP2 SWAP1 SSTORE PUSH1 0x40 MLOAD PUSH32 0xA68BA126373D04C004C5748C300C9FCA12BD444B3D4332E261F3BD2BAC4A8600 SWAP1 PUSH2 0xC53 SWAP1 DUP4 SWAP1 PUSH2 0x5756 JUMP JUMPDEST PUSH1 0x40 MLOAD DUP1 SWAP2 SUB SWAP1 LOG1 POP JUMP JUMPDEST PUSH1 0x2 PUSH1 0x0 SWAP1 SLOAD SWAP1 PUSH2 0x100 EXP SWAP1 DIV PUSH1 0x1 PUSH1 0x1 PUSH1 0xA0 SHL SUB AND PUSH1 0x1 PUSH1 0x1 PUSH1 0xA0 SHL SUB AND PUSH4 0x88A8D602 PUSH1 0x40 MLOAD DUP2 PUSH4 0xFFFFFFFF AND PUSH1 0xE0 SHL DUP2 MSTORE PUSH1 0x4 ADD PUSH1 0x20 PUSH1 0x40 MLOAD DUP1 DUP4 SUB DUP2 DUP7 DUP1 EXTCODESIZE ISZERO DUP1 ISZERO PUSH2 0xCAC JUMPI PUSH1 0x0 DUP1 REVERT JUMPDEST POP GAS STATICCALL ISZERO DUP1 ISZERO PUSH2 0xCC0 JUMPI RETURNDATASIZE PUSH1 0x0 DUP1 RETURNDATACOPY RETURNDATASIZE PUSH1 0x0 REVERT JUMPDEST POP POP POP POP PUSH1 0x40 MLOAD RETURNDATASIZE PUSH1 0x1F NOT PUSH1 0x1F DUP3 ADD AND DUP3 ADD DUP1 PUSH1 0x40 MSTORE POP DUP2 ADD SWAP1 PUSH2 0xCE4 SWAP2 SWAP1 PUSH2 0x4BBC JUMP JUMPDEST PUSH1 0x1 PUSH1 0x1 PUSH1 0xA0 SHL SUB AND CALLER PUSH1 0x1 PUSH1 0x1 PUSH1 0xA0 SHL SUB AND EQ DUP1 PUSH2 0xD1B JUMPI POP PUSH2 0xD06 PUSH2 0x2A4F JUMP JUMPDEST PUSH1 0x1 PUSH1 0x1 PUSH1 0xA0 SHL SUB AND CALLER PUSH1 0x1 PUSH1 0x1 PUSH1 0xA0 SHL SUB AND EQ JUMPDEST PUSH2 0xD37 JUMPI PUSH1 0x40 MLOAD PUSH3 0x461BCD PUSH1 0xE5 SHL DUP2 MSTORE PUSH1 0x4 ADD PUSH2 0x8D6 SWAP1 PUSH2 0x55CC JUMP JUMPDEST PUSH1 0x1 DUP1 SLOAD PUSH1 0x1 PUSH1 0x1 PUSH1 0xA0 SHL SUB SWAP1 SWAP3 AND PUSH2 0x100 MUL PUSH2 0x100 PUSH1 0x1 PUSH1 0xA8 SHL SUB NOT SWAP1 SWAP3 AND SWAP2 SWAP1 SWAP2 OR SWAP1 SSTORE JUMP JUMPDEST PUSH2 0xD6B DUP7 DUP7 DUP7 DUP7 PUSH2 0x2AF0 JUMP JUMPDEST PUSH2 0xD75 DUP3 DUP3 PUSH2 0x2CB0 JUMP JUMPDEST POP POP POP POP POP POP JUMP JUMPDEST PUSH1 0xE SLOAD PUSH2 0xFFFF AND DUP2 JUMP JUMPDEST PUSH1 0xA SLOAD DUP2 JUMP JUMPDEST PUSH1 0x6 SLOAD PUSH1 0x1 PUSH1 0x1 PUSH1 0xA0 SHL SUB AND DUP2 JUMP JUMPDEST PUSH1 0x3 SLOAD PUSH1 0x1 PUSH1 0x1 PUSH1 0xA0 SHL SUB AND DUP2 JUMP JUMPDEST PUSH1 0x2 SLOAD PUSH1 0x40 MLOAD PUSH4 0x39EBF823 PUSH1 0xE0 SHL DUP2 MSTORE PUSH1 0x0 SWAP2 DUP3 SWAP2 PUSH1 0x1 PUSH1 0x1 PUSH1 0xA0 SHL SUB SWAP1 SWAP2 AND SWAP1 PUSH4 0x39EBF823 SWAP1 PUSH2 0xDE0 SWAP1 ADDRESS SWAP1 PUSH1 0x4 ADD PUSH2 0x51F4 JUMP JUMPDEST PUSH2 0x120 PUSH1 0x40 MLOAD DUP1 DUP4 SUB DUP2 DUP7 DUP1 EXTCODESIZE ISZERO DUP1 ISZERO PUSH2 0xDF9 JUMPI PUSH1 0x0 DUP1 REVERT JUMPDEST POP GAS STATICCALL ISZERO DUP1 ISZERO PUSH2 0xE0D JUMPI RETURNDATASIZE PUSH1 0x0 DUP1 RETURNDATACOPY RETURNDATASIZE PUSH1 0x0 REVERT JUMPDEST POP POP POP POP PUSH1 0x40 MLOAD RETURNDATASIZE PUSH1 0x1F NOT PUSH1 0x1F DUP3 ADD AND DUP3 ADD DUP1 PUSH1 0x40 MSTORE POP DUP2 ADD SWAP1 PUSH2 0xE31 SWAP2 SWAP1 PUSH2 0x4FC3 JUMP JUMPDEST PUSH1 0x40 ADD MLOAD GT DUP1 PUSH2 0xE48 JUMPI POP PUSH1 0x0 PUSH2 0xE46 PUSH2 0x23FB JUMP JUMPDEST GT JUMPDEST SWAP1 POP SWAP1 JUMP JUMPDEST PUSH1 0x40 DUP1 MLOAD DUP1 DUP3 ADD SWAP1 SWAP2 MSTORE PUSH1 0x5 DUP2 MSTORE PUSH5 0x302E342E33 PUSH1 0xD8 SHL PUSH1 0x20 DUP3 ADD MSTORE SWAP1 JUMP JUMPDEST PUSH1 0x8 SLOAD DUP2 JUMP JUMPDEST PUSH1 0x2 SLOAD PUSH1 0x0 SWAP1 PUSH1 0x1 PUSH1 0x1 PUSH1 0xA0 SHL SUB AND CALLER EQ PUSH2 0xE9F JUMPI PUSH1 0x40 MLOAD PUSH3 0x461BCD PUSH1 0xE5 SHL DUP2 MSTORE PUSH1 0x4 ADD PUSH2 0x8D6 SWAP1 PUSH2 0x5554 JUMP JUMPDEST PUSH1 0x0 PUSH2 0xEAA DUP4 PUSH2 0x2DF4 JUMP JUMPDEST PUSH1 0x6 SLOAD SWAP1 SWAP4 POP SWAP1 SWAP2 POP PUSH2 0xEC7 SWAP1 PUSH1 0x1 PUSH1 0x1 PUSH1 0xA0 SHL SUB AND CALLER DUP4 PUSH2 0x2AD1 JUMP JUMPDEST POP SWAP2 SWAP1 POP JUMP JUMPDEST PUSH1 0x40 MLOAD PUSH20 0x3D602D80600A3D3981F3363D3D373D3D3D363D73 PUSH1 0x60 SHL DUP2 MSTORE ADDRESS PUSH1 0x60 SHL PUSH1 0x14 DUP3 ADD DUP2 SWAP1 MSTORE PUSH15 0x5AF43D82803E903D91602B57FD5BF3 PUSH1 0x88 SHL PUSH1 0x28 DUP4 ADD MSTORE PUSH1 0x0 SWAP2 PUSH1 0x37 DUP2 DUP5 CREATE PUSH1 0x40 MLOAD PUSH4 0x92E217B PUSH1 0xE1 SHL DUP2 MSTORE SWAP1 SWAP4 POP PUSH1 0x1 PUSH1 0x1 PUSH1 0xA0 SHL SUB DUP5 AND SWAP2 POP PUSH4 0x125C42F6 SWAP1 PUSH2 0xF4F SWAP1 DUP12 SWAP1 DUP12 SWAP1 DUP12 SWAP1 DUP12 SWAP1 DUP12 SWAP1 DUP12 SWAP1 PUSH1 0x4 ADD PUSH2 0x5334 JUMP JUMPDEST PUSH1 0x0 PUSH1 0x40 MLOAD DUP1 DUP4 SUB DUP2 PUSH1 0x0 DUP8 DUP1 EXTCODESIZE ISZERO DUP1 ISZERO PUSH2 0xF69 JUMPI PUSH1 0x0 DUP1 REVERT JUMPDEST POP GAS CALL ISZERO DUP1 ISZERO PUSH2 0xF7D JUMPI RETURNDATASIZE PUSH1 0x0 DUP1 RETURNDATACOPY RETURNDATASIZE PUSH1 0x0 REVERT JUMPDEST POP POP PUSH1 0x40 MLOAD PUSH1 0x1 PUSH1 0x1 PUSH1 0xA0 SHL SUB DUP6 AND SWAP3 POP PUSH32 0x783540FB4221A3238720DC7038937D0D79982BCF895274AA6AD179F82CF0D53C SWAP2 POP PUSH1 0x0 SWAP1 LOG2 POP SWAP7 SWAP6 POP POP POP POP POP POP JUMP JUMPDEST PUSH1 0xD SLOAD SWAP1 JUMP JUMPDEST PUSH1 0x3 SLOAD PUSH1 0x1 PUSH1 0x1 PUSH1 0xA0 SHL SUB AND CALLER EQ DUP1 PUSH2 0xFF7 JUMPI POP PUSH2 0xFE2 PUSH2 0x2A4F JUMP JUMPDEST PUSH1 0x1 PUSH1 0x1 PUSH1 0xA0 SHL SUB AND CALLER PUSH1 0x1 PUSH1 0x1 PUSH1 0xA0 SHL SUB AND EQ JUMPDEST PUSH2 0x1013 JUMPI PUSH1 0x40 MLOAD PUSH3 0x461BCD PUSH1 0xE5 SHL DUP2 MSTORE PUSH1 0x4 ADD PUSH2 0x8D6 SWAP1 PUSH2 0x55CC JUMP JUMPDEST PUSH1 0x7 DUP2 SWAP1 SSTORE PUSH1 0x40 MLOAD PUSH32 0xBB2C369A0355A34B02AB5FCE0643150C87E1C8DFE7C918D465591879F57948B1 SWAP1 PUSH2 0xC53 SWAP1 DUP4 SWAP1 PUSH2 0x5756 JUMP JUMPDEST PUSH20 0xC02AAA39B223FE8D0A0E5C4F27EAD9083C756CC2 DUP2 JUMP JUMPDEST PUSH1 0x5 SLOAD PUSH1 0x1 PUSH1 0x1 PUSH1 0xA0 SHL SUB AND CALLER EQ DUP1 PUSH2 0x1083 JUMPI POP PUSH1 0x3 SLOAD PUSH1 0x1 PUSH1 0x1 PUSH1 0xA0 SHL SUB AND CALLER EQ JUMPDEST DUP1 PUSH2 0x10A6 JUMPI POP PUSH2 0x1091 PUSH2 0x2A4F JUMP JUMPDEST PUSH1 0x1 PUSH1 0x1 PUSH1 0xA0 SHL SUB AND CALLER PUSH1 0x1 PUSH1 0x1 PUSH1 0xA0 SHL SUB AND EQ JUMPDEST DUP1 PUSH2 0x1147 JUMPI POP PUSH1 0x2 PUSH1 0x0 SWAP1 SLOAD SWAP1 PUSH2 0x100 EXP SWAP1 DIV PUSH1 0x1 PUSH1 0x1 PUSH1 0xA0 SHL SUB AND PUSH1 0x1 PUSH1 0x1 PUSH1 0xA0 SHL SUB AND PUSH4 0x452A9320 PUSH1 0x40 MLOAD DUP2 PUSH4 0xFFFFFFFF AND PUSH1 0xE0 SHL DUP2 MSTORE PUSH1 0x4 ADD PUSH1 0x20 PUSH1 0x40 MLOAD DUP1 DUP4 SUB DUP2 DUP7 DUP1 EXTCODESIZE ISZERO DUP1 ISZERO PUSH2 0x10FA JUMPI PUSH1 0x0 DUP1 REVERT JUMPDEST POP GAS STATICCALL ISZERO DUP1 ISZERO PUSH2 0x110E JUMPI RETURNDATASIZE PUSH1 0x0 DUP1 RETURNDATACOPY RETURNDATASIZE PUSH1 0x0 REVERT JUMPDEST POP POP POP POP PUSH1 0x40 MLOAD RETURNDATASIZE PUSH1 0x1F NOT PUSH1 0x1F DUP3 ADD AND DUP3 ADD DUP1 PUSH1 0x40 MSTORE POP DUP2 ADD SWAP1 PUSH2 0x1132 SWAP2 SWAP1 PUSH2 0x4BBC JUMP JUMPDEST PUSH1 0x1 PUSH1 0x1 PUSH1 0xA0 SHL SUB AND CALLER PUSH1 0x1 PUSH1 0x1 PUSH1 0xA0 SHL SUB AND EQ JUMPDEST DUP1 PUSH2 0x11E8 JUMPI POP PUSH1 0x2 PUSH1 0x0 SWAP1 SLOAD SWAP1 PUSH2 0x100 EXP SWAP1 DIV PUSH1 0x1 PUSH1 0x1 PUSH1 0xA0 SHL SUB AND PUSH1 0x1 PUSH1 0x1 PUSH1 0xA0 SHL SUB AND PUSH4 0x88A8D602 PUSH1 0x40 MLOAD DUP2 PUSH4 0xFFFFFFFF AND PUSH1 0xE0 SHL DUP2 MSTORE PUSH1 0x4 ADD PUSH1 0x20 PUSH1 0x40 MLOAD DUP1 DUP4 SUB DUP2 DUP7 DUP1 EXTCODESIZE ISZERO DUP1 ISZERO PUSH2 0x119B JUMPI PUSH1 0x0 DUP1 REVERT JUMPDEST POP GAS STATICCALL ISZERO DUP1 ISZERO PUSH2 0x11AF JUMPI RETURNDATASIZE PUSH1 0x0 DUP1 RETURNDATACOPY RETURNDATASIZE PUSH1 0x0 REVERT JUMPDEST POP POP POP POP PUSH1 0x40 MLOAD RETURNDATASIZE PUSH1 0x1F NOT PUSH1 0x1F DUP3 ADD AND DUP3 ADD DUP1 PUSH1 0x40 MSTORE POP DUP2 ADD SWAP1 PUSH2 0x11D3 SWAP2 SWAP1 PUSH2 0x4BBC JUMP JUMPDEST PUSH1 0x1 PUSH1 0x1 PUSH1 0xA0 SHL SUB AND CALLER PUSH1 0x1 PUSH1 0x1 PUSH1 0xA0 SHL SUB AND EQ JUMPDEST PUSH2 0x1204 JUMPI PUSH1 0x40 MLOAD PUSH3 0x461BCD PUSH1 0xE5 SHL DUP2 MSTORE PUSH1 0x4 ADD PUSH2 0x8D6 SWAP1 PUSH2 0x55CC JUMP JUMPDEST PUSH1 0x2 SLOAD PUSH1 0x40 DUP1 MLOAD PUSH4 0xBF3759B5 PUSH1 0xE0 SHL DUP2 MSTORE SWAP1 MLOAD PUSH2 0x1287 SWAP3 PUSH1 0x1 PUSH1 0x1 PUSH1 0xA0 SHL SUB AND SWAP2 PUSH4 0xBF3759B5 SWAP2 PUSH1 0x4 DUP1 DUP4 ADD SWAP3 PUSH1 0x20 SWAP3 SWAP2 SWAP1 DUP3 SWAP1 SUB ADD DUP2 DUP7 DUP1 EXTCODESIZE ISZERO DUP1 ISZERO PUSH2 0x124A JUMPI PUSH1 0x0 DUP1 REVERT JUMPDEST POP GAS STATICCALL ISZERO DUP1 ISZERO PUSH2 0x125E JUMPI RETURNDATASIZE PUSH1 0x0 DUP1 RETURNDATACOPY RETURNDATASIZE PUSH1 0x0 REVERT JUMPDEST POP POP POP POP PUSH1 0x40 MLOAD RETURNDATASIZE PUSH1 0x1F NOT PUSH1 0x1F DUP3 ADD AND DUP3 ADD DUP1 PUSH1 0x40 MSTORE POP DUP2 ADD SWAP1 PUSH2 0x1282 SWAP2 SWAP1 PUSH2 0x4E88 JUMP JUMPDEST PUSH2 0x32F9 JUMP JUMPDEST JUMP JUMPDEST PUSH1 0x5 SLOAD PUSH1 0x1 PUSH1 0x1 PUSH1 0xA0 SHL SUB AND CALLER EQ DUP1 PUSH2 0x12AC JUMPI POP PUSH1 0x3 SLOAD PUSH1 0x1 PUSH1 0x1 PUSH1 0xA0 SHL SUB AND CALLER EQ JUMPDEST DUP1 PUSH2 0x12CF JUMPI POP PUSH2 0x12BA PUSH2 0x2A4F JUMP JUMPDEST PUSH1 0x1 PUSH1 0x1 PUSH1 0xA0 SHL SUB AND CALLER PUSH1 0x1 PUSH1 0x1 PUSH1 0xA0 SHL SUB AND EQ JUMPDEST DUP1 PUSH2 0x1370 JUMPI POP PUSH1 0x2 PUSH1 0x0 SWAP1 SLOAD SWAP1 PUSH2 0x100 EXP SWAP1 DIV PUSH1 0x1 PUSH1 0x1 PUSH1 0xA0 SHL SUB AND PUSH1 0x1 PUSH1 0x1 PUSH1 0xA0 SHL SUB AND PUSH4 0x452A9320 PUSH1 0x40 MLOAD DUP2 PUSH4 0xFFFFFFFF AND PUSH1 0xE0 SHL DUP2 MSTORE PUSH1 0x4 ADD PUSH1 0x20 PUSH1 0x40 MLOAD DUP1 DUP4 SUB DUP2 DUP7 DUP1 EXTCODESIZE ISZERO DUP1 ISZERO PUSH2 0x1323 JUMPI PUSH1 0x0 DUP1 REVERT JUMPDEST POP GAS STATICCALL ISZERO DUP1 ISZERO PUSH2 0x1337 JUMPI RETURNDATASIZE PUSH1 0x0 DUP1 RETURNDATACOPY RETURNDATASIZE PUSH1 0x0 REVERT JUMPDEST POP POP POP POP PUSH1 0x40 MLOAD RETURNDATASIZE PUSH1 0x1F NOT PUSH1 0x1F DUP3 ADD AND DUP3 ADD DUP1 PUSH1 0x40 MSTORE POP DUP2 ADD SWAP1 PUSH2 0x135B SWAP2 SWAP1 PUSH2 0x4BBC JUMP JUMPDEST PUSH1 0x1 PUSH1 0x1 PUSH1 0xA0 SHL SUB AND CALLER PUSH1 0x1 PUSH1 0x1 PUSH1 0xA0 SHL SUB AND EQ JUMPDEST DUP1 PUSH2 0x1411 JUMPI POP PUSH1 0x2 PUSH1 0x0 SWAP1 SLOAD SWAP1 PUSH2 0x100 EXP SWAP1 DIV PUSH1 0x1 PUSH1 0x1 PUSH1 0xA0 SHL SUB AND PUSH1 0x1 PUSH1 0x1 PUSH1 0xA0 SHL SUB AND PUSH4 0x88A8D602 PUSH1 0x40 MLOAD DUP2 PUSH4 0xFFFFFFFF AND PUSH1 0xE0 SHL DUP2 MSTORE PUSH1 0x4 ADD PUSH1 0x20 PUSH1 0x40 MLOAD DUP1 DUP4 SUB DUP2 DUP7 DUP1 EXTCODESIZE ISZERO DUP1 ISZERO PUSH2 0x13C4 JUMPI PUSH1 0x0 DUP1 REVERT JUMPDEST POP GAS STATICCALL ISZERO DUP1 ISZERO PUSH2 0x13D8 JUMPI RETURNDATASIZE PUSH1 0x0 DUP1 RETURNDATACOPY RETURNDATASIZE PUSH1 0x0 REVERT JUMPDEST POP POP POP POP PUSH1 0x40 MLOAD RETURNDATASIZE PUSH1 0x1F NOT PUSH1 0x1F DUP3 ADD AND DUP3 ADD DUP1 PUSH1 0x40 MSTORE POP DUP2 ADD SWAP1 PUSH2 0x13FC SWAP2 SWAP1 PUSH2 0x4BBC JUMP JUMPDEST PUSH1 0x1 PUSH1 0x1 PUSH1 0xA0 SHL SUB AND CALLER PUSH1 0x1 PUSH1 0x1 PUSH1 0xA0 SHL SUB AND EQ JUMPDEST PUSH2 0x142D JUMPI PUSH1 0x40 MLOAD PUSH3 0x461BCD PUSH1 0xE5 SHL DUP2 MSTORE PUSH1 0x4 ADD PUSH2 0x8D6 SWAP1 PUSH2 0x55CC JUMP JUMPDEST PUSH1 0x0 DUP1 PUSH1 0x0 PUSH1 0x2 PUSH1 0x0 SWAP1 SLOAD SWAP1 PUSH2 0x100 EXP SWAP1 DIV PUSH1 0x1 PUSH1 0x1 PUSH1 0xA0 SHL SUB AND PUSH1 0x1 PUSH1 0x1 PUSH1 0xA0 SHL SUB AND PUSH4 0xBF3759B5 PUSH1 0x40 MLOAD DUP2 PUSH4 0xFFFFFFFF AND PUSH1 0xE0 SHL DUP2 MSTORE PUSH1 0x4 ADD PUSH1 0x20 PUSH1 0x40 MLOAD DUP1 DUP4 SUB DUP2 DUP7 DUP1 EXTCODESIZE ISZERO DUP1 ISZERO PUSH2 0x1480 JUMPI PUSH1 0x0 DUP1 REVERT JUMPDEST POP GAS STATICCALL ISZERO DUP1 ISZERO PUSH2 0x1494 JUMPI RETURNDATASIZE PUSH1 0x0 DUP1 RETURNDATACOPY RETURNDATASIZE PUSH1 0x0 REVERT JUMPDEST POP POP POP POP PUSH1 0x40 MLOAD RETURNDATASIZE PUSH1 0x1F NOT PUSH1 0x1F DUP3 ADD AND DUP3 ADD DUP1 PUSH1 0x40 MSTORE POP DUP2 ADD SWAP1 PUSH2 0x14B8 SWAP2 SWAP1 PUSH2 0x4E88 JUMP JUMPDEST PUSH1 0xB SLOAD SWAP1 SWAP2 POP PUSH1 0x0 SWAP1 PUSH1 0xFF AND ISZERO PUSH2 0x1515 JUMPI PUSH1 0x0 PUSH2 0x14D3 PUSH2 0x35BF JUMP JUMPDEST SWAP1 POP DUP3 DUP2 LT ISZERO PUSH2 0x14EE JUMPI PUSH2 0x14E7 DUP4 DUP3 PUSH2 0x35D9 JUMP JUMPDEST SWAP4 POP PUSH2 0x1503 JUMP JUMPDEST DUP3 DUP2 GT ISZERO PUSH2 0x1503 JUMPI PUSH2 0x1500 DUP2 DUP5 PUSH2 0x35D9 JUMP JUMPDEST SWAP5 POP JUMPDEST PUSH2 0x150D DUP4 DUP6 PUSH2 0x35D9 JUMP JUMPDEST SWAP2 POP POP PUSH2 0x1526 JUMP JUMPDEST PUSH2 0x151E DUP3 PUSH2 0x361B JUMP JUMPDEST SWAP2 SWAP6 POP SWAP4 POP SWAP1 POP JUMPDEST PUSH1 0x2 SLOAD PUSH1 0x40 MLOAD PUSH4 0x39EBF823 PUSH1 0xE0 SHL DUP2 MSTORE PUSH1 0x0 SWAP2 PUSH1 0x1 PUSH1 0x1 PUSH1 0xA0 SHL SUB AND SWAP1 PUSH4 0x39EBF823 SWAP1 PUSH2 0x1557 SWAP1 ADDRESS SWAP1 PUSH1 0x4 ADD PUSH2 0x51F4 JUMP JUMPDEST PUSH2 0x120 PUSH1 0x40 MLOAD DUP1 DUP4 SUB DUP2 DUP7 DUP1 EXTCODESIZE ISZERO DUP1 ISZERO PUSH2 0x1570 JUMPI PUSH1 0x0 DUP1 REVERT JUMPDEST POP GAS STATICCALL ISZERO DUP1 ISZERO PUSH2 0x1584 JUMPI RETURNDATASIZE PUSH1 0x0 DUP1 RETURNDATACOPY RETURNDATASIZE PUSH1 0x0 REVERT JUMPDEST POP POP POP POP PUSH1 0x40 MLOAD RETURNDATASIZE PUSH1 0x1F NOT PUSH1 0x1F DUP3 ADD AND DUP3 ADD DUP1 PUSH1 0x40 MSTORE POP DUP2 ADD SWAP1 PUSH2 0x15A8 SWAP2 SWAP1 PUSH2 0x4FC3 JUMP JUMPDEST PUSH1 0xC0 ADD MLOAD PUSH1 0x2 SLOAD PUSH1 0x40 MLOAD PUSH4 0x28766EBF PUSH1 0xE2 SHL DUP2 MSTORE SWAP2 SWAP3 POP PUSH1 0x1 PUSH1 0x1 PUSH1 0xA0 SHL SUB AND SWAP1 PUSH4 0xA1D9BAFC SWAP1 PUSH2 0x15E1 SWAP1 DUP9 SWAP1 DUP9 SWAP1 DUP8 SWAP1 PUSH1 0x4 ADD PUSH2 0x575F JUMP JUMPDEST PUSH1 0x20 PUSH1 0x40 MLOAD DUP1 DUP4 SUB DUP2 PUSH1 0x0 DUP8 DUP1 EXTCODESIZE ISZERO DUP1 ISZERO PUSH2 0x15FB JUMPI PUSH1 0x0 DUP1 REVERT JUMPDEST POP GAS CALL ISZERO DUP1 ISZERO PUSH2 0x160F JUMPI RETURNDATASIZE PUSH1 0x0 DUP1 RETURNDATACOPY RETURNDATASIZE PUSH1 0x0 REVERT JUMPDEST POP POP POP POP PUSH1 0x40 MLOAD RETURNDATASIZE PUSH1 0x1F NOT PUSH1 0x1F DUP3 ADD AND DUP3 ADD DUP1 PUSH1 0x40 MSTORE POP DUP2 ADD SWAP1 PUSH2 0x1633 SWAP2 SWAP1 PUSH2 0x4E88 JUMP JUMPDEST SWAP3 POP PUSH2 0x163E DUP4 PUSH2 0x32F9 JUMP JUMPDEST PUSH1 0x1 SLOAD PUSH1 0xFF AND DUP1 ISZERO PUSH2 0x165F JUMPI POP PUSH1 0x1 SLOAD PUSH2 0x100 SWAP1 DIV PUSH1 0x1 PUSH1 0x1 PUSH1 0xA0 SHL SUB AND ISZERO ISZERO JUMPDEST ISZERO PUSH2 0x1711 JUMPI PUSH1 0x1 SLOAD PUSH1 0x40 MLOAD PUSH4 0xC70FA00B PUSH1 0xE0 SHL DUP2 MSTORE PUSH2 0x100 SWAP1 SWAP2 DIV PUSH1 0x1 PUSH1 0x1 PUSH1 0xA0 SHL SUB AND SWAP1 PUSH4 0xC70FA00B SWAP1 PUSH2 0x16A0 SWAP1 DUP9 SWAP1 DUP9 SWAP1 DUP8 SWAP1 DUP10 SWAP1 DUP9 SWAP1 PUSH1 0x4 ADD PUSH2 0x5790 JUMP JUMPDEST PUSH1 0x20 PUSH1 0x40 MLOAD DUP1 DUP4 SUB DUP2 DUP7 DUP1 EXTCODESIZE ISZERO DUP1 ISZERO PUSH2 0x16B8 JUMPI PUSH1 0x0 DUP1 REVERT JUMPDEST POP GAS STATICCALL ISZERO DUP1 ISZERO PUSH2 0x16CC JUMPI RETURNDATASIZE PUSH1 0x0 DUP1 RETURNDATACOPY RETURNDATASIZE PUSH1 0x0 REVERT JUMPDEST POP POP POP POP PUSH1 0x40 MLOAD RETURNDATASIZE PUSH1 0x1F NOT PUSH1 0x1F DUP3 ADD AND DUP3 ADD DUP1 PUSH1 0x40 MSTORE POP DUP2 ADD SWAP1 PUSH2 0x16F0 SWAP2 SWAP1 PUSH2 0x4E6C JUMP JUMPDEST PUSH2 0x170C JUMPI PUSH1 0x40 MLOAD PUSH3 0x461BCD PUSH1 0xE5 SHL DUP2 MSTORE PUSH1 0x4 ADD PUSH2 0x8D6 SWAP1 PUSH2 0x54B6 JUMP JUMPDEST PUSH2 0x171E JUMP JUMPDEST PUSH1 0x1 DUP1 SLOAD PUSH1 0xFF NOT AND DUP2 OR SWAP1 SSTORE JUMPDEST PUSH32 0x4C0F499FFE6BEFA0CA7C826B0916CF87BEA98DE658013E76938489368D60D509 DUP6 DUP6 DUP5 DUP7 PUSH1 0x40 MLOAD PUSH2 0x1753 SWAP5 SWAP4 SWAP3 SWAP2 SWAP1 PUSH2 0x5775 JUMP JUMPDEST PUSH1 0x40 MLOAD DUP1 SWAP2 SUB SWAP1 LOG1 POP POP POP POP POP JUMP JUMPDEST PUSH1 0xB SLOAD PUSH1 0xFF AND DUP2 JUMP JUMPDEST PUSH1 0x0 JUMPDEST SWAP2 SWAP1 POP JUMP JUMPDEST PUSH1 0x1 SLOAD PUSH1 0xFF AND DUP2 JUMP JUMPDEST PUSH1 0x3 SLOAD PUSH1 0x1 PUSH1 0x1 PUSH1 0xA0 SHL SUB AND CALLER EQ DUP1 PUSH2 0x17AD JUMPI POP PUSH2 0x1798 PUSH2 0x2A4F JUMP JUMPDEST PUSH1 0x1 PUSH1 0x1 PUSH1 0xA0 SHL SUB AND CALLER PUSH1 0x1 PUSH1 0x1 PUSH1 0xA0 SHL SUB AND EQ JUMPDEST PUSH2 0x17C9 JUMPI PUSH1 0x40 MLOAD PUSH3 0x461BCD PUSH1 0xE5 SHL DUP2 MSTORE PUSH1 0x4 ADD PUSH2 0x8D6 SWAP1 PUSH2 0x55CC JUMP JUMPDEST PUSH1 0x1 PUSH1 0x1 PUSH1 0xA0 SHL SUB DUP2 AND PUSH2 0x17DC JUMPI PUSH1 0x0 DUP1 REVERT JUMPDEST PUSH1 0x5 DUP1 SLOAD PUSH1 0x1 PUSH1 0x1 PUSH1 0xA0 SHL SUB NOT AND PUSH1 0x1 PUSH1 0x1 PUSH1 0xA0 SHL SUB DUP4 AND OR SWAP1 SSTORE PUSH1 0x40 MLOAD PUSH32 0x2F202DDB4A2E345F6323ED90F8FC8559D770A7ABBBEEE84DDE8ACA3351FE7154 SWAP1 PUSH2 0xC53 SWAP1 DUP4 SWAP1 PUSH2 0x51F4 JUMP JUMPDEST PUSH1 0x3 SLOAD PUSH1 0x1 PUSH1 0x1 PUSH1 0xA0 SHL SUB AND CALLER EQ DUP1 PUSH2 0x1858 JUMPI POP PUSH2 0x1843 PUSH2 0x2A4F JUMP JUMPDEST PUSH1 0x1 PUSH1 0x1 PUSH1 0xA0 SHL SUB AND CALLER PUSH1 0x1 PUSH1 0x1 PUSH1 0xA0 SHL SUB AND EQ JUMPDEST PUSH2 0x1874 JUMPI PUSH1 0x40 MLOAD PUSH3 0x461BCD PUSH1 0xE5 SHL DUP2 MSTORE PUSH1 0x4 ADD PUSH2 0x8D6 SWAP1 PUSH2 0x55CC JUMP JUMPDEST PUSH2 0x1880 PUSH1 0x0 DUP4 DUP4 PUSH2 0x485B JUMP JUMPDEST POP PUSH32 0x300E67D5A415B6D015A471D9C7B95DD58F3E8290AF965E84E0F845DE2996DDA6 DUP3 DUP3 PUSH1 0x40 MLOAD PUSH2 0x18B2 SWAP3 SWAP2 SWAP1 PUSH2 0x53AB JUMP JUMPDEST PUSH1 0x40 MLOAD DUP1 SWAP2 SUB SWAP1 LOG1 POP POP JUMP JUMPDEST PUSH1 0x6 SLOAD PUSH1 0x0 SWAP1 PUSH2 0x18D8 SWAP1 DUP4 SWAP1 PUSH1 0x1 PUSH1 0x1 PUSH1 0xA0 SHL SUB AND PUSH2 0x370C JUMP JUMPDEST SWAP3 SWAP2 POP POP JUMP JUMPDEST PUSH1 0x3 SLOAD PUSH1 0x1 PUSH1 0x1 PUSH1 0xA0 SHL SUB AND CALLER EQ DUP1 PUSH2 0x190F JUMPI POP PUSH2 0x18FA PUSH2 0x2A4F JUMP JUMPDEST PUSH1 0x1 PUSH1 0x1 PUSH1 0xA0 SHL SUB AND CALLER PUSH1 0x1 PUSH1 0x1 PUSH1 0xA0 SHL SUB AND EQ JUMPDEST DUP1 PUSH2 0x19B0 JUMPI POP PUSH1 0x2 PUSH1 0x0 SWAP1 SLOAD SWAP1 PUSH2 0x100 EXP SWAP1 DIV PUSH1 0x1 PUSH1 0x1 PUSH1 0xA0 SHL SUB AND PUSH1 0x1 PUSH1 0x1 PUSH1 0xA0 SHL SUB AND PUSH4 0x452A9320 PUSH1 0x40 MLOAD DUP2 PUSH4 0xFFFFFFFF AND PUSH1 0xE0 SHL DUP2 MSTORE PUSH1 0x4 ADD PUSH1 0x20 PUSH1 0x40 MLOAD DUP1 DUP4 SUB DUP2 DUP7 DUP1 EXTCODESIZE ISZERO DUP1 ISZERO PUSH2 0x1963 JUMPI PUSH1 0x0 DUP1 REVERT JUMPDEST POP GAS STATICCALL ISZERO DUP1 ISZERO PUSH2 0x1977 JUMPI RETURNDATASIZE PUSH1 0x0 DUP1 RETURNDATACOPY RETURNDATASIZE PUSH1 0x0 REVERT JUMPDEST POP POP POP POP PUSH1 0x40 MLOAD RETURNDATASIZE PUSH1 0x1F NOT PUSH1 0x1F DUP3 ADD AND DUP3 ADD DUP1 PUSH1 0x40 MSTORE POP DUP2 ADD SWAP1 PUSH2 0x199B SWAP2 SWAP1 PUSH2 0x4BBC JUMP JUMPDEST PUSH1 0x1 PUSH1 0x1 PUSH1 0xA0 SHL SUB AND CALLER PUSH1 0x1 PUSH1 0x1 PUSH1 0xA0 SHL SUB AND EQ JUMPDEST DUP1 PUSH2 0x1A51 JUMPI POP PUSH1 0x2 PUSH1 0x0 SWAP1 SLOAD SWAP1 PUSH2 0x100 EXP SWAP1 DIV PUSH1 0x1 PUSH1 0x1 PUSH1 0xA0 SHL SUB AND PUSH1 0x1 PUSH1 0x1 PUSH1 0xA0 SHL SUB AND PUSH4 0x88A8D602 PUSH1 0x40 MLOAD DUP2 PUSH4 0xFFFFFFFF AND PUSH1 0xE0 SHL DUP2 MSTORE PUSH1 0x4 ADD PUSH1 0x20 PUSH1 0x40 MLOAD DUP1 DUP4 SUB DUP2 DUP7 DUP1 EXTCODESIZE ISZERO DUP1 ISZERO PUSH2 0x1A04 JUMPI PUSH1 0x0 DUP1 REVERT JUMPDEST POP GAS STATICCALL ISZERO DUP1 ISZERO PUSH2 0x1A18 JUMPI RETURNDATASIZE PUSH1 0x0 DUP1 RETURNDATACOPY RETURNDATASIZE PUSH1 0x0 REVERT JUMPDEST POP POP POP POP PUSH1 0x40 MLOAD RETURNDATASIZE PUSH1 0x1F NOT PUSH1 0x1F DUP3 ADD AND DUP3 ADD DUP1 PUSH1 0x40 MSTORE POP DUP2 ADD SWAP1 PUSH2 0x1A3C SWAP2 SWAP1 PUSH2 0x4BBC JUMP JUMPDEST PUSH1 0x1 PUSH1 0x1 PUSH1 0xA0 SHL SUB AND CALLER PUSH1 0x1 PUSH1 0x1 PUSH1 0xA0 SHL SUB AND EQ JUMPDEST PUSH2 0x1A6D JUMPI PUSH1 0x40 MLOAD PUSH3 0x461BCD PUSH1 0xE5 SHL DUP2 MSTORE PUSH1 0x4 ADD PUSH2 0x8D6 SWAP1 PUSH2 0x55CC JUMP JUMPDEST PUSH1 0xD SSTORE JUMP JUMPDEST PUSH1 0x9 SLOAD DUP2 JUMP JUMPDEST PUSH1 0x0 SWAP1 JUMP JUMPDEST PUSH1 0x3 SLOAD PUSH1 0x1 PUSH1 0x1 PUSH1 0xA0 SHL SUB AND CALLER EQ DUP1 PUSH2 0x1AAE JUMPI POP PUSH2 0x1A99 PUSH2 0x2A4F JUMP JUMPDEST PUSH1 0x1 PUSH1 0x1 PUSH1 0xA0 SHL SUB AND CALLER PUSH1 0x1 PUSH1 0x1 PUSH1 0xA0 SHL SUB AND EQ JUMPDEST PUSH2 0x1ACA JUMPI PUSH1 0x40 MLOAD PUSH3 0x461BCD PUSH1 0xE5 SHL DUP2 MSTORE PUSH1 0x4 ADD PUSH2 0x8D6 SWAP1 PUSH2 0x55CC JUMP JUMPDEST PUSH1 0x9 DUP2 SWAP1 SSTORE PUSH1 0x40 MLOAD PUSH32 0xD94596337DF4C2F0F44D30A7FC5DB1C7BB60D9ACA4185ED77C6FD96EB45EC298 SWAP1 PUSH2 0xC53 SWAP1 DUP4 SWAP1 PUSH2 0x5756 JUMP JUMPDEST PUSH1 0x7 SLOAD DUP2 JUMP JUMPDEST PUSH1 0x4 SLOAD PUSH1 0x1 PUSH1 0x1 PUSH1 0xA0 SHL SUB AND DUP2 JUMP JUMPDEST PUSH1 0xE SLOAD PUSH3 0x10000 SWAP1 DIV PUSH1 0xFF AND SWAP1 JUMP JUMPDEST PUSH1 0x2 PUSH1 0x0 SWAP1 SLOAD SWAP1 PUSH2 0x100 EXP SWAP1 DIV PUSH1 0x1 PUSH1 0x1 PUSH1 0xA0 SHL SUB AND PUSH1 0x1 PUSH1 0x1 PUSH1 0xA0 SHL SUB AND PUSH4 0x88A8D602 PUSH1 0x40 MLOAD DUP2 PUSH4 0xFFFFFFFF AND PUSH1 0xE0 SHL DUP2 MSTORE PUSH1 0x4 ADD PUSH1 0x20 PUSH1 0x40 MLOAD DUP1 DUP4 SUB DUP2 DUP7 DUP1 EXTCODESIZE ISZERO DUP1 ISZERO PUSH2 0x1B71 JUMPI PUSH1 0x0 DUP1 REVERT JUMPDEST POP GAS STATICCALL ISZERO DUP1 ISZERO PUSH2 0x1B85 JUMPI RETURNDATASIZE PUSH1 0x0 DUP1 RETURNDATACOPY RETURNDATASIZE PUSH1 0x0 REVERT JUMPDEST POP POP POP POP PUSH1 0x40 MLOAD RETURNDATASIZE PUSH1 0x1F NOT PUSH1 0x1F DUP3 ADD AND DUP3 ADD DUP1 PUSH1 0x40 MSTORE POP DUP2 ADD SWAP1 PUSH2 0x1BA9 SWAP2 SWAP1 PUSH2 0x4BBC JUMP JUMPDEST PUSH1 0x1 PUSH1 0x1 PUSH1 0xA0 SHL SUB AND CALLER PUSH1 0x1 PUSH1 0x1 PUSH1 0xA0 SHL SUB AND EQ DUP1 PUSH2 0x1BE0 JUMPI POP PUSH2 0x1BCB PUSH2 0x2A4F JUMP JUMPDEST PUSH1 0x1 PUSH1 0x1 PUSH1 0xA0 SHL SUB AND CALLER PUSH1 0x1 PUSH1 0x1 PUSH1 0xA0 SHL SUB AND EQ JUMPDEST PUSH2 0x1BFC JUMPI PUSH1 0x40 MLOAD PUSH3 0x461BCD PUSH1 0xE5 SHL DUP2 MSTORE PUSH1 0x4 ADD PUSH2 0x8D6 SWAP1 PUSH2 0x55CC JUMP JUMPDEST PUSH1 0x1 DUP1 SLOAD PUSH1 0xFF NOT AND SWAP2 ISZERO ISZERO SWAP2 SWAP1 SWAP2 OR SWAP1 SSTORE JUMP JUMPDEST PUSH1 0x5 SLOAD PUSH1 0x1 PUSH1 0x1 PUSH1 0xA0 SHL SUB AND DUP2 JUMP JUMPDEST PUSH1 0x1 SLOAD PUSH2 0x100 SWAP1 DIV PUSH1 0x1 PUSH1 0x1 PUSH1 0xA0 SHL SUB AND DUP2 JUMP JUMPDEST PUSH1 0xC SLOAD DUP2 JUMP JUMPDEST PUSH1 0x3 SLOAD PUSH1 0x1 PUSH1 0x1 PUSH1 0xA0 SHL SUB AND CALLER EQ DUP1 PUSH2 0x1C69 JUMPI POP PUSH2 0x1C54 PUSH2 0x2A4F JUMP JUMPDEST PUSH1 0x1 PUSH1 0x1 PUSH1 0xA0 SHL SUB AND CALLER PUSH1 0x1 PUSH1 0x1 PUSH1 0xA0 SHL SUB AND EQ JUMPDEST PUSH2 0x1C85 JUMPI PUSH1 0x40 MLOAD PUSH3 0x461BCD PUSH1 0xE5 SHL DUP2 MSTORE PUSH1 0x4 ADD PUSH2 0x8D6 SWAP1 PUSH2 0x55CC JUMP JUMPDEST PUSH1 0x1 PUSH1 0x1 PUSH1 0xA0 SHL SUB DUP2 AND PUSH2 0x1C98 JUMPI PUSH1 0x0 DUP1 REVERT JUMPDEST PUSH1 0x3 DUP1 SLOAD PUSH1 0x1 PUSH1 0x1 PUSH1 0xA0 SHL SUB NOT AND PUSH1 0x1 PUSH1 0x1 PUSH1 0xA0 SHL SUB DUP4 AND OR SWAP1 SSTORE PUSH1 0x40 MLOAD PUSH32 0x352ECECAE6D7D1E6D26BCF2C549DFD55BE1637E9B22DC0CF3B71DDB36097A6B4 SWAP1 PUSH2 0xC53 SWAP1 DUP4 SWAP1 PUSH2 0x51F4 JUMP JUMPDEST PUSH1 0x2 SLOAD PUSH1 0x1 PUSH1 0x1 PUSH1 0xA0 SHL SUB AND CALLER EQ PUSH2 0x1CFA JUMPI PUSH1 0x0 DUP1 REVERT JUMPDEST PUSH1 0x2 SLOAD PUSH1 0x40 DUP1 MLOAD PUSH4 0xFBFA77CF PUSH1 0xE0 SHL DUP2 MSTORE SWAP1 MLOAD PUSH1 0x1 PUSH1 0x1 PUSH1 0xA0 SHL SUB SWAP3 DUP4 AND SWAP3 DUP5 AND SWAP2 PUSH4 0xFBFA77CF SWAP2 PUSH1 0x4 DUP1 DUP4 ADD SWAP3 PUSH1 0x20 SWAP3 SWAP2 SWAP1 DUP3 SWAP1 SUB ADD DUP2 DUP7 DUP1 EXTCODESIZE ISZERO DUP1 ISZERO PUSH2 0x1D41 JUMPI PUSH1 0x0 DUP1 REVERT JUMPDEST POP GAS STATICCALL ISZERO DUP1 ISZERO PUSH2 0x1D55 JUMPI RETURNDATASIZE PUSH1 0x0 DUP1 RETURNDATACOPY RETURNDATASIZE PUSH1 0x0 REVERT JUMPDEST POP POP POP POP PUSH1 0x40 MLOAD RETURNDATASIZE PUSH1 0x1F NOT PUSH1 0x1F DUP3 ADD AND DUP3 ADD DUP1 PUSH1 0x40 MSTORE POP DUP2 ADD SWAP1 PUSH2 0x1D79 SWAP2 SWAP1 PUSH2 0x4BBC JUMP JUMPDEST PUSH1 0x1 PUSH1 0x1 PUSH1 0xA0 SHL SUB AND EQ PUSH2 0x1D8C JUMPI PUSH1 0x0 DUP1 REVERT JUMPDEST PUSH2 0x1D95 DUP2 PUSH2 0x382F JUMP JUMPDEST PUSH1 0x6 SLOAD PUSH1 0x40 MLOAD PUSH4 0x70A08231 PUSH1 0xE0 SHL DUP2 MSTORE PUSH2 0x1E2E SWAP2 DUP4 SWAP2 PUSH1 0x1 PUSH1 0x1 PUSH1 0xA0 SHL SUB SWAP1 SWAP2 AND SWAP1 PUSH4 0x70A08231 SWAP1 PUSH2 0x1DCB SWAP1 ADDRESS SWAP1 PUSH1 0x4 ADD PUSH2 0x51F4 JUMP JUMPDEST PUSH1 0x20 PUSH1 0x40 MLOAD DUP1 DUP4 SUB DUP2 DUP7 DUP1 EXTCODESIZE ISZERO DUP1 ISZERO PUSH2 0x1DE3 JUMPI PUSH1 0x0 DUP1 REVERT JUMPDEST POP GAS STATICCALL ISZERO DUP1 ISZERO PUSH2 0x1DF7 JUMPI RETURNDATASIZE PUSH1 0x0 DUP1 RETURNDATACOPY RETURNDATASIZE PUSH1 0x0 REVERT JUMPDEST POP POP POP POP PUSH1 0x40 MLOAD RETURNDATASIZE PUSH1 0x1F NOT PUSH1 0x1F DUP3 ADD AND DUP3 ADD DUP1 PUSH1 0x40 MSTORE POP DUP2 ADD SWAP1 PUSH2 0x1E1B SWAP2 SWAP1 PUSH2 0x4E88 JUMP JUMPDEST PUSH1 0x6 SLOAD PUSH1 0x1 PUSH1 0x1 PUSH1 0xA0 SHL SUB AND SWAP2 SWAP1 PUSH2 0x2AD1 JUMP JUMPDEST POP JUMP JUMPDEST PUSH1 0x3 SLOAD PUSH1 0x1 PUSH1 0x1 PUSH1 0xA0 SHL SUB AND CALLER EQ DUP1 PUSH2 0x1E62 JUMPI POP PUSH2 0x1E4D PUSH2 0x2A4F JUMP JUMPDEST PUSH1 0x1 PUSH1 0x1 PUSH1 0xA0 SHL SUB AND CALLER PUSH1 0x1 PUSH1 0x1 PUSH1 0xA0 SHL SUB AND EQ JUMPDEST DUP1 PUSH2 0x1F03 JUMPI POP PUSH1 0x2 PUSH1 0x0 SWAP1 SLOAD SWAP1 PUSH2 0x100 EXP SWAP1 DIV PUSH1 0x1 PUSH1 0x1 PUSH1 0xA0 SHL SUB AND PUSH1 0x1 PUSH1 0x1 PUSH1 0xA0 SHL SUB AND PUSH4 0x452A9320 PUSH1 0x40 MLOAD DUP2 PUSH4 0xFFFFFFFF AND PUSH1 0xE0 SHL DUP2 MSTORE PUSH1 0x4 ADD PUSH1 0x20 PUSH1 0x40 MLOAD DUP1 DUP4 SUB DUP2 DUP7 DUP1 EXTCODESIZE ISZERO DUP1 ISZERO PUSH2 0x1EB6 JUMPI PUSH1 0x0 DUP1 REVERT JUMPDEST POP GAS STATICCALL ISZERO DUP1 ISZERO PUSH2 0x1ECA JUMPI RETURNDATASIZE PUSH1 0x0 DUP1 RETURNDATACOPY RETURNDATASIZE PUSH1 0x0 REVERT JUMPDEST POP POP POP POP PUSH1 0x40 MLOAD RETURNDATASIZE PUSH1 0x1F NOT PUSH1 0x1F DUP3 ADD AND DUP3 ADD DUP1 PUSH1 0x40 MSTORE POP DUP2 ADD SWAP1 PUSH2 0x1EEE SWAP2 SWAP1 PUSH2 0x4BBC JUMP JUMPDEST PUSH1 0x1 PUSH1 0x1 PUSH1 0xA0 SHL SUB AND CALLER PUSH1 0x1 PUSH1 0x1 PUSH1 0xA0 SHL SUB AND EQ JUMPDEST DUP1 PUSH2 0x1FA4 JUMPI POP PUSH1 0x2 PUSH1 0x0 SWAP1 SLOAD SWAP1 PUSH2 0x100 EXP SWAP1 DIV PUSH1 0x1 PUSH1 0x1 PUSH1 0xA0 SHL SUB AND PUSH1 0x1 PUSH1 0x1 PUSH1 0xA0 SHL SUB AND PUSH4 0x88A8D602 PUSH1 0x40 MLOAD DUP2 PUSH4 0xFFFFFFFF AND PUSH1 0xE0 SHL DUP2 MSTORE PUSH1 0x4 ADD PUSH1 0x20 PUSH1 0x40 MLOAD DUP1 DUP4 SUB DUP2 DUP7 DUP1 EXTCODESIZE ISZERO DUP1 ISZERO PUSH2 0x1F57 JUMPI PUSH1 0x0 DUP1 REVERT JUMPDEST POP GAS STATICCALL ISZERO DUP1 ISZERO PUSH2 0x1F6B JUMPI RETURNDATASIZE PUSH1 0x0 DUP1 RETURNDATACOPY RETURNDATASIZE PUSH1 0x0 REVERT JUMPDEST POP POP POP POP PUSH1 0x40 MLOAD RETURNDATASIZE PUSH1 0x1F NOT PUSH1 0x1F DUP3 ADD AND DUP3 ADD DUP1 PUSH1 0x40 MSTORE POP DUP2 ADD SWAP1 PUSH2 0x1F8F SWAP2 SWAP1 PUSH2 0x4BBC JUMP JUMPDEST PUSH1 0x1 PUSH1 0x1 PUSH1 0xA0 SHL SUB AND CALLER PUSH1 0x1 PUSH1 0x1 PUSH1 0xA0 SHL SUB AND EQ JUMPDEST PUSH2 0x1FC0 JUMPI PUSH1 0x40 MLOAD PUSH3 0x461BCD PUSH1 0xE5 SHL DUP2 MSTORE PUSH1 0x4 ADD PUSH2 0x8D6 SWAP1 PUSH2 0x55CC JUMP JUMPDEST PUSH1 0xE DUP1 SLOAD PUSH2 0xFFFF NOT AND PUSH2 0xFFFF SWAP3 SWAP1 SWAP3 AND SWAP2 SWAP1 SWAP2 OR SWAP1 SSTORE JUMP JUMPDEST PUSH1 0xF SLOAD SWAP1 JUMP JUMPDEST PUSH1 0x3 SLOAD PUSH1 0x1 PUSH1 0x1 PUSH1 0xA0 SHL SUB AND CALLER EQ PUSH2 0x2008 JUMPI PUSH1 0x40 MLOAD PUSH3 0x461BCD PUSH1 0xE5 SHL DUP2 MSTORE PUSH1 0x4 ADD PUSH2 0x8D6 SWAP1 PUSH2 0x540D JUMP JUMPDEST PUSH1 0x1 PUSH1 0x1 PUSH1 0xA0 SHL SUB DUP2 AND PUSH2 0x201B JUMPI PUSH1 0x0 DUP1 REVERT JUMPDEST PUSH1 0x2 SLOAD PUSH1 0x4 DUP1 SLOAD PUSH1 0x40 MLOAD PUSH4 0x95EA7B3 PUSH1 0xE0 SHL DUP2 MSTORE PUSH1 0x1 PUSH1 0x1 PUSH1 0xA0 SHL SUB SWAP4 DUP5 AND SWAP4 PUSH4 0x95EA7B3 SWAP4 PUSH2 0x2052 SWAP4 SWAP1 SWAP2 AND SWAP2 PUSH1 0x0 SWAP2 ADD PUSH2 0x5372 JUMP JUMPDEST PUSH1 0x20 PUSH1 0x40 MLOAD DUP1 DUP4 SUB DUP2 PUSH1 0x0 DUP8 DUP1 EXTCODESIZE ISZERO DUP1 ISZERO PUSH2 0x206C JUMPI PUSH1 0x0 DUP1 REVERT JUMPDEST POP GAS CALL ISZERO DUP1 ISZERO PUSH2 0x2080 JUMPI RETURNDATASIZE PUSH1 0x0 DUP1 RETURNDATACOPY RETURNDATASIZE PUSH1 0x0 REVERT JUMPDEST POP POP POP POP PUSH1 0x40 MLOAD RETURNDATASIZE PUSH1 0x1F NOT PUSH1 0x1F DUP3 ADD AND DUP3 ADD DUP1 PUSH1 0x40 MSTORE POP DUP2 ADD SWAP1 PUSH2 0x20A4 SWAP2 SWAP1 PUSH2 0x4E6C JUMP JUMPDEST POP PUSH1 0x4 DUP1 SLOAD PUSH1 0x1 PUSH1 0x1 PUSH1 0xA0 SHL SUB NOT AND PUSH1 0x1 PUSH1 0x1 PUSH1 0xA0 SHL SUB DUP4 DUP2 AND SWAP2 SWAP1 SWAP2 OR DUP1 DUP4 SSTORE PUSH1 0x2 SLOAD PUSH1 0x40 MLOAD PUSH4 0x95EA7B3 PUSH1 0xE0 SHL DUP2 MSTORE SWAP1 DUP4 AND SWAP4 PUSH4 0x95EA7B3 SWAP4 PUSH2 0x20EF SWAP4 AND SWAP2 PUSH1 0x0 NOT SWAP2 ADD PUSH2 0x5372 JUMP JUMPDEST PUSH1 0x20 PUSH1 0x40 MLOAD DUP1 DUP4 SUB DUP2 PUSH1 0x0 DUP8 DUP1 EXTCODESIZE ISZERO DUP1 ISZERO PUSH2 0x2109 JUMPI PUSH1 0x0 DUP1 REVERT JUMPDEST POP GAS CALL ISZERO DUP1 ISZERO PUSH2 0x211D JUMPI RETURNDATASIZE PUSH1 0x0 DUP1 RETURNDATACOPY RETURNDATASIZE PUSH1 0x0 REVERT JUMPDEST POP POP POP POP PUSH1 0x40 MLOAD RETURNDATASIZE PUSH1 0x1F NOT PUSH1 0x1F DUP3 ADD AND DUP3 ADD DUP1 PUSH1 0x40 MSTORE POP DUP2 ADD SWAP1 PUSH2 0x2141 SWAP2 SWAP1 PUSH2 0x4E6C JUMP JUMPDEST POP PUSH32 0xAFBB66ABF8F3B719799940473A4052A3717CDD8E40FB6C8A3FAADAB316B1A069 DUP2 PUSH1 0x40 MLOAD PUSH2 0xC53 SWAP2 SWAP1 PUSH2 0x51F4 JUMP JUMPDEST PUSH1 0x0 DUP1 PUSH2 0x217D DUP4 PUSH2 0x18BE JUMP JUMPDEST SWAP1 POP PUSH2 0x2187 PUSH2 0x48D9 JUMP JUMPDEST PUSH1 0x2 SLOAD PUSH1 0x40 MLOAD PUSH4 0x39EBF823 PUSH1 0xE0 SHL DUP2 MSTORE PUSH1 0x1 PUSH1 0x1 PUSH1 0xA0 SHL SUB SWAP1 SWAP2 AND SWAP1 PUSH4 0x39EBF823 SWAP1 PUSH2 0x21B7 SWAP1 ADDRESS SWAP1 PUSH1 0x4 ADD PUSH2 0x51F4 JUMP JUMPDEST PUSH2 0x120 PUSH1 0x40 MLOAD DUP1 DUP4 SUB DUP2 DUP7 DUP1 EXTCODESIZE ISZERO DUP1 ISZERO PUSH2 0x21D0 JUMPI PUSH1 0x0 DUP1 REVERT JUMPDEST POP GAS STATICCALL ISZERO DUP1 ISZERO PUSH2 0x21E4 JUMPI RETURNDATASIZE PUSH1 0x0 DUP1 RETURNDATACOPY RETURNDATASIZE PUSH1 0x0 REVERT JUMPDEST POP POP POP POP PUSH1 0x40 MLOAD RETURNDATASIZE PUSH1 0x1F NOT PUSH1 0x1F DUP3 ADD AND DUP3 ADD DUP1 PUSH1 0x40 MSTORE POP DUP2 ADD SWAP1 PUSH2 0x2208 SWAP2 SWAP1 PUSH2 0x4FC3 JUMP JUMPDEST SWAP1 POP DUP1 PUSH1 0x20 ADD MLOAD PUSH1 0x0 EQ ISZERO PUSH2 0x2222 JUMPI PUSH1 0x0 SWAP3 POP POP POP PUSH2 0x176E JUMP JUMPDEST PUSH1 0x7 SLOAD PUSH1 0xA0 DUP3 ADD MLOAD PUSH2 0x2235 SWAP1 TIMESTAMP SWAP1 PUSH2 0x35D9 JUMP JUMPDEST LT ISZERO PUSH2 0x2246 JUMPI PUSH1 0x0 SWAP3 POP POP POP PUSH2 0x176E JUMP JUMPDEST PUSH1 0x8 SLOAD PUSH1 0xA0 DUP3 ADD MLOAD PUSH2 0x2259 SWAP1 TIMESTAMP SWAP1 PUSH2 0x35D9 JUMP JUMPDEST LT PUSH2 0x2269 JUMPI PUSH1 0x1 SWAP3 POP POP POP PUSH2 0x176E JUMP JUMPDEST PUSH1 0x2 SLOAD PUSH1 0x40 DUP1 MLOAD PUSH4 0xBF3759B5 PUSH1 0xE0 SHL DUP2 MSTORE SWAP1 MLOAD PUSH1 0x0 SWAP3 PUSH1 0x1 PUSH1 0x1 PUSH1 0xA0 SHL SUB AND SWAP2 PUSH4 0xBF3759B5 SWAP2 PUSH1 0x4 DUP1 DUP4 ADD SWAP3 PUSH1 0x20 SWAP3 SWAP2 SWAP1 DUP3 SWAP1 SUB ADD DUP2 DUP7 DUP1 EXTCODESIZE ISZERO DUP1 ISZERO PUSH2 0x22AE JUMPI PUSH1 0x0 DUP1 REVERT JUMPDEST POP GAS STATICCALL ISZERO DUP1 ISZERO PUSH2 0x22C2 JUMPI RETURNDATASIZE PUSH1 0x0 DUP1 RETURNDATACOPY RETURNDATASIZE PUSH1 0x0 REVERT JUMPDEST POP POP POP POP PUSH1 0x40 MLOAD RETURNDATASIZE PUSH1 0x1F NOT PUSH1 0x1F DUP3 ADD AND DUP3 ADD DUP1 PUSH1 0x40 MSTORE POP DUP2 ADD SWAP1 PUSH2 0x22E6 SWAP2 SWAP1 PUSH2 0x4E88 JUMP JUMPDEST SWAP1 POP PUSH1 0xA SLOAD DUP2 GT ISZERO PUSH2 0x22FE JUMPI PUSH1 0x1 SWAP4 POP POP POP POP PUSH2 0x176E JUMP JUMPDEST PUSH1 0x0 PUSH2 0x2308 PUSH2 0x23FB JUMP JUMPDEST SWAP1 POP DUP3 PUSH1 0xC0 ADD MLOAD PUSH2 0x2324 PUSH1 0xA SLOAD DUP4 PUSH2 0x3A33 SWAP1 SWAP2 SWAP1 PUSH4 0xFFFFFFFF AND JUMP JUMPDEST LT ISZERO PUSH2 0x2337 JUMPI PUSH1 0x1 SWAP5 POP POP POP POP POP PUSH2 0x176E JUMP JUMPDEST PUSH1 0x0 DUP4 PUSH1 0xC0 ADD MLOAD DUP3 GT ISZERO PUSH2 0x2358 JUMPI PUSH1 0xC0 DUP5 ADD MLOAD PUSH2 0x2355 SWAP1 DUP4 SWAP1 PUSH2 0x35D9 JUMP JUMPDEST SWAP1 POP JUMPDEST PUSH1 0x2 SLOAD PUSH1 0x40 DUP1 MLOAD PUSH4 0x112C1F9B PUSH1 0xE0 SHL DUP2 MSTORE SWAP1 MLOAD PUSH1 0x0 SWAP3 PUSH1 0x1 PUSH1 0x1 PUSH1 0xA0 SHL SUB AND SWAP2 PUSH4 0x112C1F9B SWAP2 PUSH1 0x4 DUP1 DUP4 ADD SWAP3 PUSH1 0x20 SWAP3 SWAP2 SWAP1 DUP3 SWAP1 SUB ADD DUP2 DUP7 DUP1 EXTCODESIZE ISZERO DUP1 ISZERO PUSH2 0x239D JUMPI PUSH1 0x0 DUP1 REVERT JUMPDEST POP GAS STATICCALL ISZERO DUP1 ISZERO PUSH2 0x23B1 JUMPI RETURNDATASIZE PUSH1 0x0 DUP1 RETURNDATACOPY RETURNDATASIZE PUSH1 0x0 REVERT JUMPDEST POP POP POP POP PUSH1 0x40 MLOAD RETURNDATASIZE PUSH1 0x1F NOT PUSH1 0x1F DUP3 ADD AND DUP3 ADD DUP1 PUSH1 0x40 MSTORE POP DUP2 ADD SWAP1 PUSH2 0x23D5 SWAP2 SWAP1 PUSH2 0x4E88 JUMP JUMPDEST SWAP1 POP PUSH2 0x23E1 DUP2 DUP4 PUSH2 0x3A33 JUMP JUMPDEST PUSH1 0x9 SLOAD PUSH2 0x23EE SWAP1 DUP9 PUSH2 0x29B5 JUMP JUMPDEST LT SWAP9 SWAP8 POP POP POP POP POP POP POP POP JUMP JUMPDEST PUSH1 0x0 PUSH2 0xE48 PUSH2 0x2408 PUSH2 0x3A58 JUMP JUMPDEST PUSH2 0x2410 PUSH2 0x3D1D JUMP JUMPDEST SWAP1 PUSH2 0x3A33 JUMP JUMPDEST PUSH1 0x3 SLOAD PUSH1 0x1 PUSH1 0x1 PUSH1 0xA0 SHL SUB AND CALLER EQ DUP1 PUSH2 0x2447 JUMPI POP PUSH2 0x2432 PUSH2 0x2A4F JUMP JUMPDEST PUSH1 0x1 PUSH1 0x1 PUSH1 0xA0 SHL SUB AND CALLER PUSH1 0x1 PUSH1 0x1 PUSH1 0xA0 SHL SUB AND EQ JUMPDEST PUSH2 0x2463 JUMPI PUSH1 0x40 MLOAD PUSH3 0x461BCD PUSH1 0xE5 SHL DUP2 MSTORE PUSH1 0x4 ADD PUSH2 0x8D6 SWAP1 PUSH2 0x55CC JUMP JUMPDEST PUSH1 0x8 DUP2 SWAP1 SSTORE PUSH1 0x40 MLOAD PUSH32 0x5430E11864AD7AA9775B07D12657FE52DF9AA2BA734355BD8EF8747BE2C800C5 SWAP1 PUSH2 0xC53 SWAP1 DUP4 SWAP1 PUSH2 0x5756 JUMP JUMPDEST PUSH1 0x3 SLOAD PUSH1 0x1 PUSH1 0x1 PUSH1 0xA0 SHL SUB AND CALLER EQ DUP1 PUSH2 0x24C9 JUMPI POP PUSH2 0x24B4 PUSH2 0x2A4F JUMP JUMPDEST PUSH1 0x1 PUSH1 0x1 PUSH1 0xA0 SHL SUB AND CALLER PUSH1 0x1 PUSH1 0x1 PUSH1 0xA0 SHL SUB AND EQ JUMPDEST DUP1 PUSH2 0x256A JUMPI POP PUSH1 0x2 PUSH1 0x0 SWAP1 SLOAD SWAP1 PUSH2 0x100 EXP SWAP1 DIV PUSH1 0x1 PUSH1 0x1 PUSH1 0xA0 SHL SUB AND PUSH1 0x1 PUSH1 0x1 PUSH1 0xA0 SHL SUB AND PUSH4 0x452A9320 PUSH1 0x40 MLOAD DUP2 PUSH4 0xFFFFFFFF AND PUSH1 0xE0 SHL DUP2 MSTORE PUSH1 0x4 ADD PUSH1 0x20 PUSH1 0x40 MLOAD DUP1 DUP4 SUB DUP2 DUP7 DUP1 EXTCODESIZE ISZERO DUP1 ISZERO PUSH2 0x251D JUMPI PUSH1 0x0 DUP1 REVERT JUMPDEST POP GAS STATICCALL ISZERO DUP1 ISZERO PUSH2 0x2531 JUMPI RETURNDATASIZE PUSH1 0x0 DUP1 RETURNDATACOPY RETURNDATASIZE PUSH1 0x0 REVERT JUMPDEST POP POP POP POP PUSH1 0x40 MLOAD RETURNDATASIZE PUSH1 0x1F NOT PUSH1 0x1F DUP3 ADD AND DUP3 ADD DUP1 PUSH1 0x40 MSTORE POP DUP2 ADD SWAP1 PUSH2 0x2555 SWAP2 SWAP1 PUSH2 0x4BBC JUMP JUMPDEST PUSH1 0x1 PUSH1 0x1 PUSH1 0xA0 SHL SUB AND CALLER PUSH1 0x1 PUSH1 0x1 PUSH1 0xA0 SHL SUB AND EQ JUMPDEST DUP1 PUSH2 0x260B JUMPI POP PUSH1 0x2 PUSH1 0x0 SWAP1 SLOAD SWAP1 PUSH2 0x100 EXP SWAP1 DIV PUSH1 0x1 PUSH1 0x1 PUSH1 0xA0 SHL SUB AND PUSH1 0x1 PUSH1 0x1 PUSH1 0xA0 SHL SUB AND PUSH4 0x88A8D602 PUSH1 0x40 MLOAD DUP2 PUSH4 0xFFFFFFFF AND PUSH1 0xE0 SHL DUP2 MSTORE PUSH1 0x4 ADD PUSH1 0x20 PUSH1 0x40 MLOAD DUP1 DUP4 SUB DUP2 DUP7 DUP1 EXTCODESIZE ISZERO DUP1 ISZERO PUSH2 0x25BE JUMPI PUSH1 0x0 DUP1 REVERT JUMPDEST POP GAS STATICCALL ISZERO DUP1 ISZERO PUSH2 0x25D2 JUMPI RETURNDATASIZE PUSH1 0x0 DUP1 RETURNDATACOPY RETURNDATASIZE PUSH1 0x0 REVERT JUMPDEST POP POP POP POP PUSH1 0x40 MLOAD RETURNDATASIZE PUSH1 0x1F NOT PUSH1 0x1F DUP3 ADD AND DUP3 ADD DUP1 PUSH1 0x40 MSTORE POP DUP2 ADD SWAP1 PUSH2 0x25F6 SWAP2 SWAP1 PUSH2 0x4BBC JUMP JUMPDEST PUSH1 0x1 PUSH1 0x1 PUSH1 0xA0 SHL SUB AND CALLER PUSH1 0x1 PUSH1 0x1 PUSH1 0xA0 SHL SUB AND EQ JUMPDEST PUSH2 0x2627 JUMPI PUSH1 0x40 MLOAD PUSH3 0x461BCD PUSH1 0xE5 SHL DUP2 MSTORE PUSH1 0x4 ADD PUSH2 0x8D6 SWAP1 PUSH2 0x55CC JUMP JUMPDEST PUSH1 0xE DUP1 SLOAD SWAP2 ISZERO ISZERO PUSH3 0x10000 MUL PUSH3 0xFF0000 NOT SWAP1 SWAP3 AND SWAP2 SWAP1 SWAP2 OR SWAP1 SSTORE JUMP JUMPDEST PUSH32 0xF23A6E612E1FF4830E658FE43F4E3CB4A5F8170BD5D9E69FB5D7A7FA9E4FDF97 SWAP7 SWAP6 POP POP POP POP POP POP JUMP JUMPDEST PUSH1 0xB SLOAD PUSH2 0x100 SWAP1 DIV PUSH1 0x1 PUSH1 0x1 PUSH1 0xA0 SHL SUB AND DUP2 JUMP JUMPDEST PUSH1 0x2 SLOAD PUSH1 0x1 PUSH1 0x1 PUSH1 0xA0 SHL SUB AND DUP2 JUMP JUMPDEST PUSH1 0x3 SLOAD PUSH1 0x1 PUSH1 0x1 PUSH1 0xA0 SHL SUB AND CALLER EQ DUP1 PUSH2 0x26C2 JUMPI POP PUSH2 0x26AD PUSH2 0x2A4F JUMP JUMPDEST PUSH1 0x1 PUSH1 0x1 PUSH1 0xA0 SHL SUB AND CALLER PUSH1 0x1 PUSH1 0x1 PUSH1 0xA0 SHL SUB AND EQ JUMPDEST DUP1 PUSH2 0x2763 JUMPI POP PUSH1 0x2 PUSH1 0x0 SWAP1 SLOAD SWAP1 PUSH2 0x100 EXP SWAP1 DIV PUSH1 0x1 PUSH1 0x1 PUSH1 0xA0 SHL SUB AND PUSH1 0x1 PUSH1 0x1 PUSH1 0xA0 SHL SUB AND PUSH4 0x452A9320 PUSH1 0x40 MLOAD DUP2 PUSH4 0xFFFFFFFF AND PUSH1 0xE0 SHL DUP2 MSTORE PUSH1 0x4 ADD PUSH1 0x20 PUSH1 0x40 MLOAD DUP1 DUP4 SUB DUP2 DUP7 DUP1 EXTCODESIZE ISZERO DUP1 ISZERO PUSH2 0x2716 JUMPI PUSH1 0x0 DUP1 REVERT JUMPDEST POP GAS STATICCALL ISZERO DUP1 ISZERO PUSH2 0x272A JUMPI RETURNDATASIZE PUSH1 0x0 DUP1 RETURNDATACOPY RETURNDATASIZE PUSH1 0x0 REVERT JUMPDEST POP POP POP POP PUSH1 0x40 MLOAD RETURNDATASIZE PUSH1 0x1F NOT PUSH1 0x1F DUP3 ADD AND DUP3 ADD DUP1 PUSH1 0x40 MSTORE POP DUP2 ADD SWAP1 PUSH2 0x274E SWAP2 SWAP1 PUSH2 0x4BBC JUMP JUMPDEST PUSH1 0x1 PUSH1 0x1 PUSH1 0xA0 SHL SUB AND CALLER PUSH1 0x1 PUSH1 0x1 PUSH1 0xA0 SHL SUB AND EQ JUMPDEST DUP1 PUSH2 0x2804 JUMPI POP PUSH1 0x2 PUSH1 0x0 SWAP1 SLOAD SWAP1 PUSH2 0x100 EXP SWAP1 DIV PUSH1 0x1 PUSH1 0x1 PUSH1 0xA0 SHL SUB AND PUSH1 0x1 PUSH1 0x1 PUSH1 0xA0 SHL SUB AND PUSH4 0x88A8D602 PUSH1 0x40 MLOAD DUP2 PUSH4 0xFFFFFFFF AND PUSH1 0xE0 SHL DUP2 MSTORE PUSH1 0x4 ADD PUSH1 0x20 PUSH1 0x40 MLOAD DUP1 DUP4 SUB DUP2 DUP7 DUP1 EXTCODESIZE ISZERO DUP1 ISZERO PUSH2 0x27B7 JUMPI PUSH1 0x0 DUP1 REVERT JUMPDEST POP GAS STATICCALL ISZERO DUP1 ISZERO PUSH2 0x27CB JUMPI RETURNDATASIZE PUSH1 0x0 DUP1 RETURNDATACOPY RETURNDATASIZE PUSH1 0x0 REVERT JUMPDEST POP POP POP POP PUSH1 0x40 MLOAD RETURNDATASIZE PUSH1 0x1F NOT PUSH1 0x1F DUP3 ADD AND DUP3 ADD DUP1 PUSH1 0x40 MSTORE POP DUP2 ADD SWAP1 PUSH2 0x27EF SWAP2 SWAP1 PUSH2 0x4BBC JUMP JUMPDEST PUSH1 0x1 PUSH1 0x1 PUSH1 0xA0 SHL SUB AND CALLER PUSH1 0x1 PUSH1 0x1 PUSH1 0xA0 SHL SUB AND EQ JUMPDEST PUSH2 0x2820 JUMPI PUSH1 0x40 MLOAD PUSH3 0x461BCD PUSH1 0xE5 SHL DUP2 MSTORE PUSH1 0x4 ADD PUSH2 0x8D6 SWAP1 PUSH2 0x55CC JUMP JUMPDEST PUSH1 0xB DUP1 SLOAD PUSH1 0xFF NOT AND PUSH1 0x1 OR SWAP1 SSTORE PUSH1 0x2 SLOAD PUSH1 0x40 DUP1 MLOAD PUSH4 0x507257CD PUSH1 0xE1 SHL DUP2 MSTORE SWAP1 MLOAD PUSH1 0x1 PUSH1 0x1 PUSH1 0xA0 SHL SUB SWAP1 SWAP3 AND SWAP2 PUSH4 0xA0E4AF9A SWAP2 PUSH1 0x4 DUP1 DUP3 ADD SWAP3 PUSH1 0x0 SWAP3 SWAP1 SWAP2 SWAP1 DUP3 SWAP1 SUB ADD DUP2 DUP4 DUP8 DUP1 EXTCODESIZE ISZERO DUP1 ISZERO PUSH2 0x2873 JUMPI PUSH1 0x0 DUP1 REVERT JUMPDEST POP GAS CALL ISZERO DUP1 ISZERO PUSH2 0x2887 JUMPI RETURNDATASIZE PUSH1 0x0 DUP1 RETURNDATACOPY RETURNDATASIZE PUSH1 0x0 REVERT JUMPDEST POP POP PUSH1 0x40 MLOAD PUSH32 0x97E963041E952738788B9D4871D854D282065B8F90A464928D6528F2E9A4FD0B SWAP3 POP PUSH1 0x0 SWAP2 POP LOG1 JUMP JUMPDEST DUP1 ISZERO DUP1 PUSH2 0x293E JUMPI POP PUSH1 0x40 MLOAD PUSH4 0x6EB1769F PUSH1 0xE1 SHL DUP2 MSTORE PUSH1 0x1 PUSH1 0x1 PUSH1 0xA0 SHL SUB DUP5 AND SWAP1 PUSH4 0xDD62ED3E SWAP1 PUSH2 0x28EC SWAP1 ADDRESS SWAP1 DUP7 SWAP1 PUSH1 0x4 ADD PUSH2 0x531A JUMP JUMPDEST PUSH1 0x20 PUSH1 0x40 MLOAD DUP1 DUP4 SUB DUP2 DUP7 DUP1 EXTCODESIZE ISZERO DUP1 ISZERO PUSH2 0x2904 JUMPI PUSH1 0x0 DUP1 REVERT JUMPDEST POP GAS STATICCALL ISZERO DUP1 ISZERO PUSH2 0x2918 JUMPI RETURNDATASIZE PUSH1 0x0 DUP1 RETURNDATACOPY RETURNDATASIZE PUSH1 0x0 REVERT JUMPDEST POP POP POP POP PUSH1 0x40 MLOAD RETURNDATASIZE PUSH1 0x1F NOT PUSH1 0x1F DUP3 ADD AND DUP3 ADD DUP1 PUSH1 0x40 MSTORE POP DUP2 ADD SWAP1 PUSH2 0x293C SWAP2 SWAP1 PUSH2 0x4E88 JUMP JUMPDEST ISZERO JUMPDEST PUSH2 0x295A JUMPI PUSH1 0x40 MLOAD PUSH3 0x461BCD PUSH1 0xE5 SHL DUP2 MSTORE PUSH1 0x4 ADD PUSH2 0x8D6 SWAP1 PUSH2 0x565F JUMP JUMPDEST PUSH2 0x29B0 DUP4 PUSH4 0x95EA7B3 PUSH1 0xE0 SHL DUP5 DUP5 PUSH1 0x40 MLOAD PUSH1 0x24 ADD PUSH2 0x2979 SWAP3 SWAP2 SWAP1 PUSH2 0x5372 JUMP JUMPDEST PUSH1 0x40 DUP1 MLOAD PUSH1 0x1F NOT DUP2 DUP5 SUB ADD DUP2 MSTORE SWAP2 SWAP1 MSTORE PUSH1 0x20 DUP2 ADD DUP1 MLOAD PUSH1 0x1 PUSH1 0x1 PUSH1 0xE0 SHL SUB AND PUSH1 0x1 PUSH1 0x1 PUSH1 0xE0 SHL SUB NOT SWAP1 SWAP4 AND SWAP3 SWAP1 SWAP3 OR SWAP1 SWAP2 MSTORE PUSH2 0x3D9E JUMP JUMPDEST POP POP POP JUMP JUMPDEST PUSH1 0x0 DUP3 PUSH2 0x29C4 JUMPI POP PUSH1 0x0 PUSH2 0x18D8 JUMP JUMPDEST DUP3 DUP3 MUL DUP3 DUP5 DUP3 DUP2 PUSH2 0x29D1 JUMPI INVALID JUMPDEST DIV EQ PUSH2 0x29EF JUMPI PUSH1 0x40 MLOAD PUSH3 0x461BCD PUSH1 0xE5 SHL DUP2 MSTORE PUSH1 0x4 ADD PUSH2 0x8D6 SWAP1 PUSH2 0x5513 JUMP JUMPDEST SWAP4 SWAP3 POP POP POP JUMP JUMPDEST PUSH1 0x0 PUSH2 0x29EF DUP4 DUP4 PUSH1 0x40 MLOAD DUP1 PUSH1 0x40 ADD PUSH1 0x40 MSTORE DUP1 PUSH1 0x1A DUP2 MSTORE PUSH1 0x20 ADD PUSH32 0x536166654D6174683A206469766973696F6E206279207A65726F000000000000 DUP2 MSTORE POP PUSH2 0x3E2D JUMP JUMPDEST PUSH1 0x60 PUSH2 0x2A47 DUP5 DUP5 PUSH1 0x0 DUP6 PUSH2 0x3E64 JUMP JUMPDEST SWAP5 SWAP4 POP POP POP POP JUMP JUMPDEST PUSH1 0x2 SLOAD PUSH1 0x40 DUP1 MLOAD PUSH4 0x5AA6E675 PUSH1 0xE0 SHL DUP2 MSTORE SWAP1 MLOAD PUSH1 0x0 SWAP3 PUSH1 0x1 PUSH1 0x1 PUSH1 0xA0 SHL SUB AND SWAP2 PUSH4 0x5AA6E675 SWAP2 PUSH1 0x4 DUP1 DUP4 ADD SWAP3 PUSH1 0x20 SWAP3 SWAP2 SWAP1 DUP3 SWAP1 SUB ADD DUP2 DUP7 DUP1 EXTCODESIZE ISZERO DUP1 ISZERO PUSH2 0x2A94 JUMPI PUSH1 0x0 DUP1 REVERT JUMPDEST POP GAS STATICCALL ISZERO DUP1 ISZERO PUSH2 0x2AA8 JUMPI RETURNDATASIZE PUSH1 0x0 DUP1 RETURNDATACOPY RETURNDATASIZE PUSH1 0x0 REVERT JUMPDEST POP POP POP POP PUSH1 0x40 MLOAD RETURNDATASIZE PUSH1 0x1F NOT PUSH1 0x1F DUP3 ADD AND DUP3 ADD DUP1 PUSH1 0x40 MSTORE POP DUP2 ADD SWAP1 PUSH2 0xE48 SWAP2 SWAP1 PUSH2 0x4BBC JUMP JUMPDEST PUSH1 0x60 SWAP1 JUMP JUMPDEST PUSH2 0x29B0 DUP4 PUSH4 0xA9059CBB PUSH1 0xE0 SHL DUP5 DUP5 PUSH1 0x40 MLOAD PUSH1 0x24 ADD PUSH2 0x2979 SWAP3 SWAP2 SWAP1 PUSH2 0x5372 JUMP JUMPDEST PUSH1 0x6 SLOAD PUSH1 0x1 PUSH1 0x1 PUSH1 0xA0 SHL SUB AND ISZERO PUSH2 0x2B19 JUMPI PUSH1 0x40 MLOAD PUSH3 0x461BCD PUSH1 0xE5 SHL DUP2 MSTORE PUSH1 0x4 ADD PUSH2 0x8D6 SWAP1 PUSH2 0x54DC JUMP JUMPDEST PUSH1 0x2 DUP1 SLOAD PUSH1 0x1 PUSH1 0x1 PUSH1 0xA0 SHL SUB NOT AND PUSH1 0x1 PUSH1 0x1 PUSH1 0xA0 SHL SUB DUP7 DUP2 AND SWAP2 SWAP1 SWAP2 OR SWAP2 DUP3 SWAP1 SSTORE PUSH1 0x40 DUP1 MLOAD PUSH4 0x7E062A35 PUSH1 0xE1 SHL DUP2 MSTORE SWAP1 MLOAD SWAP3 SWAP1 SWAP2 AND SWAP2 PUSH4 0xFC0C546A SWAP2 PUSH1 0x4 DUP1 DUP3 ADD SWAP3 PUSH1 0x20 SWAP3 SWAP1 SWAP2 SWAP1 DUP3 SWAP1 SUB ADD DUP2 DUP7 DUP1 EXTCODESIZE ISZERO DUP1 ISZERO PUSH2 0x2B75 JUMPI PUSH1 0x0 DUP1 REVERT JUMPDEST POP GAS STATICCALL ISZERO DUP1 ISZERO PUSH2 0x2B89 JUMPI RETURNDATASIZE PUSH1 0x0 DUP1 RETURNDATACOPY RETURNDATASIZE PUSH1 0x0 REVERT JUMPDEST POP POP POP POP PUSH1 0x40 MLOAD RETURNDATASIZE PUSH1 0x1F NOT PUSH1 0x1F DUP3 ADD AND DUP3 ADD DUP1 PUSH1 0x40 MSTORE POP DUP2 ADD SWAP1 PUSH2 0x2BAD SWAP2 SWAP1 PUSH2 0x4BBC JUMP JUMPDEST PUSH1 0x6 DUP1 SLOAD PUSH1 0x1 PUSH1 0x1 PUSH1 0xA0 SHL SUB NOT AND PUSH1 0x1 PUSH1 0x1 PUSH1 0xA0 SHL SUB SWAP3 DUP4 AND OR SWAP1 DUP2 SWAP1 SSTORE PUSH2 0x2BD9 SWAP2 AND DUP6 PUSH1 0x0 NOT PUSH2 0x28B6 JUMP JUMPDEST PUSH1 0x3 DUP1 SLOAD PUSH1 0x1 PUSH1 0x1 PUSH1 0xA0 SHL SUB DUP1 DUP7 AND PUSH1 0x1 PUSH1 0x1 PUSH1 0xA0 SHL SUB NOT SWAP3 DUP4 AND OR SWAP1 SWAP3 SSTORE PUSH1 0x4 DUP1 SLOAD DUP6 DUP5 AND SWAP1 DUP4 AND OR DUP1 DUP3 SSTORE PUSH1 0x5 DUP1 SLOAD DUP7 DUP7 AND SWAP5 AND SWAP4 SWAP1 SWAP4 OR SWAP1 SWAP3 SSTORE PUSH1 0x0 PUSH1 0x7 DUP2 SWAP1 SSTORE PUSH3 0x15180 PUSH1 0x8 SSTORE PUSH1 0x64 PUSH1 0x9 SSTORE PUSH1 0xA SSTORE PUSH1 0x2 SLOAD PUSH1 0x40 MLOAD PUSH4 0x95EA7B3 PUSH1 0xE0 SHL DUP2 MSTORE SWAP1 DUP5 AND SWAP4 PUSH4 0x95EA7B3 SWAP4 PUSH2 0x2C57 SWAP4 SWAP2 AND SWAP2 PUSH1 0x0 NOT SWAP2 ADD PUSH2 0x5372 JUMP JUMPDEST PUSH1 0x20 PUSH1 0x40 MLOAD DUP1 DUP4 SUB DUP2 PUSH1 0x0 DUP8 DUP1 EXTCODESIZE ISZERO DUP1 ISZERO PUSH2 0x2C71 JUMPI PUSH1 0x0 DUP1 REVERT JUMPDEST POP GAS CALL ISZERO DUP1 ISZERO PUSH2 0x2C85 JUMPI RETURNDATASIZE PUSH1 0x0 DUP1 RETURNDATACOPY RETURNDATASIZE PUSH1 0x0 REVERT JUMPDEST POP POP POP POP PUSH1 0x40 MLOAD RETURNDATASIZE PUSH1 0x1F NOT PUSH1 0x1F DUP3 ADD AND DUP3 ADD DUP1 PUSH1 0x40 MSTORE POP DUP2 ADD SWAP1 PUSH2 0x2CA9 SWAP2 SWAP1 PUSH2 0x4E6C JUMP JUMPDEST POP POP POP POP POP JUMP JUMPDEST PUSH1 0xB DUP1 SLOAD PUSH2 0xFFFF PUSH1 0xA8 SHL NOT AND PUSH1 0x1 PUSH1 0xA8 SHL PUSH2 0xFFFF DUP5 AND MUL OR PUSH2 0x100 PUSH1 0x1 PUSH1 0xA8 SHL SUB NOT AND PUSH2 0x100 PUSH1 0x1 PUSH1 0x1 PUSH1 0xA0 SHL SUB DUP6 AND MUL OR SWAP1 SSTORE PUSH2 0x2CEC PUSH2 0x4925 JUMP JUMPDEST PUSH2 0x2CF4 PUSH2 0x4925 JUMP JUMPDEST PUSH1 0x40 MLOAD PUSH4 0x275D68C7 PUSH1 0xE1 SHL DUP2 MSTORE PUSH1 0x1 PUSH1 0x1 PUSH1 0xA0 SHL SUB DUP6 AND SWAP1 PUSH4 0x4EBAD18E SWAP1 PUSH2 0x2D20 SWAP1 DUP7 SWAP1 PUSH1 0x4 ADD PUSH2 0x56B5 JUMP JUMPDEST PUSH2 0x140 PUSH1 0x40 MLOAD DUP1 DUP4 SUB DUP2 DUP7 DUP1 EXTCODESIZE ISZERO DUP1 ISZERO PUSH2 0x2D39 JUMPI PUSH1 0x0 DUP1 REVERT JUMPDEST POP GAS STATICCALL ISZERO DUP1 ISZERO PUSH2 0x2D4D JUMPI RETURNDATASIZE PUSH1 0x0 DUP1 RETURNDATACOPY RETURNDATASIZE PUSH1 0x0 REVERT JUMPDEST POP POP POP POP PUSH1 0x40 MLOAD RETURNDATASIZE PUSH1 0x1F NOT PUSH1 0x1F DUP3 ADD AND DUP3 ADD DUP1 PUSH1 0x40 MSTORE POP DUP2 ADD SWAP1 PUSH2 0x2D71 SWAP2 SWAP1 PUSH2 0x5041 JUMP JUMPDEST SWAP2 POP SWAP2 POP PUSH2 0x2D9C DUP3 PUSH1 0x40 ADD MLOAD PUSH2 0x2D96 PUSH2 0x2710 DUP5 PUSH1 0x40 ADD MLOAD PUSH2 0x29B5 SWAP1 SWAP2 SWAP1 PUSH4 0xFFFFFFFF AND JUMP JUMPDEST SWAP1 PUSH2 0x29F6 JUMP JUMPDEST PUSH1 0xC SSTORE PUSH1 0xE DUP1 SLOAD PUSH3 0xFF0000 NOT AND SWAP1 SSTORE PUSH2 0xFFFF DUP4 AND PUSH1 0x1 EQ ISZERO PUSH2 0x2DD2 JUMPI DUP1 MLOAD PUSH1 0x1 PUSH1 0x1 PUSH1 0xA0 SHL SUB AND ISZERO PUSH2 0x2DCD JUMPI PUSH1 0x0 DUP1 REVERT JUMPDEST PUSH2 0x2DEE JUMP JUMPDEST DUP1 MLOAD PUSH1 0x6 SLOAD PUSH1 0x1 PUSH1 0x1 PUSH1 0xA0 SHL SUB SWAP1 DUP2 AND SWAP2 AND EQ PUSH2 0x2DEE JUMPI PUSH1 0x0 DUP1 REVERT JUMPDEST POP POP POP POP JUMP JUMPDEST PUSH1 0x0 DUP1 PUSH2 0x2DFF PUSH2 0x3F28 JUMP JUMPDEST PUSH1 0x0 PUSH2 0x2E09 PUSH2 0x3D1D JUMP JUMPDEST SWAP1 POP DUP4 DUP2 LT PUSH2 0x2E1F JUMPI DUP4 PUSH1 0x0 SWAP3 POP SWAP3 POP POP PUSH2 0x32F4 JUMP JUMPDEST PUSH1 0x0 PUSH2 0x2E29 PUSH2 0x41F3 JUMP JUMPDEST SWAP2 POP PUSH1 0x0 SWAP1 POP PUSH2 0x2E39 DUP7 DUP5 PUSH2 0x35D9 JUMP JUMPDEST PUSH1 0x2 SLOAD PUSH1 0x40 MLOAD PUSH4 0x39EBF823 PUSH1 0xE0 SHL DUP2 MSTORE SWAP2 SWAP3 POP PUSH1 0x0 SWAP2 PUSH1 0x1 PUSH1 0x1 PUSH1 0xA0 SHL SUB SWAP1 SWAP2 AND SWAP1 PUSH4 0x39EBF823 SWAP1 PUSH2 0x2E6F SWAP1 ADDRESS SWAP1 PUSH1 0x4 ADD PUSH2 0x51F4 JUMP JUMPDEST PUSH2 0x120 PUSH1 0x40 MLOAD DUP1 DUP4 SUB DUP2 DUP7 DUP1 EXTCODESIZE ISZERO DUP1 ISZERO PUSH2 0x2E88 JUMPI PUSH1 0x0 DUP1 REVERT JUMPDEST POP GAS STATICCALL ISZERO DUP1 ISZERO PUSH2 0x2E9C JUMPI RETURNDATASIZE PUSH1 0x0 DUP1 RETURNDATACOPY RETURNDATASIZE PUSH1 0x0 REVERT JUMPDEST POP POP POP POP PUSH1 0x40 MLOAD RETURNDATASIZE PUSH1 0x1F NOT PUSH1 0x1F DUP3 ADD AND DUP3 ADD DUP1 PUSH1 0x40 MSTORE POP DUP2 ADD SWAP1 PUSH2 0x2EC0 SWAP2 SWAP1 PUSH2 0x4FC3 JUMP JUMPDEST PUSH1 0xC0 ADD MLOAD SWAP1 POP PUSH1 0x0 PUSH2 0x2EDF PUSH2 0x2ED5 DUP4 DUP8 PUSH2 0x35D9 JUMP JUMPDEST PUSH2 0x2D96 DUP7 DUP7 PUSH2 0x29B5 JUMP JUMPDEST SWAP1 POP PUSH2 0x2EEB DUP4 DUP3 PUSH2 0x35D9 JUMP JUMPDEST PUSH1 0xB SLOAD PUSH1 0x40 MLOAD PUSH4 0x5A9B7FDB PUSH1 0xE1 SHL DUP2 MSTORE SWAP2 SWAP5 POP PUSH1 0x60 SWAP2 PUSH2 0x100 SWAP1 SWAP2 DIV PUSH1 0x1 PUSH1 0x1 PUSH1 0xA0 SHL SUB AND SWAP1 PUSH4 0xB536FFB6 SWAP1 PUSH2 0x2F25 SWAP1 ADDRESS SWAP1 PUSH1 0x4 ADD PUSH2 0x51F4 JUMP JUMPDEST PUSH1 0x0 PUSH1 0x40 MLOAD DUP1 DUP4 SUB DUP2 DUP7 DUP1 EXTCODESIZE ISZERO DUP1 ISZERO PUSH2 0x2F3D JUMPI PUSH1 0x0 DUP1 REVERT JUMPDEST POP GAS STATICCALL ISZERO DUP1 ISZERO PUSH2 0x2F51 JUMPI RETURNDATASIZE PUSH1 0x0 DUP1 RETURNDATACOPY RETURNDATASIZE PUSH1 0x0 REVERT JUMPDEST POP POP POP POP PUSH1 0x40 MLOAD RETURNDATASIZE PUSH1 0x0 DUP3 RETURNDATACOPY PUSH1 0x1F RETURNDATASIZE SWAP1 DUP2 ADD PUSH1 0x1F NOT AND DUP3 ADD PUSH1 0x40 MSTORE PUSH2 0x2F79 SWAP2 SWAP1 DUP2 ADD SWAP1 PUSH2 0x4D77 JUMP JUMPDEST SWAP1 POP PUSH1 0x60 DUP2 MLOAD PUSH8 0xFFFFFFFFFFFFFFFF DUP2 GT DUP1 ISZERO PUSH2 0x2F95 JUMPI PUSH1 0x0 DUP1 REVERT JUMPDEST POP PUSH1 0x40 MLOAD SWAP1 DUP1 DUP3 MSTORE DUP1 PUSH1 0x20 MUL PUSH1 0x20 ADD DUP3 ADD PUSH1 0x40 MSTORE DUP1 ISZERO PUSH2 0x2FBF JUMPI DUP2 PUSH1 0x20 ADD PUSH1 0x20 DUP3 MUL DUP1 CALLDATASIZE DUP4 CALLDATACOPY ADD SWAP1 POP JUMPDEST POP SWAP1 POP DUP5 PUSH1 0x0 DUP1 JUMPDEST DUP5 MLOAD DUP2 LT ISZERO PUSH2 0x3219 JUMPI DUP3 ISZERO PUSH2 0x3211 JUMPI PUSH1 0x0 PUSH2 0x2FF8 DUP7 DUP4 DUP2 MLOAD DUP2 LT PUSH2 0x2FE7 JUMPI INVALID JUMPDEST PUSH1 0x20 MUL PUSH1 0x20 ADD ADD MLOAD PUSH1 0x20 ADD MLOAD PUSH2 0x42B9 JUMP JUMPDEST PUSH1 0xB SLOAD DUP8 MLOAD SWAP2 SWAP3 POP PUSH1 0x0 SWAP2 PUSH2 0x100 DUP3 DIV PUSH1 0x1 PUSH1 0x1 PUSH1 0xA0 SHL SUB AND SWAP2 PUSH4 0x94614DF SWAP2 PUSH1 0x1 PUSH1 0xA8 SHL SWAP1 SWAP2 DIV PUSH2 0xFFFF AND SWAP1 DUP11 SWAP1 DUP8 SWAP1 DUP2 LT PUSH2 0x3031 JUMPI INVALID JUMPDEST PUSH1 0x20 MUL PUSH1 0x20 ADD ADD MLOAD PUSH1 0x60 ADD MLOAD PUSH1 0x0 SUB DUP6 TIMESTAMP PUSH1 0x40 MLOAD DUP6 PUSH4 0xFFFFFFFF AND PUSH1 0xE0 SHL DUP2 MSTORE PUSH1 0x4 ADD PUSH2 0x3061 SWAP5 SWAP4 SWAP3 SWAP2 SWAP1 PUSH2 0x56E1 JUMP JUMPDEST PUSH1 0x40 DUP1 MLOAD DUP1 DUP4 SUB DUP2 DUP7 DUP1 EXTCODESIZE ISZERO DUP1 ISZERO PUSH2 0x3078 JUMPI PUSH1 0x0 DUP1 REVERT JUMPDEST POP GAS STATICCALL ISZERO DUP1 ISZERO PUSH2 0x308C JUMPI RETURNDATASIZE PUSH1 0x0 DUP1 RETURNDATACOPY RETURNDATASIZE PUSH1 0x0 REVERT JUMPDEST POP POP POP POP PUSH1 0x40 MLOAD RETURNDATASIZE PUSH1 0x1F NOT PUSH1 0x1F DUP3 ADD AND DUP3 ADD DUP1 PUSH1 0x40 MSTORE POP DUP2 ADD SWAP1 PUSH2 0x30B0 SWAP2 SWAP1 PUSH2 0x4EA0 JUMP JUMPDEST SWAP2 POP POP PUSH1 0x0 PUSH2 0x30D0 PUSH2 0x2710 PUSH2 0x2D96 PUSH1 0xC SLOAD DUP6 PUSH2 0x29B5 SWAP1 SWAP2 SWAP1 PUSH4 0xFFFFFFFF AND JUMP JUMPDEST SWAP1 POP DUP6 DUP2 GT ISZERO PUSH2 0x31C4 JUMPI PUSH1 0xB SLOAD PUSH1 0xC SLOAD PUSH1 0x0 SWAP2 PUSH2 0x100 DUP2 DIV PUSH1 0x1 PUSH1 0x1 PUSH1 0xA0 SHL SUB AND SWAP2 PUSH4 0x8355E895 SWAP2 PUSH1 0x1 PUSH1 0xA8 SHL SWAP1 DIV PUSH2 0xFFFF AND SWAP1 PUSH2 0x3114 SWAP1 PUSH2 0x2D96 DUP13 PUSH2 0x2710 PUSH2 0x29B5 JUMP JUMPDEST PUSH1 0x1 ADD DUP8 TIMESTAMP PUSH1 0x40 MLOAD DUP6 PUSH4 0xFFFFFFFF AND PUSH1 0xE0 SHL DUP2 MSTORE PUSH1 0x4 ADD PUSH2 0x3138 SWAP5 SWAP4 SWAP3 SWAP2 SWAP1 PUSH2 0x56E1 JUMP JUMPDEST PUSH1 0x20 PUSH1 0x40 MLOAD DUP1 DUP4 SUB DUP2 DUP7 DUP1 EXTCODESIZE ISZERO DUP1 ISZERO PUSH2 0x3150 JUMPI PUSH1 0x0 DUP1 REVERT JUMPDEST POP GAS STATICCALL ISZERO DUP1 ISZERO PUSH2 0x3164 JUMPI RETURNDATASIZE PUSH1 0x0 DUP1 RETURNDATACOPY RETURNDATASIZE PUSH1 0x0 REVERT JUMPDEST POP POP POP POP PUSH1 0x40 MLOAD RETURNDATASIZE PUSH1 0x1F NOT PUSH1 0x1F DUP3 ADD AND DUP3 ADD DUP1 PUSH1 0x40 MSTORE POP DUP2 ADD SWAP1 PUSH2 0x3188 SWAP2 SWAP1 PUSH2 0x4E88 JUMP JUMPDEST PUSH1 0x0 SUB SWAP1 POP PUSH2 0x3199 PUSH1 0x1 DUP6 DUP4 PUSH2 0x43AB JUMP JUMPDEST DUP9 DUP7 DUP2 MLOAD DUP2 LT PUSH2 0x31A5 JUMPI INVALID JUMPDEST PUSH1 0x20 SWAP1 DUP2 MUL SWAP2 SWAP1 SWAP2 ADD ADD MSTORE POP PUSH1 0x0 SWAP6 POP POP PUSH1 0x1 SWAP1 SWAP4 ADD SWAP3 POP PUSH2 0x3219 SWAP1 POP JUMP JUMPDEST PUSH2 0x31E7 PUSH1 0x1 DUP5 DUP11 DUP8 DUP2 MLOAD DUP2 LT PUSH2 0x31D6 JUMPI INVALID JUMPDEST PUSH1 0x20 MUL PUSH1 0x20 ADD ADD MLOAD PUSH1 0x60 ADD MLOAD PUSH2 0x43AB JUMP JUMPDEST DUP8 DUP6 DUP2 MLOAD DUP2 LT PUSH2 0x31F3 JUMPI INVALID JUMPDEST PUSH1 0x20 SWAP1 DUP2 MUL SWAP2 SWAP1 SWAP2 ADD ADD MSTORE PUSH1 0x0 PUSH1 0xF SSTORE SWAP1 SWAP5 SUB SWAP4 POP POP PUSH1 0x1 SWAP2 SWAP1 SWAP2 ADD SWAP1 JUMPDEST PUSH1 0x1 ADD PUSH2 0x2FC7 JUMP JUMPDEST POP PUSH1 0x60 DUP2 PUSH8 0xFFFFFFFFFFFFFFFF DUP2 GT DUP1 ISZERO PUSH2 0x3233 JUMPI PUSH1 0x0 DUP1 REVERT JUMPDEST POP PUSH1 0x40 MLOAD SWAP1 DUP1 DUP3 MSTORE DUP1 PUSH1 0x20 MUL PUSH1 0x20 ADD DUP3 ADD PUSH1 0x40 MSTORE DUP1 ISZERO PUSH2 0x325D JUMPI DUP2 PUSH1 0x20 ADD PUSH1 0x20 DUP3 MUL DUP1 CALLDATASIZE DUP4 CALLDATACOPY ADD SWAP1 POP JUMPDEST POP SWAP1 POP PUSH1 0x0 JUMPDEST DUP3 DUP2 LT ISZERO PUSH2 0x329E JUMPI DUP5 DUP2 DUP2 MLOAD DUP2 LT PUSH2 0x3277 JUMPI INVALID JUMPDEST PUSH1 0x20 MUL PUSH1 0x20 ADD ADD MLOAD DUP3 DUP3 DUP2 MLOAD DUP2 LT PUSH2 0x328B JUMPI INVALID JUMPDEST PUSH1 0x20 SWAP1 DUP2 MUL SWAP2 SWAP1 SWAP2 ADD ADD MSTORE PUSH1 0x1 ADD PUSH2 0x3263 JUMP JUMPDEST POP PUSH2 0x32B0 PUSH1 0x0 DUP1 PUSH1 0x0 PUSH1 0x1 DUP1 DUP7 PUSH2 0x43E2 JUMP JUMPDEST PUSH1 0x0 PUSH2 0x32BA PUSH2 0x3D1D JUMP JUMPDEST SWAP1 POP DUP1 DUP15 GT ISZERO PUSH2 0x32D8 JUMPI SWAP12 POP DUP12 PUSH2 0x32D1 DUP15 DUP3 PUSH2 0x35D9 JUMP JUMPDEST SWAP12 POP PUSH2 0x32DC JUMP JUMPDEST DUP14 SWAP13 POP JUMPDEST POP POP PUSH1 0xE DUP1 SLOAD PUSH3 0xFF0000 NOT AND SWAP1 SSTORE POP POP POP POP POP POP POP POP POP JUMPDEST SWAP2 POP SWAP2 JUMP JUMPDEST PUSH1 0x0 PUSH2 0x3303 PUSH2 0x3D1D JUMP JUMPDEST SWAP1 POP DUP2 DUP2 GT PUSH2 0x3312 JUMPI POP PUSH2 0x1E2E JUMP JUMPDEST PUSH2 0x331C DUP2 DUP4 PUSH2 0x35D9 JUMP JUMPDEST PUSH1 0xE SLOAD SWAP1 SWAP2 POP PUSH2 0xFFFF AND DUP2 LT ISZERO PUSH2 0x3333 JUMPI POP PUSH2 0x1E2E JUMP JUMPDEST PUSH1 0xB SLOAD PUSH1 0xF SLOAD PUSH1 0x1 PUSH1 0xA8 SHL SWAP1 SWAP2 DIV PUSH2 0xFFFF AND SWAP1 PUSH1 0x0 DUP1 PUSH2 0x3351 PUSH2 0x45DC JUMP JUMPDEST SWAP2 POP SWAP2 POP DUP3 DUP2 GT DUP1 ISZERO PUSH2 0x3364 JUMPI POP PUSH1 0x0 DUP4 GT JUMPDEST ISZERO PUSH2 0x3377 JUMPI PUSH2 0x3372 DUP4 PUSH2 0x46D9 JUMP JUMPDEST DUP6 ADD SWAP5 POP JUMPDEST DUP4 PUSH2 0xFFFF AND PUSH1 0x1 EQ ISZERO PUSH2 0x33F2 JUMPI PUSH1 0x40 MLOAD PUSH4 0x2E1A7D4D PUSH1 0xE0 SHL DUP2 MSTORE PUSH20 0xC02AAA39B223FE8D0A0E5C4F27EAD9083C756CC2 SWAP1 PUSH4 0x2E1A7D4D SWAP1 PUSH2 0x33BB SWAP1 DUP9 SWAP1 PUSH1 0x4 ADD PUSH2 0x5756 JUMP JUMPDEST PUSH1 0x0 PUSH1 0x40 MLOAD DUP1 DUP4 SUB DUP2 PUSH1 0x0 DUP8 DUP1 EXTCODESIZE ISZERO DUP1 ISZERO PUSH2 0x33D5 JUMPI PUSH1 0x0 DUP1 REVERT JUMPDEST POP GAS CALL ISZERO DUP1 ISZERO PUSH2 0x33E9 JUMPI RETURNDATASIZE PUSH1 0x0 DUP1 RETURNDATACOPY RETURNDATASIZE PUSH1 0x0 REVERT JUMPDEST POP POP POP POP PUSH2 0x3483 JUMP JUMPDEST PUSH1 0x6 SLOAD PUSH1 0xB SLOAD PUSH1 0x40 MLOAD PUSH4 0x95EA7B3 PUSH1 0xE0 SHL DUP2 MSTORE PUSH1 0x1 PUSH1 0x1 PUSH1 0xA0 SHL SUB SWAP3 DUP4 AND SWAP3 PUSH4 0x95EA7B3 SWAP3 PUSH2 0x342F SWAP3 PUSH2 0x100 SWAP1 SWAP2 DIV SWAP1 SWAP2 AND SWAP1 DUP10 SWAP1 PUSH1 0x4 ADD PUSH2 0x5372 JUMP JUMPDEST PUSH1 0x20 PUSH1 0x40 MLOAD DUP1 DUP4 SUB DUP2 PUSH1 0x0 DUP8 DUP1 EXTCODESIZE ISZERO DUP1 ISZERO PUSH2 0x3449 JUMPI PUSH1 0x0 DUP1 REVERT JUMPDEST POP GAS CALL ISZERO DUP1 ISZERO PUSH2 0x345D JUMPI RETURNDATASIZE PUSH1 0x0 DUP1 RETURNDATACOPY RETURNDATASIZE PUSH1 0x0 REVERT JUMPDEST POP POP POP POP PUSH1 0x40 MLOAD RETURNDATASIZE PUSH1 0x1F NOT PUSH1 0x1F DUP3 ADD AND DUP3 ADD DUP1 PUSH1 0x40 MSTORE POP DUP2 ADD SWAP1 PUSH2 0x3481 SWAP2 SWAP1 PUSH2 0x4E6C JUMP JUMPDEST POP JUMPDEST PUSH1 0x0 PUSH2 0x34B2 PUSH2 0x2710 PUSH2 0x2D96 PUSH2 0x270B PUSH2 0x34AC PUSH1 0xC SLOAD PUSH2 0x2D96 PUSH2 0x2710 DUP14 PUSH2 0x29B5 SWAP1 SWAP2 SWAP1 PUSH4 0xFFFFFFFF AND JUMP JUMPDEST SWAP1 PUSH2 0x29B5 JUMP JUMPDEST PUSH1 0xB SLOAD PUSH1 0x40 MLOAD PUSH4 0x8355E895 PUSH1 0xE0 SHL DUP2 MSTORE SWAP2 SWAP3 POP PUSH1 0x0 SWAP2 PUSH2 0x100 SWAP1 SWAP2 DIV PUSH1 0x1 PUSH1 0x1 PUSH1 0xA0 SHL SUB AND SWAP1 PUSH4 0x8355E895 SWAP1 PUSH2 0x34F4 SWAP1 DUP10 SWAP1 DUP7 DUP7 SUB SWAP1 DUP10 SWAP1 TIMESTAMP SWAP1 PUSH1 0x4 ADD PUSH2 0x56E1 JUMP JUMPDEST PUSH1 0x20 PUSH1 0x40 MLOAD DUP1 DUP4 SUB DUP2 DUP7 DUP1 EXTCODESIZE ISZERO DUP1 ISZERO PUSH2 0x350C JUMPI PUSH1 0x0 DUP1 REVERT JUMPDEST POP GAS STATICCALL ISZERO DUP1 ISZERO PUSH2 0x3520 JUMPI RETURNDATASIZE PUSH1 0x0 DUP1 RETURNDATACOPY RETURNDATASIZE PUSH1 0x0 REVERT JUMPDEST POP POP POP POP PUSH1 0x40 MLOAD RETURNDATASIZE PUSH1 0x1F NOT PUSH1 0x1F DUP3 ADD AND DUP3 ADD DUP1 PUSH1 0x40 MSTORE POP DUP2 ADD SWAP1 PUSH2 0x3544 SWAP2 SWAP1 PUSH2 0x4E88 JUMP JUMPDEST SWAP1 POP PUSH1 0x0 DUP2 SGT PUSH2 0x355A JUMPI POP POP POP POP POP POP POP PUSH2 0x1E2E JUMP JUMPDEST PUSH1 0x40 DUP1 MLOAD PUSH1 0x1 DUP1 DUP3 MSTORE DUP2 DUP4 ADD SWAP1 SWAP3 MSTORE PUSH1 0x60 SWAP2 PUSH1 0x20 DUP1 DUP4 ADD SWAP1 DUP1 CALLDATASIZE DUP4 CALLDATACOPY ADD SWAP1 POP POP SWAP1 POP PUSH2 0x3588 PUSH1 0x0 DUP7 DUP5 PUSH2 0x43AB JUMP JUMPDEST DUP2 PUSH1 0x0 DUP2 MLOAD DUP2 LT PUSH2 0x3595 JUMPI INVALID JUMPDEST PUSH1 0x20 MUL PUSH1 0x20 ADD ADD DUP2 DUP2 MSTORE POP POP PUSH2 0x35B2 PUSH1 0x2 DUP10 PUSH1 0x0 PUSH1 0x1 DUP1 DUP7 PUSH2 0x43E2 JUMP JUMPDEST POP POP POP PUSH1 0xF SSTORE POP POP POP POP POP JUMP JUMPDEST PUSH1 0x0 DUP1 PUSH2 0x35D2 PUSH2 0x35CD PUSH2 0x23FB JUMP JUMPDEST PUSH2 0x2DF4 JUMP JUMPDEST POP SWAP2 POP POP SWAP1 JUMP JUMPDEST PUSH1 0x0 PUSH2 0x29EF DUP4 DUP4 PUSH1 0x40 MLOAD DUP1 PUSH1 0x40 ADD PUSH1 0x40 MSTORE DUP1 PUSH1 0x1E DUP2 MSTORE PUSH1 0x20 ADD PUSH32 0x536166654D6174683A207375627472616374696F6E206F766572666C6F770000 DUP2 MSTORE POP PUSH2 0x47F6 JUMP JUMPDEST PUSH1 0x0 DUP1 PUSH1 0x0 PUSH2 0x3628 PUSH2 0x3F28 JUMP JUMPDEST PUSH2 0x3630 PUSH2 0x41F3 JUMP JUMPDEST POP SWAP3 POP PUSH1 0x0 PUSH2 0x363D PUSH2 0x3D1D JUMP JUMPDEST SWAP1 POP DUP1 DUP5 GT ISZERO PUSH2 0x364C JUMPI PUSH1 0x0 SWAP4 POP JUMPDEST PUSH1 0x0 PUSH2 0x3658 DUP7 DUP7 PUSH2 0x3A33 JUMP JUMPDEST SWAP1 POP DUP2 DUP2 GT ISZERO PUSH2 0x36E2 JUMPI PUSH1 0xE SLOAD PUSH1 0x0 SWAP1 DUP2 SWAP1 PUSH3 0x10000 SWAP1 DIV PUSH1 0xFF AND ISZERO PUSH2 0x3687 JUMPI PUSH2 0x3681 DUP4 PUSH2 0x2DF4 JUMP JUMPDEST SWAP1 SWAP3 POP SWAP1 POP JUMPDEST DUP1 SWAP6 POP DUP3 DUP3 LT PUSH2 0x36B7 JUMPI DUP8 SWAP5 POP DUP7 PUSH2 0x369F DUP5 DUP8 PUSH2 0x35D9 JUMP JUMPDEST LT ISZERO PUSH2 0x36B2 JUMPI PUSH2 0x36AF DUP4 DUP7 PUSH2 0x35D9 JUMP JUMPDEST SWAP7 POP JUMPDEST PUSH2 0x36DB JUMP JUMPDEST DUP8 DUP3 LT ISZERO PUSH2 0x36CB JUMPI PUSH1 0x0 SWAP7 POP DUP2 SWAP5 POP PUSH2 0x36DB JUMP JUMPDEST DUP8 SWAP5 POP PUSH2 0x36D8 DUP3 DUP7 PUSH2 0x35D9 JUMP JUMPDEST SWAP7 POP JUMPDEST POP POP PUSH2 0x3703 JUMP JUMPDEST DUP6 SWAP3 POP DUP5 PUSH2 0x36F0 DUP3 DUP6 PUSH2 0x35D9 JUMP JUMPDEST LT ISZERO PUSH2 0x3703 JUMPI PUSH2 0x3700 DUP2 DUP5 PUSH2 0x35D9 JUMP JUMPDEST SWAP5 POP JUMPDEST POP POP SWAP2 SWAP4 SWAP1 SWAP3 POP JUMP JUMPDEST PUSH1 0x0 DUP3 ISZERO DUP1 PUSH2 0x371C JUMPI POP PUSH1 0x0 NOT DUP4 EQ JUMPDEST DUP1 PUSH2 0x3743 JUMPI POP PUSH1 0x1 PUSH1 0x1 PUSH1 0xA0 SHL SUB DUP3 AND PUSH20 0xC02AAA39B223FE8D0A0E5C4F27EAD9083C756CC2 EQ JUMPDEST ISZERO PUSH2 0x374F JUMPI POP DUP2 PUSH2 0x18D8 JUMP JUMPDEST PUSH2 0x3757 PUSH2 0x4925 JUMP JUMPDEST PUSH2 0x375F PUSH2 0x4925 JUMP JUMPDEST PUSH2 0x3767 PUSH2 0x4954 JUMP JUMPDEST PUSH2 0x376F PUSH2 0x4983 JUMP JUMPDEST PUSH1 0xB SLOAD PUSH1 0x40 MLOAD PUSH4 0x88A73EB7 PUSH1 0xE0 SHL DUP2 MSTORE PUSH2 0x100 DUP3 DIV PUSH1 0x1 PUSH1 0x1 PUSH1 0xA0 SHL SUB AND SWAP2 PUSH4 0x88A73EB7 SWAP2 PUSH2 0x37AC SWAP2 PUSH1 0x1 PUSH1 0xA8 SHL SWAP1 DIV PUSH2 0xFFFF AND SWAP1 PUSH1 0x4 ADD PUSH2 0x56B5 JUMP JUMPDEST PUSH2 0x240 PUSH1 0x40 MLOAD DUP1 DUP4 SUB DUP2 DUP7 DUP1 EXTCODESIZE ISZERO DUP1 ISZERO PUSH2 0x37C5 JUMPI PUSH1 0x0 DUP1 REVERT JUMPDEST POP GAS STATICCALL ISZERO DUP1 ISZERO PUSH2 0x37D9 JUMPI RETURNDATASIZE PUSH1 0x0 DUP1 RETURNDATACOPY RETURNDATASIZE PUSH1 0x0 REVERT JUMPDEST POP POP POP POP PUSH1 0x40 MLOAD RETURNDATASIZE PUSH1 0x1F NOT PUSH1 0x1F DUP3 ADD AND DUP3 ADD DUP1 PUSH1 0x40 MSTORE POP DUP2 ADD SWAP1 PUSH2 0x37FD SWAP2 SWAP1 PUSH2 0x5076 JUMP JUMPDEST SWAP4 POP SWAP4 POP SWAP4 POP SWAP4 POP PUSH2 0x3824 DUP3 PUSH1 0x20 ADD MLOAD PUSH2 0x2D96 DUP6 PUSH1 0x40 ADD MLOAD DUP11 PUSH2 0x29B5 SWAP1 SWAP2 SWAP1 PUSH4 0xFFFFFFFF AND JUMP JUMPDEST SWAP8 SWAP7 POP POP POP POP POP POP POP JUMP JUMPDEST PUSH2 0x3837 PUSH2 0x3F28 JUMP JUMPDEST PUSH1 0xB SLOAD PUSH1 0x40 MLOAD PUSH4 0x5A9B7FDB PUSH1 0xE1 SHL DUP2 MSTORE PUSH1 0x60 SWAP2 PUSH2 0x100 SWAP1 DIV PUSH1 0x1 PUSH1 0x1 PUSH1 0xA0 SHL SUB AND SWAP1 PUSH4 0xB536FFB6 SWAP1 PUSH2 0x386D SWAP1 ADDRESS SWAP1 PUSH1 0x4 ADD PUSH2 0x51F4 JUMP JUMPDEST PUSH1 0x0 PUSH1 0x40 MLOAD DUP1 DUP4 SUB DUP2 DUP7 DUP1 EXTCODESIZE ISZERO DUP1 ISZERO PUSH2 0x3885 JUMPI PUSH1 0x0 DUP1 REVERT JUMPDEST POP GAS STATICCALL ISZERO DUP1 ISZERO PUSH2 0x3899 JUMPI RETURNDATASIZE PUSH1 0x0 DUP1 RETURNDATACOPY RETURNDATASIZE PUSH1 0x0 REVERT JUMPDEST POP POP POP POP PUSH1 0x40 MLOAD RETURNDATASIZE PUSH1 0x0 DUP3 RETURNDATACOPY PUSH1 0x1F RETURNDATASIZE SWAP1 DUP2 ADD PUSH1 0x1F NOT AND DUP3 ADD PUSH1 0x40 MSTORE PUSH2 0x38C1 SWAP2 SWAP1 DUP2 ADD SWAP1 PUSH2 0x4D77 JUMP JUMPDEST SWAP1 POP PUSH1 0x0 DUP1 JUMPDEST DUP3 MLOAD DUP2 LT ISZERO PUSH2 0x2DEE JUMPI PUSH1 0xB SLOAD DUP4 MLOAD PUSH2 0x100 DUP3 DIV PUSH1 0x1 PUSH1 0x1 PUSH1 0xA0 SHL SUB AND SWAP2 PUSH4 0x735A1DC8 SWAP2 PUSH1 0x1 PUSH1 0xA8 SHL SWAP1 SWAP2 DIV PUSH2 0xFFFF AND SWAP1 DUP7 SWAP1 DUP6 SWAP1 DUP2 LT PUSH2 0x3903 JUMPI INVALID JUMPDEST PUSH1 0x20 MUL PUSH1 0x20 ADD ADD MLOAD PUSH1 0x20 ADD MLOAD DUP7 DUP6 DUP2 MLOAD DUP2 LT PUSH2 0x391B JUMPI INVALID JUMPDEST PUSH1 0x20 MUL PUSH1 0x20 ADD ADD MLOAD PUSH1 0x40 ADD MLOAD PUSH1 0x40 MLOAD DUP5 PUSH4 0xFFFFFFFF AND PUSH1 0xE0 SHL DUP2 MSTORE PUSH1 0x4 ADD PUSH2 0x3945 SWAP4 SWAP3 SWAP2 SWAP1 PUSH2 0x5705 JUMP JUMPDEST PUSH1 0x20 PUSH1 0x40 MLOAD DUP1 DUP4 SUB DUP2 DUP7 DUP1 EXTCODESIZE ISZERO DUP1 ISZERO PUSH2 0x395D JUMPI PUSH1 0x0 DUP1 REVERT JUMPDEST POP GAS STATICCALL ISZERO DUP1 ISZERO PUSH2 0x3971 JUMPI RETURNDATASIZE PUSH1 0x0 DUP1 RETURNDATACOPY RETURNDATASIZE PUSH1 0x0 REVERT JUMPDEST POP POP POP POP PUSH1 0x40 MLOAD RETURNDATASIZE PUSH1 0x1F NOT PUSH1 0x1F DUP3 ADD AND DUP3 ADD DUP1 PUSH1 0x40 MSTORE POP DUP2 ADD SWAP1 PUSH2 0x3995 SWAP2 SWAP1 PUSH2 0x4E88 JUMP JUMPDEST SWAP2 POP PUSH1 0xB PUSH1 0x1 SWAP1 SLOAD SWAP1 PUSH2 0x100 EXP SWAP1 DIV PUSH1 0x1 PUSH1 0x1 PUSH1 0xA0 SHL SUB AND PUSH1 0x1 PUSH1 0x1 PUSH1 0xA0 SHL SUB AND PUSH4 0xF242432A ADDRESS DUP7 DUP6 DUP8 DUP7 DUP2 MLOAD DUP2 LT PUSH2 0x39CA JUMPI INVALID JUMPDEST PUSH1 0x20 MUL PUSH1 0x20 ADD ADD MLOAD PUSH1 0x60 ADD MLOAD PUSH1 0x40 MLOAD DUP6 PUSH4 0xFFFFFFFF AND PUSH1 0xE0 SHL DUP2 MSTORE PUSH1 0x4 ADD PUSH2 0x39F5 SWAP5 SWAP4 SWAP3 SWAP2 SWAP1 PUSH2 0x5208 JUMP JUMPDEST PUSH1 0x0 PUSH1 0x40 MLOAD DUP1 DUP4 SUB DUP2 PUSH1 0x0 DUP8 DUP1 EXTCODESIZE ISZERO DUP1 ISZERO PUSH2 0x3A0F JUMPI PUSH1 0x0 DUP1 REVERT JUMPDEST POP GAS CALL ISZERO DUP1 ISZERO PUSH2 0x3A23 JUMPI RETURNDATASIZE PUSH1 0x0 DUP1 RETURNDATACOPY RETURNDATASIZE PUSH1 0x0 REVERT JUMPDEST POP POP PUSH1 0x1 SWAP1 SWAP3 ADD SWAP2 POP PUSH2 0x38C7 SWAP1 POP JUMP JUMPDEST PUSH1 0x0 DUP3 DUP3 ADD DUP4 DUP2 LT ISZERO PUSH2 0x29EF JUMPI PUSH1 0x40 MLOAD PUSH3 0x461BCD PUSH1 0xE5 SHL DUP2 MSTORE PUSH1 0x4 ADD PUSH2 0x8D6 SWAP1 PUSH2 0x5451 JUMP JUMPDEST PUSH1 0xB SLOAD PUSH1 0x40 MLOAD PUSH4 0x5A9B7FDB PUSH1 0xE1 SHL DUP2 MSTORE PUSH1 0x0 SWAP2 PUSH1 0x60 SWAP2 PUSH2 0x100 SWAP1 SWAP2 DIV PUSH1 0x1 PUSH1 0x1 PUSH1 0xA0 SHL SUB AND SWAP1 PUSH4 0xB536FFB6 SWAP1 PUSH2 0x3A92 SWAP1 ADDRESS SWAP1 PUSH1 0x4 ADD PUSH2 0x51F4 JUMP JUMPDEST PUSH1 0x0 PUSH1 0x40 MLOAD DUP1 DUP4 SUB DUP2 DUP7 DUP1 EXTCODESIZE ISZERO DUP1 ISZERO PUSH2 0x3AAA JUMPI PUSH1 0x0 DUP1 REVERT JUMPDEST POP GAS STATICCALL ISZERO DUP1 ISZERO PUSH2 0x3ABE JUMPI RETURNDATASIZE PUSH1 0x0 DUP1 RETURNDATACOPY RETURNDATASIZE PUSH1 0x0 REVERT JUMPDEST POP POP POP POP PUSH1 0x40 MLOAD RETURNDATASIZE PUSH1 0x0 DUP3 RETURNDATACOPY PUSH1 0x1F RETURNDATASIZE SWAP1 DUP2 ADD PUSH1 0x1F NOT AND DUP3 ADD PUSH1 0x40 MSTORE PUSH2 0x3AE6 SWAP2 SWAP1 DUP2 ADD SWAP1 PUSH2 0x4D77 JUMP JUMPDEST PUSH1 0xB SLOAD PUSH1 0x40 MLOAD PUSH4 0x497CF7E3 PUSH1 0xE0 SHL DUP2 MSTORE SWAP2 SWAP3 POP PUSH1 0x60 SWAP2 PUSH2 0x100 DUP3 DIV PUSH1 0x1 PUSH1 0x1 PUSH1 0xA0 SHL SUB AND SWAP2 PUSH4 0x497CF7E3 SWAP2 PUSH2 0x3B29 SWAP2 PUSH1 0x1 PUSH1 0xA8 SHL SWAP1 DIV PUSH2 0xFFFF AND SWAP1 PUSH1 0x4 ADD PUSH2 0x56B5 JUMP JUMPDEST PUSH1 0x0 PUSH1 0x40 MLOAD DUP1 DUP4 SUB DUP2 DUP7 DUP1 EXTCODESIZE ISZERO DUP1 ISZERO PUSH2 0x3B41 JUMPI PUSH1 0x0 DUP1 REVERT JUMPDEST POP GAS STATICCALL ISZERO DUP1 ISZERO PUSH2 0x3B55 JUMPI RETURNDATASIZE PUSH1 0x0 DUP1 RETURNDATACOPY RETURNDATASIZE PUSH1 0x0 REVERT JUMPDEST POP POP POP POP PUSH1 0x40 MLOAD RETURNDATASIZE PUSH1 0x0 DUP3 RETURNDATACOPY PUSH1 0x1F RETURNDATASIZE SWAP1 DUP2 ADD PUSH1 0x1F NOT AND DUP3 ADD PUSH1 0x40 MSTORE PUSH2 0x3B7D SWAP2 SWAP1 DUP2 ADD SWAP1 PUSH2 0x4CD3 JUMP JUMPDEST SWAP1 POP PUSH1 0x0 JUMPDEST DUP3 MLOAD DUP2 LT ISZERO PUSH2 0x3D17 JUMPI PUSH1 0x0 JUMPDEST DUP3 MLOAD DUP2 LT ISZERO PUSH2 0x3D0E JUMPI TIMESTAMP DUP5 DUP4 DUP2 MLOAD DUP2 LT PUSH2 0x3BA4 JUMPI INVALID JUMPDEST PUSH1 0x20 MUL PUSH1 0x20 ADD ADD MLOAD PUSH1 0x20 ADD MLOAD LT ISZERO PUSH2 0x3BF1 JUMPI PUSH2 0x3BE8 PUSH2 0x2710 PUSH2 0x2D96 PUSH1 0xC SLOAD DUP8 DUP7 DUP2 MLOAD DUP2 LT PUSH2 0x3BCE JUMPI INVALID JUMPDEST PUSH1 0x20 MUL PUSH1 0x20 ADD ADD MLOAD PUSH1 0x60 ADD MLOAD PUSH2 0x29B5 SWAP1 SWAP2 SWAP1 PUSH4 0xFFFFFFFF AND JUMP JUMPDEST DUP6 ADD SWAP5 POP PUSH2 0x3D0E JUMP JUMPDEST DUP3 DUP2 DUP2 MLOAD DUP2 LT PUSH2 0x3BFD JUMPI INVALID JUMPDEST PUSH1 0x20 MUL PUSH1 0x20 ADD ADD MLOAD PUSH1 0x20 ADD MLOAD DUP5 DUP4 DUP2 MLOAD DUP2 LT PUSH2 0x3C15 JUMPI INVALID JUMPDEST PUSH1 0x20 MUL PUSH1 0x20 ADD ADD MLOAD PUSH1 0x20 ADD MLOAD EQ ISZERO PUSH2 0x3D06 JUMPI PUSH1 0xB SLOAD DUP5 MLOAD PUSH1 0x0 SWAP2 PUSH2 0x100 DUP2 DIV PUSH1 0x1 PUSH1 0x1 PUSH1 0xA0 SHL SUB AND SWAP2 PUSH4 0x94614DF SWAP2 PUSH1 0x1 PUSH1 0xA8 SHL SWAP1 DIV PUSH2 0xFFFF AND SWAP1 DUP9 SWAP1 DUP8 SWAP1 DUP2 LT PUSH2 0x3C5C JUMPI INVALID JUMPDEST PUSH1 0x20 MUL PUSH1 0x20 ADD ADD MLOAD PUSH1 0x60 ADD MLOAD PUSH1 0x0 SUB DUP6 PUSH1 0x1 ADD TIMESTAMP PUSH1 0x40 MLOAD DUP6 PUSH4 0xFFFFFFFF AND PUSH1 0xE0 SHL DUP2 MSTORE PUSH1 0x4 ADD PUSH2 0x3C8F SWAP5 SWAP4 SWAP3 SWAP2 SWAP1 PUSH2 0x56E1 JUMP JUMPDEST PUSH1 0x40 DUP1 MLOAD DUP1 DUP4 SUB DUP2 DUP7 DUP1 EXTCODESIZE ISZERO DUP1 ISZERO PUSH2 0x3CA6 JUMPI PUSH1 0x0 DUP1 REVERT JUMPDEST POP GAS STATICCALL ISZERO DUP1 ISZERO PUSH2 0x3CBA JUMPI RETURNDATASIZE PUSH1 0x0 DUP1 RETURNDATACOPY RETURNDATASIZE PUSH1 0x0 REVERT JUMPDEST POP POP POP POP PUSH1 0x40 MLOAD RETURNDATASIZE PUSH1 0x1F NOT PUSH1 0x1F DUP3 ADD AND DUP3 ADD DUP1 PUSH1 0x40 MSTORE POP DUP2 ADD SWAP1 PUSH2 0x3CDE SWAP2 SWAP1 PUSH2 0x4EA0 JUMP JUMPDEST SWAP2 POP POP PUSH2 0x3CFC PUSH2 0x2710 PUSH2 0x2D96 PUSH1 0xC SLOAD DUP5 PUSH2 0x29B5 SWAP1 SWAP2 SWAP1 PUSH4 0xFFFFFFFF AND JUMP JUMPDEST DUP7 ADD SWAP6 POP POP PUSH2 0x3D0E JUMP JUMPDEST PUSH1 0x1 ADD PUSH2 0x3B8E JUMP JUMPDEST POP PUSH1 0x1 ADD PUSH2 0x3B82 JUMP JUMPDEST POP POP POP SWAP1 JUMP JUMPDEST PUSH1 0x6 SLOAD PUSH1 0x40 MLOAD PUSH4 0x70A08231 PUSH1 0xE0 SHL DUP2 MSTORE PUSH1 0x0 SWAP2 PUSH1 0x1 PUSH1 0x1 PUSH1 0xA0 SHL SUB AND SWAP1 PUSH4 0x70A08231 SWAP1 PUSH2 0x3D4E SWAP1 ADDRESS SWAP1 PUSH1 0x4 ADD PUSH2 0x51F4 JUMP JUMPDEST PUSH1 0x20 PUSH1 0x40 MLOAD DUP1 DUP4 SUB DUP2 DUP7 DUP1 EXTCODESIZE ISZERO DUP1 ISZERO PUSH2 0x3D66 JUMPI PUSH1 0x0 DUP1 REVERT JUMPDEST POP GAS STATICCALL ISZERO DUP1 ISZERO PUSH2 0x3D7A JUMPI RETURNDATASIZE PUSH1 0x0 DUP1 RETURNDATACOPY RETURNDATASIZE PUSH1 0x0 REVERT JUMPDEST POP POP POP POP PUSH1 0x40 MLOAD RETURNDATASIZE PUSH1 0x1F NOT PUSH1 0x1F DUP3 ADD AND DUP3 ADD DUP1 PUSH1 0x40 MSTORE POP DUP2 ADD SWAP1 PUSH2 0xE48 SWAP2 SWAP1 PUSH2 0x4E88 JUMP JUMPDEST PUSH1 0x60 PUSH2 0x3DF3 DUP3 PUSH1 0x40 MLOAD DUP1 PUSH1 0x40 ADD PUSH1 0x40 MSTORE DUP1 PUSH1 0x20 DUP2 MSTORE PUSH1 0x20 ADD PUSH32 0x5361666545524332303A206C6F772D6C6576656C2063616C6C206661696C6564 DUP2 MSTORE POP DUP6 PUSH1 0x1 PUSH1 0x1 PUSH1 0xA0 SHL SUB AND PUSH2 0x2A38 SWAP1 SWAP3 SWAP2 SWAP1 PUSH4 0xFFFFFFFF AND JUMP JUMPDEST DUP1 MLOAD SWAP1 SWAP2 POP ISZERO PUSH2 0x29B0 JUMPI DUP1 DUP1 PUSH1 0x20 ADD SWAP1 MLOAD DUP2 ADD SWAP1 PUSH2 0x3E11 SWAP2 SWAP1 PUSH2 0x4E6C JUMP JUMPDEST PUSH2 0x29B0 JUMPI PUSH1 0x40 MLOAD PUSH3 0x461BCD PUSH1 0xE5 SHL DUP2 MSTORE PUSH1 0x4 ADD PUSH2 0x8D6 SWAP1 PUSH2 0x55F1 JUMP JUMPDEST PUSH1 0x0 DUP2 DUP4 PUSH2 0x3E4E JUMPI PUSH1 0x40 MLOAD PUSH3 0x461BCD PUSH1 0xE5 SHL DUP2 MSTORE PUSH1 0x4 ADD PUSH2 0x8D6 SWAP2 SWAP1 PUSH2 0x53DA JUMP JUMPDEST POP PUSH1 0x0 DUP4 DUP6 DUP2 PUSH2 0x3E5A JUMPI INVALID JUMPDEST DIV SWAP6 SWAP5 POP POP POP POP POP JUMP JUMPDEST PUSH1 0x60 PUSH2 0x3E6F DUP6 PUSH2 0x4822 JUMP JUMPDEST PUSH2 0x3E8B JUMPI PUSH1 0x40 MLOAD PUSH3 0x461BCD PUSH1 0xE5 SHL DUP2 MSTORE PUSH1 0x4 ADD PUSH2 0x8D6 SWAP1 PUSH2 0x5595 JUMP JUMPDEST PUSH1 0x0 PUSH1 0x60 DUP7 PUSH1 0x1 PUSH1 0x1 PUSH1 0xA0 SHL SUB AND DUP6 DUP8 PUSH1 0x40 MLOAD PUSH2 0x3EA8 SWAP2 SWAP1 PUSH2 0x51D5 JUMP JUMPDEST PUSH1 0x0 PUSH1 0x40 MLOAD DUP1 DUP4 SUB DUP2 DUP6 DUP8 GAS CALL SWAP3 POP POP POP RETURNDATASIZE DUP1 PUSH1 0x0 DUP2 EQ PUSH2 0x3EE5 JUMPI PUSH1 0x40 MLOAD SWAP2 POP PUSH1 0x1F NOT PUSH1 0x3F RETURNDATASIZE ADD AND DUP3 ADD PUSH1 0x40 MSTORE RETURNDATASIZE DUP3 MSTORE RETURNDATASIZE PUSH1 0x0 PUSH1 0x20 DUP5 ADD RETURNDATACOPY PUSH2 0x3EEA JUMP JUMPDEST PUSH1 0x60 SWAP2 POP JUMPDEST POP SWAP2 POP SWAP2 POP DUP2 ISZERO PUSH2 0x3EFE JUMPI SWAP2 POP PUSH2 0x2A47 SWAP1 POP JUMP JUMPDEST DUP1 MLOAD ISZERO PUSH2 0x3F0E JUMPI DUP1 MLOAD DUP1 DUP3 PUSH1 0x20 ADD REVERT JUMPDEST DUP4 PUSH1 0x40 MLOAD PUSH3 0x461BCD PUSH1 0xE5 SHL DUP2 MSTORE PUSH1 0x4 ADD PUSH2 0x8D6 SWAP2 SWAP1 PUSH2 0x53DA JUMP JUMPDEST PUSH2 0x3F30 PUSH2 0x49AD JUMP JUMPDEST PUSH1 0xB SLOAD PUSH1 0x40 MLOAD PUSH4 0xB0DE2217 PUSH1 0xE0 SHL DUP2 MSTORE PUSH2 0x100 SWAP1 SWAP2 DIV PUSH1 0x1 PUSH1 0x1 PUSH1 0xA0 SHL SUB AND SWAP1 PUSH4 0xB0DE2217 SWAP1 PUSH2 0x3F64 SWAP1 ADDRESS SWAP1 PUSH1 0x4 ADD PUSH2 0x51F4 JUMP JUMPDEST PUSH1 0xA0 PUSH1 0x40 MLOAD DUP1 DUP4 SUB DUP2 DUP7 DUP1 EXTCODESIZE ISZERO DUP1 ISZERO PUSH2 0x3F7C JUMPI PUSH1 0x0 DUP1 REVERT JUMPDEST POP GAS STATICCALL ISZERO DUP1 ISZERO PUSH2 0x3F90 JUMPI RETURNDATASIZE PUSH1 0x0 DUP1 RETURNDATACOPY RETURNDATASIZE PUSH1 0x0 REVERT JUMPDEST POP POP POP POP PUSH1 0x40 MLOAD RETURNDATASIZE PUSH1 0x1F NOT PUSH1 0x1F DUP3 ADD AND DUP3 ADD DUP1 PUSH1 0x40 MSTORE POP DUP2 ADD SWAP1 PUSH2 0x3FB4 SWAP2 SWAP1 PUSH2 0x4F30 JUMP JUMPDEST SWAP1 POP TIMESTAMP DUP2 PUSH1 0x0 ADD MLOAD PUSH5 0xFFFFFFFFFF AND LT ISZERO PUSH2 0x1E2E JUMPI PUSH1 0xB SLOAD PUSH1 0x40 MLOAD PUSH4 0xF667F897 PUSH1 0xE0 SHL DUP2 MSTORE PUSH2 0x100 SWAP1 SWAP2 DIV PUSH1 0x1 PUSH1 0x1 PUSH1 0xA0 SHL SUB AND SWAP1 PUSH4 0xF667F897 SWAP1 PUSH2 0x3FFD SWAP1 ADDRESS SWAP1 PUSH1 0x4 ADD PUSH2 0x51F4 JUMP JUMPDEST PUSH1 0x0 PUSH1 0x40 MLOAD DUP1 DUP4 SUB DUP2 PUSH1 0x0 DUP8 DUP1 EXTCODESIZE ISZERO DUP1 ISZERO PUSH2 0x4017 JUMPI PUSH1 0x0 DUP1 REVERT JUMPDEST POP GAS CALL ISZERO DUP1 ISZERO PUSH2 0x402B JUMPI RETURNDATASIZE PUSH1 0x0 DUP1 RETURNDATACOPY RETURNDATASIZE PUSH1 0x0 REVERT JUMPDEST POP POP PUSH1 0xB SLOAD PUSH1 0x40 MLOAD PUSH4 0xFC1B1345 PUSH1 0xE0 SHL DUP2 MSTORE PUSH1 0x0 SWAP4 POP DUP4 SWAP3 POP DUP3 SWAP2 PUSH2 0x100 DUP2 DIV PUSH1 0x1 PUSH1 0x1 PUSH1 0xA0 SHL SUB AND SWAP2 PUSH4 0xFC1B1345 SWAP2 PUSH2 0x4076 SWAP2 PUSH1 0x1 PUSH1 0xA8 SHL SWAP1 SWAP2 DIV PUSH2 0xFFFF AND SWAP1 ADDRESS SWAP1 PUSH1 0x4 ADD PUSH2 0x56C4 JUMP JUMPDEST PUSH1 0x60 PUSH1 0x40 MLOAD DUP1 DUP4 SUB DUP2 DUP7 DUP1 EXTCODESIZE ISZERO DUP1 ISZERO PUSH2 0x408E JUMPI PUSH1 0x0 DUP1 REVERT JUMPDEST POP GAS STATICCALL ISZERO DUP1 ISZERO PUSH2 0x40A2 JUMPI RETURNDATASIZE PUSH1 0x0 DUP1 RETURNDATACOPY RETURNDATASIZE PUSH1 0x0 REVERT JUMPDEST POP POP POP POP PUSH1 0x40 MLOAD RETURNDATASIZE PUSH1 0x1F NOT PUSH1 0x1F DUP3 ADD AND DUP3 ADD DUP1 PUSH1 0x40 MSTORE POP DUP2 ADD SWAP1 PUSH2 0x40C6 SWAP2 SWAP1 PUSH2 0x4EC3 JUMP JUMPDEST SWAP3 POP SWAP3 POP SWAP3 POP PUSH1 0x0 DUP4 SGT ISZERO PUSH2 0x2DEE JUMPI PUSH1 0xB SLOAD PUSH1 0x40 MLOAD PUSH3 0x5E665D PUSH1 0xE3 SHL DUP2 MSTORE PUSH2 0x100 DUP3 DIV PUSH1 0x1 PUSH1 0x1 PUSH1 0xA0 SHL SUB AND SWAP2 PUSH4 0x2F332E8 SWAP2 PUSH2 0x4116 SWAP2 PUSH1 0x1 PUSH1 0xA8 SHL SWAP1 DIV PUSH2 0xFFFF AND SWAP1 DUP8 SWAP1 PUSH1 0x1 SWAP1 PUSH1 0x4 ADD PUSH2 0x572B JUMP JUMPDEST PUSH1 0x20 PUSH1 0x40 MLOAD DUP1 DUP4 SUB DUP2 PUSH1 0x0 DUP8 DUP1 EXTCODESIZE ISZERO DUP1 ISZERO PUSH2 0x4130 JUMPI PUSH1 0x0 DUP1 REVERT JUMPDEST POP GAS CALL ISZERO DUP1 ISZERO PUSH2 0x4144 JUMPI RETURNDATASIZE PUSH1 0x0 DUP1 RETURNDATACOPY RETURNDATASIZE PUSH1 0x0 REVERT JUMPDEST POP POP POP POP PUSH1 0x40 MLOAD RETURNDATASIZE PUSH1 0x1F NOT PUSH1 0x1F DUP3 ADD AND DUP3 ADD DUP1 PUSH1 0x40 MSTORE POP DUP2 ADD SWAP1 PUSH2 0x4168 SWAP2 SWAP1 PUSH2 0x4E88 JUMP JUMPDEST POP PUSH1 0xB SLOAD PUSH1 0x1 PUSH1 0xA8 SHL SWAP1 DIV PUSH2 0xFFFF AND PUSH1 0x1 EQ ISZERO PUSH2 0x41E8 JUMPI PUSH20 0xC02AAA39B223FE8D0A0E5C4F27EAD9083C756CC2 PUSH1 0x1 PUSH1 0x1 PUSH1 0xA0 SHL SUB AND PUSH4 0xD0E30DB0 SELFBALANCE PUSH1 0x40 MLOAD DUP3 PUSH4 0xFFFFFFFF AND PUSH1 0xE0 SHL DUP2 MSTORE PUSH1 0x4 ADD PUSH1 0x0 PUSH1 0x40 MLOAD DUP1 DUP4 SUB DUP2 DUP6 DUP9 DUP1 EXTCODESIZE ISZERO DUP1 ISZERO PUSH2 0x41CE JUMPI PUSH1 0x0 DUP1 REVERT JUMPDEST POP GAS CALL ISZERO DUP1 ISZERO PUSH2 0x41E2 JUMPI RETURNDATASIZE PUSH1 0x0 DUP1 RETURNDATACOPY RETURNDATASIZE PUSH1 0x0 REVERT JUMPDEST POP POP POP POP POP JUMPDEST PUSH1 0x0 PUSH1 0xF SSTORE POP POP POP POP JUMP JUMPDEST PUSH1 0x0 DUP1 PUSH1 0x0 PUSH2 0x4200 PUSH2 0x23FB JUMP JUMPDEST PUSH1 0x2 SLOAD PUSH1 0x40 MLOAD PUSH4 0x39EBF823 PUSH1 0xE0 SHL DUP2 MSTORE SWAP2 SWAP3 POP PUSH1 0x0 SWAP2 PUSH1 0x1 PUSH1 0x1 PUSH1 0xA0 SHL SUB SWAP1 SWAP2 AND SWAP1 PUSH4 0x39EBF823 SWAP1 PUSH2 0x4236 SWAP1 ADDRESS SWAP1 PUSH1 0x4 ADD PUSH2 0x51F4 JUMP JUMPDEST PUSH2 0x120 PUSH1 0x40 MLOAD DUP1 DUP4 SUB DUP2 DUP7 DUP1 EXTCODESIZE ISZERO DUP1 ISZERO PUSH2 0x424F JUMPI PUSH1 0x0 DUP1 REVERT JUMPDEST POP GAS STATICCALL ISZERO DUP1 ISZERO PUSH2 0x4263 JUMPI RETURNDATASIZE PUSH1 0x0 DUP1 RETURNDATACOPY RETURNDATASIZE PUSH1 0x0 REVERT JUMPDEST POP POP POP POP PUSH1 0x40 MLOAD RETURNDATASIZE PUSH1 0x1F NOT PUSH1 0x1F DUP3 ADD AND DUP3 ADD DUP1 PUSH1 0x40 MSTORE POP DUP2 ADD SWAP1 PUSH2 0x4287 SWAP2 SWAP1 PUSH2 0x4FC3 JUMP JUMPDEST PUSH1 0xC0 ADD MLOAD SWAP1 POP DUP2 DUP2 GT ISZERO PUSH2 0x42A6 JUMPI PUSH2 0x429F DUP2 DUP4 PUSH2 0x35D9 JUMP JUMPDEST SWAP3 POP PUSH2 0x42B3 JUMP JUMPDEST PUSH2 0x42B0 DUP3 DUP3 PUSH2 0x35D9 JUMP JUMPDEST SWAP4 POP JUMPDEST POP POP SWAP1 SWAP2 JUMP JUMPDEST PUSH1 0xB SLOAD PUSH1 0x40 MLOAD PUSH4 0x497CF7E3 PUSH1 0xE0 SHL DUP2 MSTORE PUSH1 0x0 SWAP2 PUSH1 0x60 SWAP2 PUSH2 0x100 DUP3 DIV PUSH1 0x1 PUSH1 0x1 PUSH1 0xA0 SHL SUB AND SWAP2 PUSH4 0x497CF7E3 SWAP2 PUSH2 0x42FC SWAP2 PUSH1 0x1 PUSH1 0xA8 SHL SWAP1 DIV PUSH2 0xFFFF AND SWAP1 PUSH1 0x4 ADD PUSH2 0x56B5 JUMP JUMPDEST PUSH1 0x0 PUSH1 0x40 MLOAD DUP1 DUP4 SUB DUP2 DUP7 DUP1 EXTCODESIZE ISZERO DUP1 ISZERO PUSH2 0x4314 JUMPI PUSH1 0x0 DUP1 REVERT JUMPDEST POP GAS STATICCALL ISZERO DUP1 ISZERO PUSH2 0x4328 JUMPI RETURNDATASIZE PUSH1 0x0 DUP1 RETURNDATACOPY RETURNDATASIZE PUSH1 0x0 REVERT JUMPDEST POP POP POP POP PUSH1 0x40 MLOAD RETURNDATASIZE PUSH1 0x0 DUP3 RETURNDATACOPY PUSH1 0x1F RETURNDATASIZE SWAP1 DUP2 ADD PUSH1 0x1F NOT AND DUP3 ADD PUSH1 0x40 MSTORE PUSH2 0x4350 SWAP2 SWAP1 DUP2 ADD SWAP1 PUSH2 0x4CD3 JUMP JUMPDEST SWAP1 POP PUSH1 0x0 DUP1 JUMPDEST DUP3 MLOAD DUP2 LT ISZERO PUSH2 0x4393 JUMPI DUP3 DUP2 DUP2 MLOAD DUP2 LT PUSH2 0x436B JUMPI INVALID JUMPDEST PUSH1 0x20 MUL PUSH1 0x20 ADD ADD MLOAD PUSH1 0x20 ADD MLOAD DUP6 EQ ISZERO PUSH2 0x438B JUMPI PUSH1 0x1 ADD SWAP3 POP PUSH2 0x176E SWAP2 POP POP JUMP JUMPDEST PUSH1 0x1 ADD PUSH2 0x4356 JUMP JUMPDEST POP DUP1 PUSH2 0x43A4 JUMPI PUSH1 0x0 SWAP3 POP POP POP PUSH2 0x176E JUMP JUMPDEST POP POP SWAP2 SWAP1 POP JUMP JUMPDEST PUSH1 0xF8 SWAP3 SWAP1 SWAP3 SHL PUSH1 0x1 PUSH1 0x1 PUSH1 0xF8 SHL SUB NOT AND PUSH1 0xF0 SWAP2 SWAP1 SWAP2 SHL PUSH1 0xFF PUSH1 0xF0 SHL AND OR PUSH1 0x98 SWAP2 SWAP1 SWAP2 SHL PUSH11 0xFFFFFFFFFFFFFFFFFFFFFF PUSH1 0x98 SHL AND OR SWAP1 JUMP JUMPDEST PUSH1 0x40 DUP1 MLOAD PUSH1 0x1 DUP1 DUP3 MSTORE DUP2 DUP4 ADD SWAP1 SWAP3 MSTORE PUSH1 0x60 SWAP2 DUP2 PUSH1 0x20 ADD JUMPDEST PUSH2 0x4401 PUSH2 0x49DB JUMP JUMPDEST DUP2 MSTORE PUSH1 0x20 ADD SWAP1 PUSH1 0x1 SWAP1 SUB SWAP1 DUP2 PUSH2 0x43F9 JUMPI SWAP1 POP POP PUSH1 0xB SLOAD PUSH1 0x40 DUP1 MLOAD PUSH1 0xE0 DUP2 ADD SWAP1 SWAP2 MSTORE SWAP2 SWAP3 POP PUSH1 0x1 PUSH1 0xA8 SHL SWAP1 DIV PUSH2 0xFFFF AND SWAP1 DUP1 DUP10 PUSH1 0x6 DUP2 GT ISZERO PUSH2 0x443E JUMPI INVALID JUMPDEST DUP2 MSTORE PUSH1 0x20 ADD DUP3 PUSH2 0xFFFF AND DUP2 MSTORE PUSH1 0x20 ADD DUP9 DUP2 MSTORE PUSH1 0x20 ADD DUP8 DUP2 MSTORE PUSH1 0x20 ADD DUP7 ISZERO ISZERO DUP2 MSTORE PUSH1 0x20 ADD DUP6 ISZERO ISZERO DUP2 MSTORE PUSH1 0x20 ADD DUP5 DUP2 MSTORE POP DUP3 PUSH1 0x0 DUP2 MLOAD DUP2 LT PUSH2 0x447A JUMPI INVALID JUMPDEST PUSH1 0x20 MUL PUSH1 0x20 ADD ADD DUP2 SWAP1 MSTORE POP DUP1 PUSH2 0xFFFF AND PUSH1 0x1 EQ ISZERO PUSH2 0x4569 JUMPI PUSH1 0xB SLOAD PUSH1 0x40 MLOAD PUSH4 0x276B64B PUSH1 0xE0 SHL DUP2 MSTORE PUSH2 0x100 SWAP1 SWAP2 DIV PUSH1 0x1 PUSH1 0x1 PUSH1 0xA0 SHL SUB AND SWAP1 PUSH4 0x276B64B SWAP1 DUP10 SWAP1 PUSH2 0x44CA SWAP1 ADDRESS SWAP1 DUP8 SWAP1 PUSH1 0x4 ADD PUSH2 0x5240 JUMP JUMPDEST PUSH1 0x0 PUSH1 0x40 MLOAD DUP1 DUP4 SUB DUP2 DUP6 DUP9 DUP1 EXTCODESIZE ISZERO DUP1 ISZERO PUSH2 0x44E3 JUMPI PUSH1 0x0 DUP1 REVERT JUMPDEST POP GAS CALL ISZERO DUP1 ISZERO PUSH2 0x44F7 JUMPI RETURNDATASIZE PUSH1 0x0 DUP1 RETURNDATACOPY RETURNDATASIZE PUSH1 0x0 REVERT JUMPDEST POP POP POP POP POP PUSH20 0xC02AAA39B223FE8D0A0E5C4F27EAD9083C756CC2 PUSH1 0x1 PUSH1 0x1 PUSH1 0xA0 SHL SUB AND PUSH4 0xD0E30DB0 SELFBALANCE PUSH1 0x40 MLOAD DUP3 PUSH4 0xFFFFFFFF AND PUSH1 0xE0 SHL DUP2 MSTORE PUSH1 0x4 ADD PUSH1 0x0 PUSH1 0x40 MLOAD DUP1 DUP4 SUB DUP2 DUP6 DUP9 DUP1 EXTCODESIZE ISZERO DUP1 ISZERO PUSH2 0x454B JUMPI PUSH1 0x0 DUP1 REVERT JUMPDEST POP GAS CALL ISZERO DUP1 ISZERO PUSH2 0x455F JUMPI RETURNDATASIZE PUSH1 0x0 DUP1 RETURNDATACOPY RETURNDATASIZE PUSH1 0x0 REVERT JUMPDEST POP POP POP POP POP PUSH2 0x45D2 JUMP JUMPDEST PUSH1 0xB SLOAD PUSH1 0x40 MLOAD PUSH4 0x276B64B PUSH1 0xE0 SHL DUP2 MSTORE PUSH2 0x100 SWAP1 SWAP2 DIV PUSH1 0x1 PUSH1 0x1 PUSH1 0xA0 SHL SUB AND SWAP1 PUSH4 0x276B64B SWAP1 PUSH2 0x459F SWAP1 ADDRESS SWAP1 DUP7 SWAP1 PUSH1 0x4 ADD PUSH2 0x5240 JUMP JUMPDEST PUSH1 0x0 PUSH1 0x40 MLOAD DUP1 DUP4 SUB DUP2 PUSH1 0x0 DUP8 DUP1 EXTCODESIZE ISZERO DUP1 ISZERO PUSH2 0x45B9 JUMPI PUSH1 0x0 DUP1 REVERT JUMPDEST POP GAS CALL ISZERO DUP1 ISZERO PUSH2 0x45CD JUMPI RETURNDATASIZE PUSH1 0x0 DUP1 RETURNDATACOPY RETURNDATASIZE PUSH1 0x0 REVERT JUMPDEST POP POP POP POP JUMPDEST POP POP POP POP POP POP POP POP JUMP JUMPDEST PUSH1 0xB SLOAD PUSH1 0x40 MLOAD PUSH4 0x497CF7E3 PUSH1 0xE0 SHL DUP2 MSTORE PUSH1 0x0 SWAP2 DUP3 SWAP2 PUSH1 0x60 SWAP2 PUSH2 0x100 DUP2 DIV PUSH1 0x1 PUSH1 0x1 PUSH1 0xA0 SHL SUB AND SWAP2 PUSH4 0x497CF7E3 SWAP2 PUSH2 0x4622 SWAP2 PUSH1 0x1 PUSH1 0xA8 SHL SWAP1 SWAP2 DIV PUSH2 0xFFFF AND SWAP1 PUSH1 0x4 ADD PUSH2 0x56B5 JUMP JUMPDEST PUSH1 0x0 PUSH1 0x40 MLOAD DUP1 DUP4 SUB DUP2 DUP7 DUP1 EXTCODESIZE ISZERO DUP1 ISZERO PUSH2 0x463A JUMPI PUSH1 0x0 DUP1 REVERT JUMPDEST POP GAS STATICCALL ISZERO DUP1 ISZERO PUSH2 0x464E JUMPI RETURNDATASIZE PUSH1 0x0 DUP1 RETURNDATACOPY RETURNDATASIZE PUSH1 0x0 REVERT JUMPDEST POP POP POP POP PUSH1 0x40 MLOAD RETURNDATASIZE PUSH1 0x0 DUP3 RETURNDATACOPY PUSH1 0x1F RETURNDATASIZE SWAP1 DUP2 ADD PUSH1 0x1F NOT AND DUP3 ADD PUSH1 0x40 MSTORE PUSH2 0x4676 SWAP2 SWAP1 DUP2 ADD SWAP1 PUSH2 0x4CD3 JUMP JUMPDEST SWAP1 POP PUSH1 0x0 JUMPDEST DUP2 MLOAD DUP2 LT ISZERO PUSH2 0x42B3 JUMPI PUSH1 0xD SLOAD TIMESTAMP DUP4 DUP4 DUP2 MLOAD DUP2 LT PUSH2 0x4694 JUMPI INVALID JUMPDEST PUSH1 0x20 MUL PUSH1 0x20 ADD ADD MLOAD PUSH1 0x20 ADD MLOAD SUB LT PUSH2 0x46CD JUMPI DUP1 PUSH1 0x1 ADD DUP3 DUP3 DUP2 MLOAD DUP2 LT PUSH2 0x46B6 JUMPI INVALID JUMPDEST PUSH1 0x20 MUL PUSH1 0x20 ADD ADD MLOAD PUSH1 0x20 ADD MLOAD SWAP4 POP SWAP4 POP POP POP PUSH2 0x46D5 JUMP JUMPDEST PUSH1 0x1 ADD PUSH2 0x467B JUMP JUMPDEST SWAP1 SWAP2 JUMP JUMPDEST PUSH1 0x0 DUP1 PUSH2 0x46E4 PUSH2 0x3D1D JUMP JUMPDEST PUSH1 0xB SLOAD PUSH1 0x40 MLOAD PUSH4 0x5A9B7FDB PUSH1 0xE1 SHL DUP2 MSTORE SWAP2 SWAP3 POP PUSH1 0x60 SWAP2 PUSH2 0x100 SWAP1 SWAP2 DIV PUSH1 0x1 PUSH1 0x1 PUSH1 0xA0 SHL SUB AND SWAP1 PUSH4 0xB536FFB6 SWAP1 PUSH2 0x471E SWAP1 ADDRESS SWAP1 PUSH1 0x4 ADD PUSH2 0x51F4 JUMP JUMPDEST PUSH1 0x0 PUSH1 0x40 MLOAD DUP1 DUP4 SUB DUP2 DUP7 DUP1 EXTCODESIZE ISZERO DUP1 ISZERO PUSH2 0x4736 JUMPI PUSH1 0x0 DUP1 REVERT JUMPDEST POP GAS STATICCALL ISZERO DUP1 ISZERO PUSH2 0x474A JUMPI RETURNDATASIZE PUSH1 0x0 DUP1 RETURNDATACOPY RETURNDATASIZE PUSH1 0x0 REVERT JUMPDEST POP POP POP POP PUSH1 0x40 MLOAD RETURNDATASIZE PUSH1 0x0 DUP3 RETURNDATACOPY PUSH1 0x1F RETURNDATASIZE SWAP1 DUP2 ADD PUSH1 0x1F NOT AND DUP3 ADD PUSH1 0x40 MSTORE PUSH2 0x4772 SWAP2 SWAP1 DUP2 ADD SWAP1 PUSH2 0x4D77 JUMP JUMPDEST SWAP1 POP PUSH1 0x0 PUSH2 0x477F DUP6 PUSH2 0x42B9 JUMP JUMPDEST PUSH1 0x40 DUP1 MLOAD PUSH1 0x1 DUP1 DUP3 MSTORE DUP2 DUP4 ADD SWAP1 SWAP3 MSTORE SWAP2 SWAP3 POP PUSH1 0x60 SWAP2 SWAP1 PUSH1 0x20 DUP1 DUP4 ADD SWAP1 DUP1 CALLDATASIZE DUP4 CALLDATACOPY ADD SWAP1 POP POP SWAP1 POP PUSH2 0x47B8 PUSH1 0x1 DUP4 DUP6 PUSH1 0x0 DUP2 MLOAD DUP2 LT PUSH2 0x31D6 JUMPI INVALID JUMPDEST DUP2 PUSH1 0x0 DUP2 MLOAD DUP2 LT PUSH2 0x47C5 JUMPI INVALID JUMPDEST PUSH1 0x20 MUL PUSH1 0x20 ADD ADD DUP2 DUP2 MSTORE POP POP PUSH2 0x47E2 PUSH1 0x0 DUP1 PUSH1 0x0 PUSH1 0x1 DUP1 DUP7 PUSH2 0x43E2 JUMP JUMPDEST DUP4 PUSH2 0x47EB PUSH2 0x3D1D JUMP JUMPDEST SUB SWAP7 SWAP6 POP POP POP POP POP POP JUMP JUMPDEST PUSH1 0x0 DUP2 DUP5 DUP5 GT ISZERO PUSH2 0x481A JUMPI PUSH1 0x40 MLOAD PUSH3 0x461BCD PUSH1 0xE5 SHL DUP2 MSTORE PUSH1 0x4 ADD PUSH2 0x8D6 SWAP2 SWAP1 PUSH2 0x53DA JUMP JUMPDEST POP POP POP SWAP1 SUB SWAP1 JUMP JUMPDEST PUSH1 0x0 DUP2 EXTCODEHASH PUSH32 0xC5D2460186F7233C927E7DB2DCC703C0E500B653CA82273B7BFAD8045D85A470 DUP2 DUP2 EQ DUP1 ISZERO SWAP1 PUSH2 0x2A47 JUMPI POP POP ISZERO ISZERO SWAP3 SWAP2 POP POP JUMP JUMPDEST DUP3 DUP1 SLOAD PUSH1 0x1 DUP2 PUSH1 0x1 AND ISZERO PUSH2 0x100 MUL SUB AND PUSH1 0x2 SWAP1 DIV SWAP1 PUSH1 0x0 MSTORE PUSH1 0x20 PUSH1 0x0 KECCAK256 SWAP1 PUSH1 0x1F ADD PUSH1 0x20 SWAP1 DIV DUP2 ADD SWAP3 DUP3 PUSH1 0x1F LT PUSH2 0x489C JUMPI DUP3 DUP1 ADD PUSH1 0xFF NOT DUP3 CALLDATALOAD AND OR DUP6 SSTORE PUSH2 0x48C9 JUMP JUMPDEST DUP3 DUP1 ADD PUSH1 0x1 ADD DUP6 SSTORE DUP3 ISZERO PUSH2 0x48C9 JUMPI SWAP2 DUP3 ADD JUMPDEST DUP3 DUP2 GT ISZERO PUSH2 0x48C9 JUMPI DUP3 CALLDATALOAD DUP3 SSTORE SWAP2 PUSH1 0x20 ADD SWAP2 SWAP1 PUSH1 0x1 ADD SWAP1 PUSH2 0x48AE JUMP JUMPDEST POP PUSH2 0x48D5 SWAP3 SWAP2 POP PUSH2 0x4A21 JUMP JUMPDEST POP SWAP1 JUMP JUMPDEST PUSH1 0x40 MLOAD DUP1 PUSH2 0x120 ADD PUSH1 0x40 MSTORE DUP1 PUSH1 0x0 DUP2 MSTORE PUSH1 0x20 ADD PUSH1 0x0 DUP2 MSTORE PUSH1 0x20 ADD PUSH1 0x0 DUP2 MSTORE PUSH1 0x20 ADD PUSH1 0x0 DUP2 MSTORE PUSH1 0x20 ADD PUSH1 0x0 DUP2 MSTORE PUSH1 0x20 ADD PUSH1 0x0 DUP2 MSTORE PUSH1 0x20 ADD PUSH1 0x0 DUP2 MSTORE PUSH1 0x20 ADD PUSH1 0x0 DUP2 MSTORE PUSH1 0x20 ADD PUSH1 0x0 DUP2 MSTORE POP SWAP1 JUMP JUMPDEST PUSH1 0x40 DUP1 MLOAD PUSH1 0xA0 DUP2 ADD DUP3 MSTORE PUSH1 0x0 DUP1 DUP3 MSTORE PUSH1 0x20 DUP3 ADD DUP2 SWAP1 MSTORE SWAP2 DUP2 ADD DUP3 SWAP1 MSTORE SWAP1 PUSH1 0x60 DUP3 ADD SWAP1 DUP2 MSTORE PUSH1 0x20 ADD PUSH1 0x0 DUP2 MSTORE POP SWAP1 JUMP JUMPDEST PUSH1 0x40 MLOAD DUP1 PUSH1 0xA0 ADD PUSH1 0x40 MSTORE DUP1 PUSH1 0x0 DUP2 MSTORE PUSH1 0x20 ADD PUSH1 0x0 DUP2 MSTORE PUSH1 0x20 ADD PUSH1 0x0 DUP2 MSTORE PUSH1 0x20 ADD PUSH1 0x0 DUP2 MSTORE PUSH1 0x20 ADD PUSH1 0x0 DUP2 MSTORE POP SWAP1 JUMP JUMPDEST PUSH1 0x40 MLOAD DUP1 PUSH1 0x60 ADD PUSH1 0x40 MSTORE DUP1 PUSH1 0x0 PUSH1 0x1 PUSH1 0x1 PUSH1 0xA0 SHL SUB AND DUP2 MSTORE PUSH1 0x20 ADD PUSH1 0x0 DUP2 MSTORE PUSH1 0x20 ADD PUSH1 0x0 DUP2 MSTORE POP SWAP1 JUMP JUMPDEST PUSH1 0x40 DUP1 MLOAD PUSH1 0xA0 DUP2 ADD DUP3 MSTORE PUSH1 0x0 DUP1 DUP3 MSTORE PUSH1 0x20 DUP3 ADD DUP2 SWAP1 MSTORE SWAP2 DUP2 ADD DUP3 SWAP1 MSTORE PUSH1 0x60 DUP2 ADD DUP3 SWAP1 MSTORE PUSH1 0x80 DUP2 ADD SWAP2 SWAP1 SWAP2 MSTORE SWAP1 JUMP JUMPDEST PUSH1 0x40 DUP1 MLOAD PUSH1 0xE0 DUP2 ADD SWAP1 SWAP2 MSTORE DUP1 PUSH1 0x0 DUP2 MSTORE PUSH1 0x20 ADD PUSH1 0x0 PUSH2 0xFFFF AND DUP2 MSTORE PUSH1 0x20 ADD PUSH1 0x0 DUP2 MSTORE PUSH1 0x20 ADD PUSH1 0x0 DUP2 MSTORE PUSH1 0x20 ADD PUSH1 0x0 ISZERO ISZERO DUP2 MSTORE PUSH1 0x20 ADD PUSH1 0x0 ISZERO ISZERO DUP2 MSTORE PUSH1 0x20 ADD PUSH1 0x60 DUP2 MSTORE POP SWAP1 JUMP JUMPDEST JUMPDEST DUP1 DUP3 GT ISZERO PUSH2 0x48D5 JUMPI PUSH1 0x0 DUP2 SSTORE PUSH1 0x1 ADD PUSH2 0x4A22 JUMP JUMPDEST DUP1 MLOAD PUSH14 0xFFFFFFFFFFFFFFFFFFFFFFFFFFFF NOT DUP2 AND DUP2 EQ PUSH2 0x18D8 JUMPI PUSH1 0x0 DUP1 REVERT JUMPDEST PUSH1 0x0 DUP1 DUP4 PUSH1 0x1F DUP5 ADD SLT PUSH2 0x4A66 JUMPI DUP2 DUP3 REVERT JUMPDEST POP DUP2 CALLDATALOAD PUSH8 0xFFFFFFFFFFFFFFFF DUP2 GT ISZERO PUSH2 0x4A7D JUMPI DUP2 DUP3 REVERT JUMPDEST PUSH1 0x20 DUP4 ADD SWAP2 POP DUP4 PUSH1 0x20 DUP3 DUP6 ADD ADD GT ISZERO PUSH2 0x4A95 JUMPI PUSH1 0x0 DUP1 REVERT JUMPDEST SWAP3 POP SWAP3 SWAP1 POP JUMP JUMPDEST DUP1 MLOAD PUSH2 0x18D8 DUP2 PUSH2 0x5826 JUMP JUMPDEST DUP1 MLOAD PUSH1 0x4 DUP2 LT PUSH2 0x18D8 JUMPI PUSH1 0x0 DUP1 REVERT JUMPDEST PUSH1 0x0 PUSH2 0x100 DUP1 DUP4 DUP6 SUB SLT ISZERO PUSH2 0x4AC9 JUMPI DUP2 DUP3 REVERT JUMPDEST PUSH2 0x4AD2 DUP2 PUSH2 0x57B3 JUMP JUMPDEST SWAP2 POP POP DUP2 MLOAD DUP2 MSTORE PUSH1 0x20 DUP3 ADD MLOAD PUSH1 0x20 DUP3 ADD MSTORE PUSH1 0x40 DUP3 ADD MLOAD PUSH1 0x40 DUP3 ADD MSTORE PUSH1 0x60 DUP3 ADD MLOAD PUSH1 0x60 DUP3 ADD MSTORE PUSH1 0x80 DUP3 ADD MLOAD PUSH1 0x80 DUP3 ADD MSTORE PUSH1 0xA0 DUP3 ADD MLOAD PUSH1 0xA0 DUP3 ADD MSTORE PUSH1 0xC0 DUP3 ADD MLOAD PUSH1 0xC0 DUP3 ADD MSTORE PUSH1 0xE0 DUP3 ADD MLOAD PUSH1 0xE0 DUP3 ADD MSTORE SWAP3 SWAP2 POP POP JUMP JUMPDEST PUSH1 0x0 PUSH1 0xA0 DUP3 DUP5 SUB SLT ISZERO PUSH2 0x4B36 JUMPI DUP1 DUP2 REVERT JUMPDEST PUSH2 0x4B40 PUSH1 0xA0 PUSH2 0x57B3 JUMP JUMPDEST SWAP1 POP DUP2 MLOAD PUSH2 0x4B4D DUP2 PUSH2 0x5826 JUMP JUMPDEST DUP2 MSTORE PUSH1 0x20 DUP3 ADD MLOAD PUSH2 0x4B5D DUP2 PUSH2 0x583B JUMP JUMPDEST PUSH1 0x20 DUP3 ADD MSTORE PUSH1 0x40 DUP3 DUP2 ADD MLOAD SWAP1 DUP3 ADD MSTORE PUSH1 0x60 DUP3 ADD MLOAD PUSH1 0x5 DUP2 LT PUSH2 0x4B7E JUMPI PUSH1 0x0 DUP1 REVERT JUMPDEST DUP1 PUSH1 0x60 DUP4 ADD MSTORE POP PUSH1 0x80 DUP3 ADD MLOAD PUSH1 0x80 DUP3 ADD MSTORE SWAP3 SWAP2 POP POP JUMP JUMPDEST DUP1 MLOAD PUSH2 0x18D8 DUP2 PUSH2 0x5849 JUMP JUMPDEST PUSH1 0x0 PUSH1 0x20 DUP3 DUP5 SUB SLT ISZERO PUSH2 0x4BB1 JUMPI DUP1 DUP2 REVERT JUMPDEST DUP2 CALLDATALOAD PUSH2 0x29EF DUP2 PUSH2 0x5826 JUMP JUMPDEST PUSH1 0x0 PUSH1 0x20 DUP3 DUP5 SUB SLT ISZERO PUSH2 0x4BCD JUMPI DUP1 DUP2 REVERT JUMPDEST DUP2 MLOAD PUSH2 0x29EF DUP2 PUSH2 0x5826 JUMP JUMPDEST PUSH1 0x0 DUP1 PUSH1 0x0 DUP1 PUSH1 0x0 DUP1 PUSH1 0xC0 DUP8 DUP10 SUB SLT ISZERO PUSH2 0x4BF0 JUMPI DUP2 DUP3 REVERT JUMPDEST DUP7 CALLDATALOAD PUSH2 0x4BFB DUP2 PUSH2 0x5826 JUMP JUMPDEST SWAP6 POP PUSH1 0x20 DUP8 ADD CALLDATALOAD PUSH2 0x4C0B DUP2 PUSH2 0x5826 JUMP JUMPDEST SWAP5 POP PUSH1 0x40 DUP8 ADD CALLDATALOAD PUSH2 0x4C1B DUP2 PUSH2 0x5826 JUMP JUMPDEST SWAP4 POP PUSH1 0x60 DUP8 ADD CALLDATALOAD PUSH2 0x4C2B DUP2 PUSH2 0x5826 JUMP JUMPDEST SWAP3 POP PUSH1 0x80 DUP8 ADD CALLDATALOAD PUSH2 0x4C3B DUP2 PUSH2 0x5826 JUMP JUMPDEST SWAP2 POP PUSH1 0xA0 DUP8 ADD CALLDATALOAD PUSH2 0x4C4B DUP2 PUSH2 0x5849 JUMP JUMPDEST DUP1 SWAP2 POP POP SWAP3 SWAP6 POP SWAP3 SWAP6 POP SWAP3 SWAP6 JUMP JUMPDEST PUSH1 0x0 DUP1 PUSH1 0x0 DUP1 PUSH1 0x0 DUP1 PUSH1 0xA0 DUP8 DUP10 SUB SLT ISZERO PUSH2 0x4C71 JUMPI DUP4 DUP5 REVERT JUMPDEST DUP7 CALLDATALOAD PUSH2 0x4C7C DUP2 PUSH2 0x5826 JUMP JUMPDEST SWAP6 POP PUSH1 0x20 DUP8 ADD CALLDATALOAD PUSH2 0x4C8C DUP2 PUSH2 0x5826 JUMP JUMPDEST SWAP5 POP PUSH1 0x40 DUP8 ADD CALLDATALOAD SWAP4 POP PUSH1 0x60 DUP8 ADD CALLDATALOAD SWAP3 POP PUSH1 0x80 DUP8 ADD CALLDATALOAD PUSH8 0xFFFFFFFFFFFFFFFF DUP2 GT ISZERO PUSH2 0x4CB5 JUMPI DUP3 DUP4 REVERT JUMPDEST PUSH2 0x4CC1 DUP10 DUP3 DUP11 ADD PUSH2 0x4A55 JUMP JUMPDEST SWAP8 SWAP11 SWAP7 SWAP10 POP SWAP5 SWAP8 POP SWAP3 SWAP6 SWAP4 SWAP5 SWAP3 POP POP POP JUMP JUMPDEST PUSH1 0x0 PUSH1 0x20 DUP1 DUP4 DUP6 SUB SLT ISZERO PUSH2 0x4CE5 JUMPI DUP2 DUP3 REVERT JUMPDEST DUP3 MLOAD PUSH8 0xFFFFFFFFFFFFFFFF DUP2 GT ISZERO PUSH2 0x4CFB JUMPI DUP3 DUP4 REVERT JUMPDEST DUP4 ADD PUSH1 0x1F DUP2 ADD DUP6 SGT PUSH2 0x4D0B JUMPI DUP3 DUP4 REVERT JUMPDEST DUP1 MLOAD PUSH2 0x4D1E PUSH2 0x4D19 DUP3 PUSH2 0x57DA JUMP JUMPDEST PUSH2 0x57B3 JUMP JUMPDEST DUP2 DUP2 MSTORE DUP4 DUP2 ADD SWAP1 DUP4 DUP6 ADD PUSH2 0x100 DUP1 DUP6 MUL DUP7 ADD DUP8 ADD DUP11 LT ISZERO PUSH2 0x4D3D JUMPI DUP8 DUP9 REVERT JUMPDEST DUP8 SWAP6 POP JUMPDEST DUP5 DUP7 LT ISZERO PUSH2 0x4D69 JUMPI PUSH2 0x4D53 DUP11 DUP4 PUSH2 0x4AB6 JUMP JUMPDEST DUP5 MSTORE PUSH1 0x1 SWAP6 SWAP1 SWAP6 ADD SWAP5 SWAP3 DUP7 ADD SWAP3 SWAP1 DUP2 ADD SWAP1 PUSH2 0x4D41 JUMP JUMPDEST POP SWAP1 SWAP9 SWAP8 POP POP POP POP POP POP POP POP JUMP JUMPDEST PUSH1 0x0 PUSH1 0x20 DUP1 DUP4 DUP6 SUB SLT ISZERO PUSH2 0x4D89 JUMPI DUP2 DUP3 REVERT JUMPDEST DUP3 MLOAD PUSH8 0xFFFFFFFFFFFFFFFF DUP2 GT ISZERO PUSH2 0x4D9F JUMPI DUP3 DUP4 REVERT JUMPDEST DUP4 ADD PUSH1 0x1F DUP2 ADD DUP6 SGT PUSH2 0x4DAF JUMPI DUP3 DUP4 REVERT JUMPDEST DUP1 MLOAD PUSH2 0x4DBD PUSH2 0x4D19 DUP3 PUSH2 0x57DA JUMP JUMPDEST DUP2 DUP2 MSTORE DUP4 DUP2 ADD SWAP1 DUP4 DUP6 ADD PUSH1 0xC0 DUP1 DUP6 MUL DUP7 ADD DUP8 ADD DUP11 LT ISZERO PUSH2 0x4DDB JUMPI DUP8 DUP9 REVERT JUMPDEST DUP8 SWAP6 POP JUMPDEST DUP5 DUP7 LT ISZERO PUSH2 0x4D69 JUMPI DUP1 DUP3 DUP12 SUB SLT ISZERO PUSH2 0x4DF5 JUMPI DUP8 DUP9 REVERT JUMPDEST PUSH2 0x4DFE DUP2 PUSH2 0x57B3 JUMP JUMPDEST DUP3 MLOAD DUP2 MSTORE DUP8 DUP4 ADD MLOAD DUP9 DUP3 ADD MSTORE PUSH1 0x40 DUP1 DUP5 ADD MLOAD SWAP1 DUP3 ADD MSTORE PUSH1 0x60 DUP1 DUP5 ADD MLOAD SWAP1 DUP3 ADD MSTORE PUSH1 0x80 DUP1 DUP5 ADD MLOAD SWAP1 DUP3 ADD MSTORE PUSH1 0xA0 PUSH2 0x4E36 DUP13 DUP3 DUP7 ADD PUSH2 0x4AA7 JUMP JUMPDEST SWAP1 DUP3 ADD MSTORE DUP5 MSTORE PUSH1 0x1 SWAP6 SWAP1 SWAP6 ADD SWAP5 SWAP3 DUP7 ADD SWAP3 SWAP1 DUP2 ADD SWAP1 PUSH2 0x4DDF JUMP JUMPDEST PUSH1 0x0 PUSH1 0x20 DUP3 DUP5 SUB SLT ISZERO PUSH2 0x4E61 JUMPI DUP1 DUP2 REVERT JUMPDEST DUP2 CALLDATALOAD PUSH2 0x29EF DUP2 PUSH2 0x583B JUMP JUMPDEST PUSH1 0x0 PUSH1 0x20 DUP3 DUP5 SUB SLT ISZERO PUSH2 0x4E7D JUMPI DUP1 DUP2 REVERT JUMPDEST DUP2 MLOAD PUSH2 0x29EF DUP2 PUSH2 0x583B JUMP JUMPDEST PUSH1 0x0 PUSH1 0x20 DUP3 DUP5 SUB SLT ISZERO PUSH2 0x4E99 JUMPI DUP1 DUP2 REVERT JUMPDEST POP MLOAD SWAP2 SWAP1 POP JUMP JUMPDEST PUSH1 0x0 DUP1 PUSH1 0x40 DUP4 DUP6 SUB SLT ISZERO PUSH2 0x4EB2 JUMPI DUP2 DUP3 REVERT JUMPDEST POP POP DUP1 MLOAD PUSH1 0x20 SWAP1 SWAP2 ADD MLOAD SWAP1 SWAP3 SWAP1 SWAP2 POP JUMP JUMPDEST PUSH1 0x0 DUP1 PUSH1 0x0 PUSH1 0x60 DUP5 DUP7 SUB SLT ISZERO PUSH2 0x4ED7 JUMPI DUP1 DUP2 REVERT JUMPDEST DUP4 MLOAD SWAP3 POP PUSH1 0x20 DUP5 ADD MLOAD SWAP2 POP PUSH1 0x40 DUP5 ADD MLOAD SWAP1 POP SWAP3 POP SWAP3 POP SWAP3 JUMP JUMPDEST PUSH1 0x0 DUP1 PUSH1 0x20 DUP4 DUP6 SUB SLT ISZERO PUSH2 0x4F02 JUMPI DUP2 DUP3 REVERT JUMPDEST DUP3 CALLDATALOAD PUSH8 0xFFFFFFFFFFFFFFFF DUP2 GT ISZERO PUSH2 0x4F18 JUMPI DUP3 DUP4 REVERT JUMPDEST PUSH2 0x4F24 DUP6 DUP3 DUP7 ADD PUSH2 0x4A55 JUMP JUMPDEST SWAP1 SWAP7 SWAP1 SWAP6 POP SWAP4 POP POP POP POP JUMP JUMPDEST PUSH1 0x0 PUSH1 0xA0 DUP3 DUP5 SUB SLT ISZERO PUSH2 0x4F41 JUMPI DUP1 DUP2 REVERT JUMPDEST PUSH2 0x4F4B PUSH1 0xA0 PUSH2 0x57B3 JUMP JUMPDEST DUP3 MLOAD PUSH5 0xFFFFFFFFFF DUP2 AND DUP2 EQ PUSH2 0x4F5F JUMPI DUP3 DUP4 REVERT JUMPDEST DUP2 MSTORE PUSH1 0x20 DUP4 ADD MLOAD PUSH1 0x1 PUSH1 0x1 PUSH1 0xF8 SHL SUB NOT DUP2 AND DUP2 EQ PUSH2 0x4F7B JUMPI DUP3 DUP4 REVERT JUMPDEST PUSH1 0x20 DUP3 ADD MSTORE PUSH1 0x40 DUP4 ADD MLOAD PUSH1 0xFF DUP2 AND DUP2 EQ PUSH2 0x4F93 JUMPI DUP3 DUP4 REVERT JUMPDEST PUSH1 0x40 DUP3 ADD MSTORE PUSH2 0x4FA5 DUP5 PUSH1 0x60 DUP6 ADD PUSH2 0x4B95 JUMP JUMPDEST PUSH1 0x60 DUP3 ADD MSTORE PUSH2 0x4FB7 DUP5 PUSH1 0x80 DUP6 ADD PUSH2 0x4A36 JUMP JUMPDEST PUSH1 0x80 DUP3 ADD MSTORE SWAP4 SWAP3 POP POP POP JUMP JUMPDEST PUSH1 0x0 PUSH2 0x120 DUP1 DUP4 DUP6 SUB SLT ISZERO PUSH2 0x4FD6 JUMPI DUP2 DUP3 REVERT JUMPDEST PUSH2 0x4FDF DUP2 PUSH2 0x57B3 JUMP JUMPDEST SWAP1 POP DUP3 MLOAD DUP2 MSTORE PUSH1 0x20 DUP4 ADD MLOAD PUSH1 0x20 DUP3 ADD MSTORE PUSH1 0x40 DUP4 ADD MLOAD PUSH1 0x40 DUP3 ADD MSTORE PUSH1 0x60 DUP4 ADD MLOAD PUSH1 0x60 DUP3 ADD MSTORE PUSH1 0x80 DUP4 ADD MLOAD PUSH1 0x80 DUP3 ADD MSTORE PUSH1 0xA0 DUP4 ADD MLOAD PUSH1 0xA0 DUP3 ADD MSTORE PUSH1 0xC0 DUP4 ADD MLOAD PUSH1 0xC0 DUP3 ADD MSTORE PUSH1 0xE0 DUP4 ADD MLOAD PUSH1 0xE0 DUP3 ADD MSTORE PUSH2 0x100 DUP1 DUP5 ADD MLOAD DUP2 DUP4 ADD MSTORE POP DUP1 SWAP2 POP POP SWAP3 SWAP2 POP POP JUMP JUMPDEST PUSH1 0x0 DUP1 PUSH2 0x140 DUP4 DUP6 SUB SLT ISZERO PUSH2 0x5054 JUMPI DUP2 DUP3 REVERT JUMPDEST PUSH2 0x505E DUP5 DUP5 PUSH2 0x4B25 JUMP JUMPDEST SWAP2 POP PUSH2 0x506D DUP5 PUSH1 0xA0 DUP6 ADD PUSH2 0x4B25 JUMP JUMPDEST SWAP1 POP SWAP3 POP SWAP3 SWAP1 POP JUMP JUMPDEST PUSH1 0x0 DUP1 PUSH1 0x0 DUP1 DUP5 DUP7 SUB PUSH2 0x240 DUP2 SLT ISZERO PUSH2 0x508D JUMPI DUP3 DUP4 REVERT JUMPDEST PUSH2 0x5097 DUP8 DUP8 PUSH2 0x4B25 JUMP JUMPDEST SWAP5 POP PUSH2 0x50A6 DUP8 PUSH1 0xA0 DUP9 ADD PUSH2 0x4B25 JUMP JUMPDEST SWAP4 POP PUSH1 0xA0 PUSH2 0x13F NOT DUP3 ADD SLT ISZERO PUSH2 0x50BA JUMPI DUP3 DUP4 REVERT JUMPDEST PUSH2 0x50C4 PUSH1 0xA0 PUSH2 0x57B3 JUMP JUMPDEST PUSH2 0x140 DUP8 ADD MLOAD DUP2 MSTORE PUSH2 0x160 DUP8 ADD MLOAD PUSH1 0x20 DUP3 ADD MSTORE PUSH2 0x180 DUP8 ADD MLOAD PUSH1 0x40 DUP3 ADD MSTORE PUSH2 0x1A0 DUP8 ADD MLOAD PUSH1 0x60 DUP3 ADD MSTORE PUSH2 0x1C0 DUP8 ADD MLOAD PUSH1 0x80 DUP3 ADD MSTORE DUP1 SWAP4 POP POP PUSH1 0x60 PUSH2 0x1DF NOT DUP3 ADD SLT ISZERO PUSH2 0x510E JUMPI DUP2 DUP3 REVERT JUMPDEST POP PUSH2 0x5119 PUSH1 0x60 PUSH2 0x57B3 JUMP JUMPDEST PUSH2 0x5127 DUP8 PUSH2 0x1E0 DUP9 ADD PUSH2 0x4A9C JUMP JUMPDEST DUP2 MSTORE PUSH2 0x200 DUP7 ADD MLOAD PUSH1 0x20 DUP3 ADD MSTORE PUSH2 0x220 SWAP1 SWAP6 ADD MLOAD PUSH1 0x40 DUP7 ADD MSTORE POP SWAP2 SWAP5 SWAP1 SWAP4 POP SWAP1 SWAP2 SWAP1 JUMP JUMPDEST PUSH1 0x0 PUSH1 0x20 DUP3 DUP5 SUB SLT ISZERO PUSH2 0x515C JUMPI DUP1 DUP2 REVERT JUMPDEST DUP2 CALLDATALOAD PUSH2 0x29EF DUP2 PUSH2 0x5849 JUMP JUMPDEST PUSH1 0x0 PUSH1 0x20 DUP3 DUP5 SUB SLT ISZERO PUSH2 0x5178 JUMPI DUP1 DUP2 REVERT JUMPDEST POP CALLDATALOAD SWAP2 SWAP1 POP JUMP JUMPDEST PUSH1 0x0 DUP2 MLOAD DUP1 DUP5 MSTORE PUSH1 0x20 DUP1 DUP6 ADD SWAP5 POP DUP1 DUP5 ADD DUP4 JUMPDEST DUP4 DUP2 LT ISZERO PUSH2 0x51AE JUMPI DUP2 MLOAD DUP8 MSTORE SWAP6 DUP3 ADD SWAP6 SWAP1 DUP3 ADD SWAP1 PUSH1 0x1 ADD PUSH2 0x5192 JUMP JUMPDEST POP SWAP5 SWAP6 SWAP5 POP POP POP POP POP JUMP JUMPDEST ISZERO ISZERO SWAP1 MSTORE JUMP JUMPDEST PUSH1 0x7 DUP2 LT PUSH2 0x51C9 JUMPI INVALID JUMPDEST SWAP1 MSTORE JUMP JUMPDEST PUSH2 0xFFFF AND SWAP1 MSTORE JUMP JUMPDEST PUSH1 0x0 DUP3 MLOAD PUSH2 0x51E7 DUP2 DUP5 PUSH1 0x20 DUP8 ADD PUSH2 0x57FA JUMP JUMPDEST SWAP2 SWAP1 SWAP2 ADD SWAP3 SWAP2 POP POP JUMP JUMPDEST SWAP1 JUMP JUMPDEST PUSH1 0x1 PUSH1 0x1 PUSH1 0xA0 SHL SUB SWAP2 SWAP1 SWAP2 AND DUP2 MSTORE PUSH1 0x20 ADD SWAP1 JUMP JUMPDEST PUSH1 0x1 PUSH1 0x1 PUSH1 0xA0 SHL SUB SWAP5 DUP6 AND DUP2 MSTORE SWAP3 SWAP1 SWAP4 AND PUSH1 0x20 DUP4 ADD MSTORE PUSH1 0x40 DUP3 ADD MSTORE PUSH1 0x60 DUP2 ADD SWAP2 SWAP1 SWAP2 MSTORE PUSH1 0xA0 PUSH1 0x80 DUP3 ADD DUP2 SWAP1 MSTORE PUSH1 0x0 SWAP1 DUP3 ADD MSTORE PUSH1 0xC0 ADD SWAP1 JUMP JUMPDEST PUSH1 0x1 PUSH1 0x1 PUSH1 0xA0 SHL SUB DUP4 AND DUP2 MSTORE PUSH1 0x40 PUSH1 0x20 DUP1 DUP4 ADD DUP3 SWAP1 MSTORE DUP4 MLOAD DUP4 DUP4 ADD DUP2 SWAP1 MSTORE PUSH1 0x0 SWAP3 SWAP2 PUSH1 0x60 SWAP2 DUP3 DUP7 ADD SWAP1 DUP1 DUP4 MUL DUP8 ADD DUP5 ADD DUP9 DUP5 ADD DUP8 JUMPDEST DUP4 DUP2 LT ISZERO PUSH2 0x530A JUMPI PUSH1 0x5F NOT DUP11 DUP5 SUB ADD DUP6 MSTORE DUP2 MLOAD PUSH1 0xE0 PUSH2 0x5295 DUP6 DUP4 MLOAD PUSH2 0x51BF JUMP JUMPDEST DUP8 DUP3 ADD MLOAD PUSH2 0x52A5 DUP10 DUP8 ADD DUP3 PUSH2 0x51CD JUMP JUMPDEST POP DUP10 DUP3 ADD MLOAD DUP11 DUP7 ADD MSTORE DUP9 DUP3 ADD MLOAD DUP10 DUP7 ADD MSTORE PUSH1 0x80 DUP1 DUP4 ADD MLOAD PUSH2 0x52C8 DUP3 DUP9 ADD DUP3 PUSH2 0x51B9 JUMP JUMPDEST POP POP PUSH1 0xA0 DUP1 DUP4 ADD MLOAD PUSH2 0x52DC DUP3 DUP9 ADD DUP3 PUSH2 0x51B9 JUMP JUMPDEST POP POP PUSH1 0xC0 SWAP2 DUP3 ADD MLOAD SWAP2 DUP6 ADD DUP2 SWAP1 MSTORE PUSH2 0x52F6 DUP6 DUP3 ADD DUP4 PUSH2 0x517F JUMP JUMPDEST SWAP7 DUP9 ADD SWAP7 SWAP5 POP POP POP SWAP1 DUP6 ADD SWAP1 PUSH1 0x1 ADD PUSH2 0x5275 JUMP JUMPDEST POP SWAP1 SWAP11 SWAP10 POP POP POP POP POP POP POP POP POP POP JUMP JUMPDEST PUSH1 0x1 PUSH1 0x1 PUSH1 0xA0 SHL SUB SWAP3 DUP4 AND DUP2 MSTORE SWAP2 AND PUSH1 0x20 DUP3 ADD MSTORE PUSH1 0x40 ADD SWAP1 JUMP JUMPDEST PUSH1 0x1 PUSH1 0x1 PUSH1 0xA0 SHL SUB SWAP7 DUP8 AND DUP2 MSTORE SWAP5 DUP7 AND PUSH1 0x20 DUP7 ADD MSTORE SWAP3 DUP6 AND PUSH1 0x40 DUP6 ADD MSTORE SWAP1 DUP5 AND PUSH1 0x60 DUP5 ADD MSTORE SWAP1 SWAP3 AND PUSH1 0x80 DUP3 ADD MSTORE PUSH2 0xFFFF SWAP1 SWAP2 AND PUSH1 0xA0 DUP3 ADD MSTORE PUSH1 0xC0 ADD SWAP1 JUMP JUMPDEST PUSH1 0x1 PUSH1 0x1 PUSH1 0xA0 SHL SUB SWAP3 SWAP1 SWAP3 AND DUP3 MSTORE PUSH1 0x20 DUP3 ADD MSTORE PUSH1 0x40 ADD SWAP1 JUMP JUMPDEST SWAP1 ISZERO ISZERO DUP2 MSTORE PUSH1 0x20 ADD SWAP1 JUMP JUMPDEST PUSH1 0x1 PUSH1 0x1 PUSH1 0xE0 SHL SUB NOT SWAP2 SWAP1 SWAP2 AND DUP2 MSTORE PUSH1 0x20 ADD SWAP1 JUMP JUMPDEST PUSH1 0x0 PUSH1 0x20 DUP3 MSTORE DUP3 PUSH1 0x20 DUP4 ADD MSTORE DUP3 DUP5 PUSH1 0x40 DUP5 ADD CALLDATACOPY DUP2 DUP4 ADD PUSH1 0x40 SWAP1 DUP2 ADD SWAP2 SWAP1 SWAP2 MSTORE PUSH1 0x1F SWAP1 SWAP3 ADD PUSH1 0x1F NOT AND ADD ADD SWAP2 SWAP1 POP JUMP JUMPDEST PUSH1 0x0 PUSH1 0x20 DUP3 MSTORE DUP3 MLOAD DUP1 PUSH1 0x20 DUP5 ADD MSTORE PUSH2 0x53F9 DUP2 PUSH1 0x40 DUP6 ADD PUSH1 0x20 DUP8 ADD PUSH2 0x57FA JUMP JUMPDEST PUSH1 0x1F ADD PUSH1 0x1F NOT AND SWAP2 SWAP1 SWAP2 ADD PUSH1 0x40 ADD SWAP3 SWAP2 POP POP JUMP JUMPDEST PUSH1 0x20 DUP1 DUP3 MSTORE PUSH1 0xB SWAP1 DUP3 ADD MSTORE PUSH11 0x85CDD1C985D1959DA5CDD PUSH1 0xAA SHL PUSH1 0x40 DUP3 ADD MSTORE PUSH1 0x60 ADD SWAP1 JUMP JUMPDEST PUSH1 0x20 DUP1 DUP3 MSTORE PUSH1 0x5 SWAP1 DUP3 ADD MSTORE PUSH5 0x85DD85B9D PUSH1 0xDA SHL PUSH1 0x40 DUP3 ADD MSTORE PUSH1 0x60 ADD SWAP1 JUMP JUMPDEST PUSH1 0x20 DUP1 DUP3 MSTORE PUSH1 0x1B SWAP1 DUP3 ADD MSTORE PUSH32 0x536166654D6174683A206164646974696F6E206F766572666C6F770000000000 PUSH1 0x40 DUP3 ADD MSTORE PUSH1 0x60 ADD SWAP1 JUMP JUMPDEST PUSH1 0x20 DUP1 DUP3 MSTORE PUSH1 0x14 SWAP1 DUP3 ADD MSTORE PUSH20 0x2330B4B632B2103A379039B2B7321022BA3432B9 PUSH1 0x61 SHL PUSH1 0x40 DUP3 ADD MSTORE PUSH1 0x60 ADD SWAP1 JUMP JUMPDEST PUSH1 0x20 DUP1 DUP3 MSTORE PUSH1 0xC SWAP1 DUP3 ADD MSTORE PUSH12 0x216865616C7468636865636B PUSH1 0xA0 SHL PUSH1 0x40 DUP3 ADD MSTORE PUSH1 0x60 ADD SWAP1 JUMP JUMPDEST PUSH1 0x20 DUP1 DUP3 MSTORE PUSH1 0x1C SWAP1 DUP3 ADD MSTORE PUSH32 0x537472617465677920616C726561647920696E697469616C697A656400000000 PUSH1 0x40 DUP3 ADD MSTORE PUSH1 0x60 ADD SWAP1 JUMP JUMPDEST PUSH1 0x20 DUP1 DUP3 MSTORE PUSH1 0x21 SWAP1 DUP3 ADD MSTORE PUSH32 0x536166654D6174683A206D756C7469706C69636174696F6E206F766572666C6F PUSH1 0x40 DUP3 ADD MSTORE PUSH1 0x77 PUSH1 0xF8 SHL PUSH1 0x60 DUP3 ADD MSTORE PUSH1 0x80 ADD SWAP1 JUMP JUMPDEST PUSH1 0x20 DUP1 DUP3 MSTORE PUSH1 0x6 SWAP1 DUP3 ADD MSTORE PUSH6 0x85D985D5B1D PUSH1 0xD2 SHL PUSH1 0x40 DUP3 ADD MSTORE PUSH1 0x60 ADD SWAP1 JUMP JUMPDEST PUSH1 0x20 DUP1 DUP3 MSTORE PUSH1 0x7 SWAP1 DUP3 ADD MSTORE PUSH7 0x21736861726573 PUSH1 0xC8 SHL PUSH1 0x40 DUP3 ADD MSTORE PUSH1 0x60 ADD SWAP1 JUMP JUMPDEST PUSH1 0x20 DUP1 DUP3 MSTORE PUSH1 0x1D SWAP1 DUP3 ADD MSTORE PUSH32 0x416464726573733A2063616C6C20746F206E6F6E2D636F6E7472616374000000 PUSH1 0x40 DUP3 ADD MSTORE PUSH1 0x60 ADD SWAP1 JUMP JUMPDEST PUSH1 0x20 DUP1 DUP3 MSTORE PUSH1 0xB SWAP1 DUP3 ADD MSTORE PUSH11 0x8585D5D1A1BDC9A5E9959 PUSH1 0xAA SHL PUSH1 0x40 DUP3 ADD MSTORE PUSH1 0x60 ADD SWAP1 JUMP JUMPDEST PUSH1 0x20 DUP1 DUP3 MSTORE PUSH1 0x2A SWAP1 DUP3 ADD MSTORE PUSH32 0x5361666545524332303A204552433230206F7065726174696F6E20646964206E PUSH1 0x40 DUP3 ADD MSTORE PUSH10 0x1BDD081CDD58D8D95959 PUSH1 0xB2 SHL PUSH1 0x60 DUP3 ADD MSTORE PUSH1 0x80 ADD SWAP1 JUMP JUMPDEST PUSH1 0x20 DUP1 DUP3 MSTORE PUSH1 0xA SWAP1 DUP3 ADD MSTORE PUSH10 0x85C1C9BDD1958DD1959 PUSH1 0xB2 SHL PUSH1 0x40 DUP3 ADD MSTORE PUSH1 0x60 ADD SWAP1 JUMP JUMPDEST PUSH1 0x20 DUP1 DUP3 MSTORE PUSH1 0x36 SWAP1 DUP3 ADD MSTORE PUSH32 0x5361666545524332303A20617070726F76652066726F6D206E6F6E2D7A65726F PUSH1 0x40 DUP3 ADD MSTORE PUSH22 0x20746F206E6F6E2D7A65726F20616C6C6F77616E6365 PUSH1 0x50 SHL PUSH1 0x60 DUP3 ADD MSTORE PUSH1 0x80 ADD SWAP1 JUMP JUMPDEST PUSH2 0xFFFF SWAP2 SWAP1 SWAP2 AND DUP2 MSTORE PUSH1 0x20 ADD SWAP1 JUMP JUMPDEST PUSH2 0xFFFF SWAP3 SWAP1 SWAP3 AND DUP3 MSTORE PUSH1 0x1 PUSH1 0x1 PUSH1 0xA0 SHL SUB AND PUSH1 0x20 DUP3 ADD MSTORE PUSH1 0x40 ADD SWAP1 JUMP JUMPDEST PUSH2 0xFFFF SWAP5 SWAP1 SWAP5 AND DUP5 MSTORE PUSH1 0xA SWAP3 SWAP1 SWAP3 SIGNEXTEND PUSH1 0x20 DUP5 ADD MSTORE PUSH1 0x40 DUP4 ADD MSTORE PUSH1 0x60 DUP3 ADD MSTORE PUSH1 0x80 ADD SWAP1 JUMP JUMPDEST PUSH2 0xFFFF SWAP4 SWAP1 SWAP4 AND DUP4 MSTORE PUSH5 0xFFFFFFFFFF SWAP2 SWAP1 SWAP2 AND PUSH1 0x20 DUP4 ADD MSTORE PUSH1 0xFF AND PUSH1 0x40 DUP3 ADD MSTORE PUSH1 0x60 ADD SWAP1 JUMP JUMPDEST PUSH2 0xFFFF SWAP4 SWAP1 SWAP4 AND DUP4 MSTORE PUSH11 0xFFFFFFFFFFFFFFFFFFFFFF SWAP2 SWAP1 SWAP2 AND PUSH1 0x20 DUP4 ADD MSTORE ISZERO ISZERO PUSH1 0x40 DUP3 ADD MSTORE PUSH1 0x60 ADD SWAP1 JUMP JUMPDEST SWAP1 DUP2 MSTORE PUSH1 0x20 ADD SWAP1 JUMP JUMPDEST SWAP3 DUP4 MSTORE PUSH1 0x20 DUP4 ADD SWAP2 SWAP1 SWAP2 MSTORE PUSH1 0x40 DUP3 ADD MSTORE PUSH1 0x60 ADD SWAP1 JUMP JUMPDEST SWAP4 DUP5 MSTORE PUSH1 0x20 DUP5 ADD SWAP3 SWAP1 SWAP3 MSTORE PUSH1 0x40 DUP4 ADD MSTORE PUSH1 0x60 DUP3 ADD MSTORE PUSH1 0x80 ADD SWAP1 JUMP JUMPDEST SWAP5 DUP6 MSTORE PUSH1 0x20 DUP6 ADD SWAP4 SWAP1 SWAP4 MSTORE PUSH1 0x40 DUP5 ADD SWAP2 SWAP1 SWAP2 MSTORE PUSH1 0x60 DUP4 ADD MSTORE PUSH1 0x80 DUP3 ADD MSTORE PUSH1 0xA0 ADD SWAP1 JUMP JUMPDEST PUSH1 0x40 MLOAD DUP2 DUP2 ADD PUSH8 0xFFFFFFFFFFFFFFFF DUP2 GT DUP3 DUP3 LT OR ISZERO PUSH2 0x57D2 JUMPI PUSH1 0x0 DUP1 REVERT JUMPDEST PUSH1 0x40 MSTORE SWAP2 SWAP1 POP JUMP JUMPDEST PUSH1 0x0 PUSH8 0xFFFFFFFFFFFFFFFF DUP3 GT ISZERO PUSH2 0x57F0 JUMPI DUP1 DUP2 REVERT JUMPDEST POP PUSH1 0x20 SWAP1 DUP2 MUL ADD SWAP1 JUMP JUMPDEST PUSH1 0x0 JUMPDEST DUP4 DUP2 LT ISZERO PUSH2 0x5815 JUMPI DUP2 DUP2 ADD MLOAD DUP4 DUP3 ADD MSTORE PUSH1 0x20 ADD PUSH2 0x57FD JUMP JUMPDEST DUP4 DUP2 GT ISZERO PUSH2 0x2DEE JUMPI POP POP PUSH1 0x0 SWAP2 ADD MSTORE JUMP JUMPDEST PUSH1 0x1 PUSH1 0x1 PUSH1 0xA0 SHL SUB DUP2 AND DUP2 EQ PUSH2 0x1E2E JUMPI PUSH1 0x0 DUP1 REVERT JUMPDEST DUP1 ISZERO ISZERO DUP2 EQ PUSH2 0x1E2E JUMPI PUSH1 0x0 DUP1 REVERT JUMPDEST PUSH2 0xFFFF DUP2 AND DUP2 EQ PUSH2 0x1E2E JUMPI PUSH1 0x0 DUP1 REVERT INVALID LOG2 PUSH5 0x6970667358 0x22 SLT KECCAK256 0xD3 0xEB NUMBER 0x5D 0x5D DIV DUP4 0xCE 0xBE 0x26 0xD1 0xD SUB 0xE8 0x5C 0xD8 0xB1 SWAP4 CALLVALUE 0xCA CREATE PUSH32 0xEA8DED2A61868103A49464736F6C634300060C00330000000000000000000000 ",
  "sha1": "6923098709bcb5cdb1e2e52bdc6c0a6bf4464a1a",
  "source": "// SPDX-License-Identifier: AGPL-3.0\n\npragma solidity 0.6.12;\npragma experimental ABIEncoderV2;\n\n// Necessary interfaces to:\n// 1) interact with the Notional protocol\nimport \"../interfaces/notional/NotionalProxy.sol\";\n// 2) Transact between WETH (Vault) and ETH (Notional)\nimport \"../interfaces/IWETH.sol\";\n\n\n// These are the core Yearn libraries\nimport {\n    BaseStrategy,\n    StrategyParams\n} from \"@yearnvaults/contracts/BaseStrategy.sol\";\nimport {\n    SafeERC20,\n    SafeMath,\n    IERC20,\n    Address\n} from \"@openzeppelin/contracts/token/ERC20/SafeERC20.sol\";\n\nimport \"@openzeppelin/contracts/math/Math.sol\";\n\n// Import the necessary structs to send/ receive data from Notional\nimport {\n    BalanceActionWithTrades,\n    AccountContext,\n    PortfolioAsset,\n    AssetRateParameters,\n    Token,\n    ETHRate\n} from \"../interfaces/notional/Types.sol\";\n\n/*\n     * @notice\n     *  Yearn Strategy allocating vault's funds to a fixed rate lending market within the Notional protocol\n*/\ncontract Strategy is BaseStrategy {\n    using SafeERC20 for IERC20;\n    using Address for address;\n    using SafeMath for uint256;\n\n    // NotionalContract: proxy that points to a router with different implementations depending on function \n    NotionalProxy public nProxy;\n    // ID of the asset being lent in Notional\n    uint16 public currencyID; \n    // Difference of decimals between Notional system (8) and want\n    uint256 public DECIMALS_DIFFERENCE;\n    // Scaling factor for entering positions as the fcash estimations have rounding errors\n    uint256 internal constant FCASH_SCALING = 9_995;\n    // minimum maturity for the market to enter\n    uint256 private minTimeToMaturity;\n    // minimum amount of want to act on\n    uint16 public minAmountWant;\n    // Initialize WETH interface\n    IWETH public constant weth = IWETH(0xC02aaA39b223FE8D0A0e5C4F27eAD9083C756Cc2);\n    // Constant necessary to accept ERC1155 fcash tokens (for migration purposes) \n    bytes4 internal constant ERC1155_ACCEPTED = bytes4(keccak256(\"onERC1155Received(address,address,uint256,uint256,bytes)\"));\n    // To control when positions should be liquidated before maturity or not (and thus incur in losses)\n    bool internal toggleRealizeLosses;\n    // Base for percentage calculations. BPS (10000 = 100%, 100 = 1%)\n    uint256 private constant MAX_BPS = 10_000;\n    // Current maturity invested\n    uint256 private maturity;\n\n    // EVENTS\n    event Cloned(address indexed clone);\n\n    /*\n     * @notice constructor for the contract, called at deployment, calls the initializer function used for \n     * cloning strategies\n     * @param _vault Address of the corresponding vault the contract reports to\n     * @param _nProxy Notional proxy used to interact with the protocol\n     * @param _currencyID Notional identifier of the currency (token) the strategy interacts with:\n     * 1 - ETH\n     * 2 - DAI\n     * 3 - USDC\n     * 4 - WBTC\n     */\n    constructor(\n        address _vault,\n        NotionalProxy _nProxy,\n        uint16 _currencyID    \n    ) public BaseStrategy (_vault) {\n        _initializeNotionalStrategy(_nProxy, _currencyID);\n    }\n\n    /*\n     * @notice Initializer function to initialize both the BaseSrategy and the Notional strategy \n     * @param _vault Address of the corresponding vault the contract reports to\n     * @param _strategist Strategist managing the strategy\n     * @param _rewards Rewards address\n     * @param _keeper Keeper address\n     * @param _nProxy Notional proxy used to interact with the protocol\n     * @param _currencyID Notional identifier of the currency (token) the strategy interacts with:\n     * 1 - ETH\n     * 2 - DAI\n     * 3 - USDC\n     * 4 - WBTC\n     */\n    function initialize(\n        address _vault,\n        address _strategist,\n        address _rewards,\n        address _keeper,\n        NotionalProxy _nProxy,\n        uint16 _currencyID\n    ) external {\n        _initialize(_vault, _strategist, _rewards, _keeper);\n        _initializeNotionalStrategy(_nProxy, _currencyID);\n    }\n\n    /*\n     * @notice Internal initializer for the Notional Strategy contract\n     * @param _nProxy Notional proxy used to interact with the protocol\n     * @param _currencyID Notional identifier of the currency (token) the strategy interacts with:\n     * 1 - ETH\n     * 2 - DAI\n     * 3 - USDC\n     * 4 - WBTC\n     */\n    function _initializeNotionalStrategy (\n        NotionalProxy _nProxy,\n        uint16 _currencyID\n    ) internal {\n        currencyID = _currencyID;\n        nProxy = _nProxy;\n\n        (Token memory assetToken, Token memory underlying) = _nProxy.getCurrency(_currencyID);\n        DECIMALS_DIFFERENCE = uint256(underlying.decimals).mul(MAX_BPS).div(uint256(assetToken.decimals));\n        \n        // By default do not realize losses\n        toggleRealizeLosses = false;\n\n        // Check whether the currency is set up right\n        if (_currencyID == 1) {\n            require(address(0) == underlying.tokenAddress); \n        } else {\n            require(address(want) == underlying.tokenAddress);\n        }\n    }\n\n    /*\n     * @notice Cloning function to re-use the strategy code and deploy the same strategy with other key parameters,\n     * notably currencyID or yVault\n     * @param _vault Address of the corresponding vault the contract reports to\n     * @param _strategist Strategist managing the strategy\n     * @param _rewards Rewards address\n     * @param _keeper Keeper address\n     * @param _nProxy Notional proxy used to interact with the protocol\n     * @param _currencyID Notional identifier of the currency (token) the strategy interacts with:\n     * 1 - ETH\n     * 2 - DAI\n     * 3 - USDC\n     * 4 - WBTC\n     */\n    function cloneStrategy(\n        address _vault,\n        address _strategist,\n        address _rewards,\n        address _keeper,\n        NotionalProxy _nProxy,\n        uint16 _currencyID\n    ) external returns (address payable newStrategy) {\n        // Copied from https://github.com/optionality/clone-factory/blob/master/contracts/CloneFactory.sol\n        bytes20 addressBytes = bytes20(address(this));\n\n        assembly {\n            // EIP-1167 bytecode\n            let clone_code := mload(0x40)\n            mstore(clone_code, 0x3d602d80600a3d3981f3363d3d373d3d3d363d73000000000000000000000000)\n            mstore(add(clone_code, 0x14), addressBytes)\n            mstore(add(clone_code, 0x28), 0x5af43d82803e903d91602b57fd5bf30000000000000000000000000000000000)\n            newStrategy := create(0, clone_code, 0x37)\n        }\n\n        Strategy(newStrategy).initialize(_vault, _strategist, _rewards, _keeper, _nProxy, _currencyID);\n\n        emit Cloned(newStrategy);\n    }\n\n    // For ETH based strategies\n    receive() external payable {}\n\n    /*\n     * @notice\n     *  Sweep function only callable by governance to be able to sweep any ETH assigned to the strategy's balance\n     */\n    function sendETHToGovernance() external onlyGovernance {\n        (bool sent, bytes memory data) = governance().call{value: address(this).balance}(\"\");\n        require(sent, \"Failed to send Ether\");\n    }\n\n    /*\n     * @notice\n     *  Getter function for the name of the strategy\n     * @return string, the name of the strategy\n     */\n    function name() external view override returns (string memory) {\n        // Add your own name here, suggestion e.g. \"StrategyCreamYFI\"\n        return \"StrategyNotionalLending\";\n    }\n    \n    /*\n     * @notice\n     *  Getter function for the current invested maturity\n     * @return uint256, current maturity we are invested in\n     */\n    function getMaturity() external view returns(uint256) {\n        return maturity;\n    }\n\n    /*\n     * @notice\n     *  Getter function for the toggle defining whether to realize losses or not\n     * @return bool, current toggleRealizeLosses state variable\n     */\n    function getToggleRealizeLosses() external view returns(bool) {\n        return toggleRealizeLosses;\n    }\n\n    /*\n     * @notice\n     *  Setter function for the toggle defining whether to realize losses or not\n     * only accessible to strategist, governance, guardian and management\n     * @param _newToggle, new booelan value for the toggle\n     */\n    function setToggleRealizeLosses(bool _newToggle) external onlyEmergencyAuthorized {\n        toggleRealizeLosses = _newToggle;\n    }\n    \n    /*\n     * @notice\n     *  Getter function for the minimum time to maturity to invest into\n     * @return uint256, current minTimeToMaturity state variable\n     */\n    function getMinTimeToMaturity() external view returns(uint256) {\n        return minTimeToMaturity;\n    }\n\n    /*\n     * @notice\n     *  Setter function for the minimum time to maturity to invest into, accesible only to strategist, governance, guardian and management\n     * @param _newTime, new minimum time to maturity to invest into\n     */\n    function setMinTimeToMaturity(uint256 _newTime) external onlyEmergencyAuthorized {\n        minTimeToMaturity = _newTime;\n    }\n\n    /*\n     * @notice\n     *  Setter function for the minimum amount of want to invest, accesible only to strategist, governance, guardian and management\n     * @param _newMinAmount, new minimum amount of want to invest\n     */\n    function setMinAmountWant(uint16 _newMinAmount) external onlyEmergencyAuthorized {\n        minAmountWant = _newMinAmount;\n    }\n\n    /*\n     * @notice\n     *  Function estimating the total assets under management of the strategy, whether realized (token balances\n     * of the contract) or unrealized (as Notional lending positions)\n     * @return uint256, value containing the total AUM valuation\n     */\n    function estimatedTotalAssets() public view override returns (uint256) {\n        // To estimate the assets under management of the strategy we add the want balance already \n        // in the contract and the current valuation of the matured and non-matured positions (including the cost of)\n        // closing the position early\n\n        return balanceOfWant()\n            .add(_getTotalValueFromPortfolio())\n        ;\n    }\n\n    /*\n     * @notice\n     *  Accounting function preparing the reporting to the vault taking into acccount the standing debt\n     * @param _debtOutstanding, Debt still left to pay to the vault\n     * @return _profit, the amount of profits the strategy may have produced until now\n     * @return _loss, the amount of losses the strategy may have produced until now\n     * @return _debtPayment, the amount the strategy has been able to pay back to the vault\n     */\n    function prepareReturn(uint256 _debtOutstanding)\n        internal\n        override\n        returns (\n            uint256 _profit,\n            uint256 _loss,\n            uint256 _debtPayment\n        )\n    {\n        // Withdraw from terms that already matured\n        _checkPositionsAndWithdraw();\n\n        // We only need profit for decision making\n        (_profit, ) = getUnrealisedPL();\n        // free funds to repay debt + profit to the strategy\n        uint256 wantBalance = balanceOfWant();\n        \n        // If we cannot realize the profit using want balance, don't report a profit to avoid\n        // closing active positions before maturity\n        if (_profit > wantBalance) {\n            _profit = 0;\n        }\n        uint256 amountRequired = _debtOutstanding.add(_profit);\n        if(amountRequired > wantBalance) {\n            // we need to free funds\n            // NOTE: liquidatePosition will try to use balanceOfWant first\n            // liquidatePosition will realise Losses if required !! (which cannot be equal to unrealised losses if\n            // we are not withdrawing 100% of position)\n            uint256 amountAvailable = 0;\n            uint256 realisedLoss = 0;\n\n            // If the toggle to realize losses is off, do not close any position\n            if(toggleRealizeLosses) {\n                (amountAvailable, realisedLoss) = liquidatePosition(amountRequired);\n            }\n            _loss = realisedLoss;\n            \n            if(amountAvailable >= amountRequired) {\n                _debtPayment = _debtOutstanding;\n                // profit remains unchanged unless there is not enough to pay it\n                if(amountRequired.sub(_debtPayment) < _profit) {\n                    _profit = amountRequired.sub(_debtPayment);\n                }\n            } else {\n                // we were not able to free enough funds\n                if(amountAvailable < _debtOutstanding) {\n                    // available funds are lower than the repayment that we need to do\n                    _profit = 0;\n                    _debtPayment = amountAvailable;\n                    // we dont report losses here as the strategy might not be able to return in this harvest\n                    // but it will still be there for the next harvest\n                } else {\n                    // NOTE: amountRequired is always equal or greater than _debtOutstanding\n                    // important to use amountRequired just in case amountAvailable is > amountAvailable\n                    _debtPayment = _debtOutstanding;\n                    _profit = amountAvailable.sub(_debtPayment);\n                }\n            }\n        } else {\n            _debtPayment = _debtOutstanding;\n            // profit remains unchanged unless there is not enough to pay it\n            if(amountRequired.sub(_debtPayment) < _profit) {\n                _profit = amountRequired.sub(_debtPayment);\n            }\n        }\n    }\n\n    /*\n     * @notice\n     * Function re-allocating the available funds (present in the strategy's balance in the 'want' token)\n     * into new positions in Notional\n     * @param _debtOutstanding, Debt still left to pay to the vault\n     */\n    function adjustPosition(uint256 _debtOutstanding) internal override {\n        uint256 availableWantBalance = balanceOfWant();\n        \n        if(availableWantBalance <= _debtOutstanding) {\n            return;\n        }\n        availableWantBalance = availableWantBalance.sub(_debtOutstanding);\n        if(availableWantBalance < minAmountWant) {\n            return;\n        }\n        \n        // gas savings\n        uint16 _currencyID = currencyID;\n        uint256 _maturity = maturity;\n\n        // Use the market index with the shortest maturity\n        (uint256 minMarketIndex, uint256 minMarketMaturity) = _getMinimumMarketIndex();\n        // If the new position enters a different market than the current maturity, roll the current position into\n        // the next maturity market\n        if(minMarketMaturity > _maturity && _maturity > 0) {\n            availableWantBalance += _rollOverTrade(_maturity);\n        }\n\n        if (_currencyID == 1) {\n            // Only necessary for wETH/ ETH pair\n            weth.withdraw(availableWantBalance);\n        } else {\n            want.approve(address(nProxy), availableWantBalance);\n        }\n        // Amount to trade is the available want balance, changed to 8 decimals and\n        // scaled down by FCASH_SCALING to ensure it does not revert\n        int88 amountTrade = int88(\n                availableWantBalance.mul(MAX_BPS).div(DECIMALS_DIFFERENCE).mul(FCASH_SCALING).div(MAX_BPS)\n            );\n        // NOTE: May revert if the availableWantBalance is too high and interest rates get to < 0\n        int256 fCashAmountToTrade = nProxy.getfCashAmountGivenCashAmount(\n            _currencyID, \n            -amountTrade, \n            minMarketIndex, \n            block.timestamp\n            );\n\n        if (fCashAmountToTrade <= 0) {\n            return;\n        }\n\n        // Trade the shortest maturity market with at least minAmountToMaturity time left\n        bytes32[] memory trades = new bytes32[](1);\n        trades[0] = getTradeFrom(\n            0, \n            minMarketIndex, \n            uint256(fCashAmountToTrade)\n            );\n\n        executeBalanceActionWithTrades(\n            DepositActionType.DepositUnderlying,\n            availableWantBalance,\n            0, \n            true,\n            true,\n            trades\n        );\n\n        maturity = minMarketMaturity;\n    }\n\n    /*\n     * @notice\n     *  Internal function encoding a trade parameter into a bytes32 variable needed for Notional\n     * @param _tradeType, Identification of the trade to perform, following the Notional classification in enum 'TradeActionType'\n     * @param _marketIndex, Market index in which to trade into\n     * @param _amount, fCash amount to trade\n     * @return bytes32 result, the encoded trade ready to be used in Notional's 'BatchTradeAction'\n     */\n    function getTradeFrom(uint8 _tradeType, uint256 _marketIndex, uint256 _amount) internal returns (bytes32 result) {\n        uint8 tradeType = uint8(_tradeType);\n        uint8 marketIndex = uint8(_marketIndex);\n        uint88 fCashAmount = uint88(_amount);\n        uint32 minSlippage = uint32(0);\n        uint120 padding = uint120(0);\n\n        // We create result of trade in a bitmap packed encoded bytes32\n        result = bytes32(uint(tradeType)) << 248;\n        result |= bytes32(uint(marketIndex) << 240);\n        result |= bytes32(uint(fCashAmount) << 152);\n        result |= bytes32(uint(minSlippage) << 120);\n\n        return result;\n    }\n    \n    /*\n     * @notice\n     *  Internal function to assess the unrealised P&L of the Notional's positions\n     * @return uint256 result, the encoded trade ready to be used in Notional's 'BatchTradeAction'\n     */\n    function getUnrealisedPL() internal view returns (uint256 _unrealisedProfit, uint256 _unrealisedLoss) {\n        // Calculate assets. This includes profit and cost of closing current position. \n        // Due to cost of closing position, If called just after opening the position, assets < invested want\n        uint256 totalAssets = estimatedTotalAssets();\n        // Get total debt from vault\n        uint256 totalDebt = vault.strategies(address(this)).totalDebt;\n        // Calculate current P&L\n        if(totalDebt > totalAssets) {\n            // we have losses\n            // Losses are unrealised until we close the position so we should not report them until realised\n            _unrealisedLoss = totalDebt.sub(totalAssets);\n        } else {\n            // we have profit\n            _unrealisedProfit = totalAssets.sub(totalDebt);\n        }\n\n    }\n\n    /*\n     * @notice\n     *  Internal function liquidating enough Notional positions to liberate _amountNeeded 'want' tokens\n     * @param _amountNeeded, The total amount of tokens needed to pay the vault back\n     * @return uint256 _liquidatedAmount, Amount freed\n     * @return uint256 _loss, Losses incurred due to early closing of positions\n     */\n    function liquidatePosition(uint256 _amountNeeded)\n        internal\n        override\n        returns (uint256 _liquidatedAmount, uint256 _loss)\n    {\n        _checkPositionsAndWithdraw();\n\n        uint256 wantBalance = balanceOfWant();\n        if (wantBalance >= _amountNeeded) {\n            return (_amountNeeded, 0);\n        }\n        \n        // Get current position's P&L\n        (, uint256 unrealisedLosses) = getUnrealisedPL();\n        // We only need to withdraw what we don't currently have\n        uint256 amountToLiquidate = _amountNeeded.sub(wantBalance);\n        \n        // Losses are realised IFF we withdraw from the position, as they will come from breaking our \"promise\"\n        // of lending at a certain %\n        // The strategy will only realise losses proportional to the amount we are liquidating\n        uint256 totalDebt = vault.strategies(address(this)).totalDebt;\n        uint256 lossesToBeRealised = unrealisedLosses.mul(amountToLiquidate).div(totalDebt.sub(wantBalance));\n\n        // Due to how Notional works, we need to substract losses from the amount to liquidate\n        // If we don't do this and withdraw a small enough % of position, we will not incur in losses,\n        // leaving them for the future withdrawals (which is bad! those who withdraw should take the losses)\n        amountToLiquidate = amountToLiquidate.sub(lossesToBeRealised);\n\n        // Retrieve info of portfolio (summary of our position/s)\n        PortfolioAsset[] memory _accountPortfolio = nProxy.getAccountPortfolio(address(this));\n        // The maximum amount of trades we are doing is the number of terms (aka markets) we are in\n        bytes32[] memory trades = new bytes32[](_accountPortfolio.length);\n\n        // To liquidate the full required amount we may need to liquidate several differents terms\n        // This shouldn't happen in the basic strategy (as we will only lend to the shortest term)\n        uint256 remainingAmount = amountToLiquidate;\n        // The following for-loop creates the list of required trades to get the amountRequired\n        uint256 tradesToExecute = 0;\n        for(uint256 i; i < _accountPortfolio.length; i++) {\n            if (remainingAmount > 0) {\n                uint256 _marketIndex = _getMarketIndexForMaturity(\n                    _accountPortfolio[i].maturity\n                );\n                // Retrieve size of position in this market (underlyingInternalNotation)\n                (, int256 underlyingInternalNotation) = nProxy.getCashAmountGivenfCashAmount(\n                    currencyID,\n                    int88(-_accountPortfolio[i].notional),\n                    _marketIndex,\n                    block.timestamp\n                );\n                // Adjust for decimals (Notional uses 8 decimals regardless of underlying)\n                uint256 underlyingPosition = uint256(underlyingInternalNotation).mul(DECIMALS_DIFFERENCE).div(MAX_BPS);\n                // If we can withdraw what we need from this market, we do and stop iterating over markets\n                // If we can't, we create the trade to withdraw maximum amount and try in the next market / term\n                if(underlyingPosition > remainingAmount) {\n                    \n                    int256 fCashAmountToTrade = -nProxy.getfCashAmountGivenCashAmount(\n                        currencyID, \n                        int88(remainingAmount.mul(MAX_BPS).div(DECIMALS_DIFFERENCE)) + 1, \n                        _marketIndex, \n                        block.timestamp\n                        );\n                    trades[i] = getTradeFrom(1, _marketIndex, \n                                            uint256(fCashAmountToTrade)\n                                            );\n                    tradesToExecute++;\n                    remainingAmount = 0;\n                    break;\n                } else {\n                    trades[i] = getTradeFrom(1, _marketIndex, uint256(_accountPortfolio[i].notional));\n                    tradesToExecute++;\n                    remainingAmount -= underlyingPosition;\n                    maturity = 0;\n                }\n            }\n        }\n        // NOTE: if for some reason we reach this with remainingAmount > 0, we will report losses !\n        // this makes sense because means we have iterated over all markets and haven't been able to withdraw\n\n        // As we did not know the number of trades we needed to make, we adjust the array to only include\n        // non-empty trades (reverts otherwise)\n        bytes32[] memory final_trades = new bytes32[](tradesToExecute);\n        for (uint256 j=0; j<tradesToExecute; j++) {\n            final_trades[j] = trades[j];\n        }\n\n        // Execute previously calculated trades\n        // We won't deposit anything (we are withdrawing) and we signal that we want the underlying to hit the strategy (instead of remaining in our Notional account)\n        executeBalanceActionWithTrades(\n            DepositActionType.None, \n            0,\n            0, \n            true,\n            true,\n            final_trades\n        );\n\n        // Assess result \n        uint256 totalAssets = balanceOfWant();\n        if (_amountNeeded > totalAssets) {\n            _liquidatedAmount = totalAssets;\n            // _loss should be equal to lossesToBeRealised ! \n            _loss = _amountNeeded.sub(totalAssets);\n            \n        } else {\n            _liquidatedAmount = _amountNeeded;\n        }\n\n        // Re-set the toggle to false\n        toggleRealizeLosses = false;\n    }\n\n    /*\n     * @notice\n     *  Internal function used in emergency to close all active positions and liberate all assets\n     * @return uint256 amountLiquidated, the total amount liquidated\n     */\n    function liquidateAllPositions() internal override returns (uint256) {\n        \n        (uint256 amountLiquidated, ) = liquidatePosition(estimatedTotalAssets());\n\n        return amountLiquidated;\n    }\n    \n    /*\n     * @notice\n     *  Internal function used to migrate all 'want' tokens and active Notional positions to a new strategy\n     * @param _newStrategy address where the contract of the new strategy is located\n     */\n    function prepareMigration(address _newStrategy) internal override {\n        _checkPositionsAndWithdraw();\n        PortfolioAsset[] memory _accountPortfolio = nProxy.getAccountPortfolio(address(this));\n\n        uint256 _id = 0;\n        for(uint256 i = 0; i < _accountPortfolio.length; i++) {\n            _id = nProxy.encodeToId(\n                currencyID, \n                uint40(_accountPortfolio[i].maturity), \n                uint8(_accountPortfolio[i].assetType)\n                );\n            nProxy.safeTransferFrom(\n                address(this), \n                _newStrategy,\n                _id, \n                uint256(_accountPortfolio[i].notional),\n                \"\"\n                );\n        }\n        \n    }\n\n    /*\n     * @notice\n     *  Callback function needed to receive ERC1155 (fcash), not needed for the first startegy contract but \n     * relevant for all the next ones\n     * @param _sender, address of the msg.sender\n     * @param _from, address of the contract sending the erc1155\n     * @_id, encoded id of the asset (fcash or liquidity token)\n     * @_amount, amount of assets tor receive\n     * _data, bytes calldata to perform extra actions after receiving the erc1155\n     * @return bytes4, constant accepting the erc1155\n     */\n    function onERC1155Received(address _sender, address _from, uint256 _id, uint256 _amount, bytes calldata _data) public returns(bytes4){\n        return ERC1155_ACCEPTED;\n    }\n\n    /*\n     * @notice\n     *  Define protected tokens for the strategy to manage persistently that will not get converted back\n     * to 'want'\n     * @return address result, the address of the tokens to protect\n     */\n    function protectedTokens()\n        internal\n        view\n        override\n        returns (address[] memory)\n    {}\n\n    /*\n     * @notice\n     *  Provide an accurate conversion from `_amtInWei` (denominated in wei)\n     *  to `want` (using the native decimal characteristics of `want`).\n     * @dev\n     *  Care must be taken when working with decimals to assure that the conversion\n     *  is compatible. As an example:\n     *\n     *      given 1e17 wei (0.1 ETH) as input, and want is USDC (6 decimals),\n     *      with USDC/ETH = 1800, this should give back 1800000000 (180 USDC)\n     *\n     * @param _amtInWei The amount (in wei/1e-18 ETH) to convert to `want`\n     * @return The amount in `want` of `_amtInEth` converted to `want`\n     */\n    function ethToWant(uint256 _amtInWei)\n        public\n        view\n        override\n        returns (uint256)\n    {\n        return _fromETH(_amtInWei, address(want));\n    }\n\n    /*\n     * @notice\n     *  Internal function exchanging between ETH to 'want'\n     * @param _amount, Amount to exchange\n     * @param asset, 'want' asset to exchange to\n     * @return uint256 result, the equivalent ETH amount in 'want' tokens\n     */\n    function _fromETH(uint256 _amount, address asset)\n        internal\n        view\n        returns (uint256)\n    {\n        if (\n            _amount == 0 ||\n            _amount == type(uint256).max ||\n            address(asset) == address(weth) // 1:1 change\n        ) {\n            return _amount;\n        }\n\n        (\n            Token memory assetToken,\n            Token memory underlyingToken,\n            ETHRate memory ethRate,\n            AssetRateParameters memory assetRate\n        ) = nProxy.getCurrencyAndRates(currencyID);\n            \n        return _amount.mul(uint256(underlyingToken.decimals)).div(uint256(ethRate.rate));\n    }\n\n    // INTERNAL FUNCTIONS\n\n    /*\n     * @notice\n     *  Internal function used to check whether there are positions that have reached maturity and if so, \n     * settle and withdraw them realizing the profits in the strategy's 'want' balance\n     */\n    function _checkPositionsAndWithdraw() internal {\n        // We check if there is anything to settle in the account's portfolio by checking the account's\n        // nextSettleTime in the account context\n        AccountContext memory _accountContext = nProxy.getAccountContext(address(this));\n\n        // If there is something to settle, do it and withdraw to the strategy's balance\n        if (uint256(_accountContext.nextSettleTime) < block.timestamp) {\n            nProxy.settleAccount(address(this));\n\n            (int256 cashBalance, \n            int256 nTokenBalance,\n            uint256 lastClaimTime) = nProxy.getAccountBalance(currencyID, address(this));\n\n            if(cashBalance > 0) {\n                nProxy.withdraw(currencyID, uint88(cashBalance), true);\n                if (currencyID == 1) {\n                    // Only necessary for wETH/ ETH pair\n                    weth.deposit{value: address(this).balance}();\n                }\n                maturity = 0;\n            }\n        }\n\n    }\n\n    /*\n     * @notice\n     *  Loop through the strategy's positions and convert the fcash to current valuation in 'want', including the\n     * fees incurred by leaving the position early. Represents the NPV of the position today.\n     * @return uint256 _totalWantValue, the total amount of 'want' tokens of the strategy's positions\n     */\n    function _getTotalValueFromPortfolio() internal view returns(uint256 _totalWantValue) {\n        PortfolioAsset[] memory _accountPortfolio = nProxy.getAccountPortfolio(address(this));\n        MarketParameters[] memory _activeMarkets = nProxy.getActiveMarkets(currencyID);\n        // Iterate over all active markets and sum value of each position \n        for(uint256 i = 0; i < _accountPortfolio.length; i++) {\n            for(uint256 j = 0; j < _activeMarkets.length; j++){\n                if(_accountPortfolio[i].maturity < block.timestamp) {\n                    // Convert the fcash amount of the position to underlying assuming a 1:1 conversion rate\n                    // (taking into account decimals difference)\n                    _totalWantValue += uint256(_accountPortfolio[i].notional).mul(DECIMALS_DIFFERENCE).div(MAX_BPS);\n                    break;\n                }\n                if(_accountPortfolio[i].maturity == _activeMarkets[j].maturity) {\n                    (, int256 underlyingPosition) = nProxy.getCashAmountGivenfCashAmount(\n                        currencyID,\n                        int88(-_accountPortfolio[i].notional),\n                        j+1,\n                        block.timestamp\n                    );\n                    _totalWantValue += uint256(underlyingPosition).mul(DECIMALS_DIFFERENCE).div(MAX_BPS);\n                    break;\n                }\n            }\n        }\n    }\n\n    // CALCS\n    /*\n     * @notice\n     *  Internal function getting the current 'want' balance of the strategy\n     * @return uint256 result, strategy's 'want' balance\n     */\n    function balanceOfWant() internal view returns (uint256) {\n        return want.balanceOf(address(this));\n    }\n\n    /*\n     * @notice\n     *  Get the market index of a current position to calculate the real cash valuation\n     * @param _maturity, Maturity of the position to value\n     * @param _activeMarkets, All current active markets for the currencyID\n     * @return uint256 result, market index of the position to value\n     */\n    function _getMarketIndexForMaturity(\n        uint256 _maturity\n    ) internal view returns(uint256) {\n        MarketParameters[] memory _activeMarkets = nProxy.getActiveMarkets(currencyID);\n        bool success = false;\n        for(uint256 j=0; j<_activeMarkets.length; j++){\n            if(_maturity == _activeMarkets[j].maturity) {\n                return j+1;\n            }\n        }\n        \n        if (success == false) {\n            return 0;\n        }\n    }\n\n    /*\n     * @notice\n     *  Internal function calculating the market index with the shortest maturity that was at \n     * least minAmountToMaturity seconds still \n     * @return uint256 result, the minimum market index the strategy should be entering positions into\n     * @return uint256 maturity, the minimum market index's maturity the strategy should be entering positions into\n     */\n    function _getMinimumMarketIndex() internal view returns(uint256, uint256) {\n        MarketParameters[] memory _activeMarkets = nProxy.getActiveMarkets(currencyID);\n        for(uint256 i = 0; i<_activeMarkets.length; i++) {\n            if (_activeMarkets[i].maturity - block.timestamp >= minTimeToMaturity) {\n                return (i+1, uint256(_activeMarkets[i].maturity));\n            }\n        }\n    } \n\n    // NOTIONAL FUNCTIONS\n    /*\n     * @notice\n     *  Internal function executing a 'batchBalanceAndTradeAction' within Notional to either Lend or Borrow\n     * @param actionType, Identification of the action to perform, following the Notional classification \n     * in enum 'DepositActionType'\n     * @param withdrawAmountInternalPrecision, withdraw an amount of asset cash specified in Notional \n     *  internal 8 decimal precision\n     * @param withdrawEntireCashBalance, whether to withdraw entire cash balance. Useful if there may be\n     * an unknown amount of asset cash residual left from trading\n     * @param redeemToUnderlying, whether to redeem asset cash to the underlying token on withdraw\n     * @param trades, array of bytes32 trades to perform\n     */\n    function executeBalanceActionWithTrades(\n        DepositActionType actionType,\n        uint256 depositActionAmount,\n        uint256 withdrawAmountInternalPrecision,\n        bool withdrawEntireCashBalance,\n        bool redeemToUnderlying,\n        bytes32[] memory trades) internal {\n        BalanceActionWithTrades[] memory actions = new BalanceActionWithTrades[](1);\n        // gas savings\n        uint16 _currencyID = currencyID;\n        actions[0] = BalanceActionWithTrades(\n            actionType,\n            _currencyID,\n            depositActionAmount,\n            withdrawAmountInternalPrecision, \n            withdrawEntireCashBalance,\n            redeemToUnderlying,\n            trades\n        );\n\n        if (_currencyID == 1) {\n            nProxy.batchBalanceAndTradeAction{value: depositActionAmount}(address(this), actions);\n            weth.deposit{value: address(this).balance}();\n        } else {\n            nProxy.batchBalanceAndTradeAction(address(this), actions);\n        }\n    }\n\n    /*\n     * @notice\n     *  Internal function Closing a current non-mature position to re-invest the amount into a new \n     * higher maturity market\n     * @param _currentMaturity, current maturity the strategy is invested in\n     * @return uint256, liberated amount, now existing in want balance to add up to the availableWantBalance\n     * to trade into in adjustPosition()\n     */\n    function _rollOverTrade(uint256 _currentMaturity) internal returns(uint256) {\n        uint256 prevBalance = balanceOfWant();\n        PortfolioAsset[] memory _accountPortfolio = nProxy.getAccountPortfolio(address(this));\n        uint256 _currentIndex = _getMarketIndexForMaturity(_currentMaturity);\n        \n        bytes32[] memory rollTrade = new bytes32[](1);\n        rollTrade[0] = getTradeFrom(1, _currentIndex, uint256(_accountPortfolio[0].notional));\n        executeBalanceActionWithTrades(\n            DepositActionType.None, \n            0,\n            0, \n            true,\n            true,\n            rollTrade\n        );\n        \n        return (balanceOfWant() - prevBalance);\n    }\n\n}",
  "sourcePath": "contracts/Strategy.sol",
  "type": "contract"
}